:020000040800F2
:1000000000500020D1440008214300082D4300087F
:1000100033430008394300083F4300080000000054
:100020000000000000000000000000004543000840
:1000300051430008000000005D43000869430008C8
:100040001945000819450008194500081945000818
:100050001945000819450008194500081945000808
:10006000194500081945000819450008794300089A
:1000700019450008194500081945000819450008E8
:10008000194500081945000891430008A5430008D8
:10009000C143000819450008194500081945000822
:1000A00019450008194500081945000819450008B8
:1000B00019450008194500081945000819450008A8
:1000C0001945000819450008194500081945000898
:1000D000E9430008194500081945000819450008BA
:1000E00019450008194500081945000800000000DE
:1000F0000000000000000000000000000000000000
:0C01000000000000000000005FF808F1A3
:1001100010B5054C237833B9044B13B10448AFF341
:1001200000800123237010BD4C030020000000005C
:1001300088BF000808B5034B1BB103490348AFF360
:10014000008008BD000000005003002088BF0008A8
:10015000034613F8012B002AFBD1181A0138704707
:1001600081F0004102E000BF83F0004330B54FEA68
:1001700041044FEA430594EA050F08BF90EA020FD5
:100180001FBF54EA000C55EA020C7FEA645C7FEA68
:10019000655C00F0E2804FEA5454D4EB5555B8BF8B
:1001A0006D420CDD2C4480EA020281EA030382EAFC
:1001B000000083EA010180EA020281EA0303362D8E
:1001C00088BF30BD11F0004F4FEA01314FF4801C61
:1001D0004CEA113102D0404261EB410113F0004F73
:1001E0004FEA03334CEA133302D0524263EB43032A
:1001F00094EA050F00F0A780A4F10104D5F1200EC8
:100200000DDB02FA0EFC22FA05F2801841F1000122
:1002100003FA0EF2801843FA05F359410EE0A5F1F6
:1002200020050EF1200E012A03FA0EFC28BF4CF027
:10023000020C43FA05F3C01851EBE37101F00045DD
:1002400007D54FF0000EDCF1000C7EEB00006EEBEA
:100250000101B1F5801F1BD3B1F5001F0CD3490874
:100260005FEA30004FEA3C0C04F101044FEA4452CB
:1002700012F5800F80F09A80BCF1004F08BF5FEA52
:10028000500C50F1000041EB045141EA050130BD32
:100290005FEA4C0C404141EB010111F4801FA4F1D5
:1002A0000104E9D191F0000F04BF01460020B1FA2A
:1002B00081F308BF2033A3F10B03B3F120020CDA62
:1002C0000C3208DD02F1140CC2F10C0201FA0CF040
:1002D00021FA02F10CE002F11402D8BFC2F1200CA5
:1002E00001FA02F120FA0CFCDCBF41EA0C0190405B
:1002F000E41AA2BF01EB0451294330BD6FEA0404A4
:100300001F3C1CDA0C340EDC04F11404C4F120028E
:1003100020FA04F001FA02F340EA030021FA04F3A0
:1003200045EA030130BDC4F10C04C4F1200220FAF7
:1003300002F001FA04F340EA0300294630BD21FA35
:1003400004F0294630BD94F0000F83F4801306BFFB
:1003500081F480110134013D4EE77FEA645C18BFEF
:100360007FEA655C29D094EA050F08BF90EA020F86
:1003700005D054EA000C04BF1946104630BD91EA7E
:10038000030F1EBF0021002030BD5FEA545C05D181
:100390004000494128BF41F0004130BD14F58004C0
:1003A0003CBF01F5801130BD01F0004545F0FE4134
:1003B00041F470014FF0000030BD7FEA645C1ABF69
:1003C000194610467FEA655C1CBF0B46024650EAA0
:1003D000013406BF52EA033591EA030F41F40021CC
:1003E00030BD00BF90F0000F04BF0021704730B552
:1003F0004FF4806404F132044FF000054FF0000127
:1004000050E700BF90F0000F04BF0021704730B5E7
:100410004FF4806404F1320410F0004548BF4042BC
:100420004FF000013EE700BF42004FEAE2014FEA11
:1004300031014FEA02701FBF12F07F4393F07F4FEC
:1004400081F06051704732F07F4208BF704793F0EF
:100450007F4F04BF41F40021704730B54FF4607402
:1004600001F0004521F000411CE700BF50EA010205
:1004700008BF704730B54FF000050AE050EA0102AE
:1004800008BF704730B511F0004502D5404261EB1E
:1004900041014FF4806404F132045FEA915C3FF45F
:1004A000D8AE4FF003025FEADC0C18BF03325FEAFC
:1004B000DC0C18BF033202EBDC02C2F1200300FAAD
:1004C00003FC20FA02F001FA03FE40EA0E0021FAD2
:1004D00002F11444BDE600BF70B54FF0FF0C4CF4C0
:1004E000E06C1CEA11541DBF1CEA135594EA0C0F72
:1004F00095EA0C0F00F0DEF82C4481EA030621EAAD
:100500004C5123EA4C5350EA013518BF52EA0335E7
:1005100041F4801143F4801338D0A0FB02CE4FF099
:100520000005E1FB02E506F00042E0FB03E54FF0C9
:100530000006E1FB03569CF0000F18BF4EF0010EC1
:10054000A4F1FF04B6F5007F64F5407404D25FEABD
:100550004E0E6D4146EB060642EAC62141EA555170
:100560004FEAC52040EA5E504FEACE2EB4F1FD0CB2
:1005700088BFBCF5E06F1ED8BEF1004F08BF5FEA30
:10058000500E50F1000041EB045170BD06F00046E2
:1005900046EA010140EA020081EA0301B4EB5C048F
:1005A000C2BFD4EB0C0541EA045170BD41F4801187
:1005B0004FF0000E013C00F3AB8014F1360FDEBFAC
:1005C000002001F0004170BDC4F10004203C35DA88
:1005D0000C341BDC04F11404C4F1200500FA05F30B
:1005E00020FA04F001FA05F240EA020001F00042AC
:1005F00021F0004110EBD37021FA04F642EB060122
:100600005EEA430E08BF20EAD37070BDC4F10C044B
:10061000C4F1200500FA04F320FA05F001FA04F20F
:1006200040EA020001F0004110EBD37041F10001FB
:100630005EEA430E08BF20EAD37070BDC4F1200506
:1006400000FA05F24EEA020E20FA04F301FA05F26E
:1006500043EA020321FA04F001F0004121FA04F216
:1006600020EA020000EBD3705EEA430E08BF20EAE6
:10067000D37070BD94F0000F0FD101F00046400020
:1006800041EB010111F4801F08BF013CF7D041EAA2
:10069000060195F0000F18BF704703F000465200A6
:1006A00043EB030313F4801F08BF013DF7D043EA77
:1006B0000603704794EA0C0F0CEA135518BF95EA2D
:1006C0000C0F0CD050EA410618BF52EA4306D1D1B4
:1006D00081EA030101F000414FF0000070BD50EAD3
:1006E000410606BF1046194652EA430619D094EA5D
:1006F0000C0F02D150EA013613D195EA0C0F05D147
:1007000052EA03361CBF104619460AD181EA03019A
:1007100001F0004141F0FE4141F470014FF0000052
:1007200070BD41F0FE4141F4780170BD70B54FF0ED
:10073000FF0C4CF4E06C1CEA11541DBF1CEA13556D
:1007400094EA0C0F95EA0C0F00F0A7F8A4EB05044F
:1007500081EA030E52EA03354FEA013100F0888046
:100760004FEA03334FF0805545EA131343EA12630F
:100770004FEA022245EA111545EA10654FEA0026C4
:100780000EF000419D4208BF964244F1FD0404F57D
:10079000407402D25B084FEA3202B61A65EB0305D9
:1007A0005B084FEA32024FF480104FF4002CB6EB96
:1007B000020E75EB030E22BFB61A754640EA0C0016
:1007C0005B084FEA3202B6EB020E75EB030E22BF56
:1007D000B61A754640EA5C005B084FEA3202B6EB97
:1007E000020E75EB030E22BFB61A754640EA9C0056
:1007F0005B084FEA3202B6EB020E75EB030E22BF26
:10080000B61A754640EADC0055EA060E18D04FEAE3
:10081000051545EA16754FEA06164FEAC30343EA83
:1008200052734FEAC2025FEA1C1CC0D111F4801F50
:100830000BD141EA00014FF000004FF0004CB6E749
:1008400011F4801F04BF01430020B4F1FD0C88BFE8
:10085000BCF5E06F3FF6AFAEB5EB030C04BFB6EBF3
:10086000020C5FEA500C50F1000041EB045170BDE6
:100870000EF0004E4EEA113114EB5C04C2BFD4EB13
:100880000C0541EA045170BD41F480114FF0000E97
:10089000013C90E645EA060E8DE60CEA135594EA13
:1008A0000C0F08BF95EA0C0F3FF43BAF94EA0C0F16
:1008B0000AD150EA01347FF434AF95EA0C0F7FF48B
:1008C00025AF104619462CE795EA0C0F06D152EADF
:1008D00003353FF4FDAE1046194622E750EA4106C3
:1008E00018BF52EA43067FF4C5AE50EA41047FF4D4
:1008F0000DAF52EA43057FF4EBAE12E74FEA410237
:10090000B2F1E04324BFB3F5001CDCF1FE5C0DD96D
:1009100001F0004C4FEAC0024CEA5070B2F1004FB7
:1009200040EB830008BF20F00100704711F0804FBA
:1009300021D113F13872BCBF01F00040704741F47F
:1009400080114FEA5252C2F11802C2F1200C10FA83
:100950000CF320FA02F018BF40F001004FEAC12367
:100960004FEAD32303FA0CFC40EA0C0023FA02F30B
:100970004FEA4303CCE77FEA625307D150EA0133E1
:100980001EBF4FF0FE4040F44000704701F00040B1
:1009900040F0FE4040F40000704700BF80F000408F
:1009A00002E000BF81F0004142001FBF5FEA410347
:1009B00092EA030F7FEA226C7FEA236C6AD04FEA47
:1009C0001262D2EB1363C1BFD2184140484041408C
:1009D000B8BF5B42192B88BF704710F0004F40F43E
:1009E000000020F07F4018BF404211F0004F41F45A
:1009F000000121F07F4118BF494292EA030F3FD026
:100A0000A2F1010241FA03FC10EB0C00C3F1200338
:100A100001FA03F100F0004302D5494260EB4000C7
:100A2000B0F5000F13D3B0F1807F06D340084FEA32
:100A3000310102F10102FE2A51D2B1F1004F40EB27
:100A4000C25008BF20F0010040EA0300704749008F
:100A500040EB000010F4000FA2F10102EDD1B0FA5A
:100A600080FCACF1080CB2EB0C0200FA0CF0AABF4F
:100A700000EBC25052421843BCBFD04018437047ED
:100A800092F0000F81F4000106BF80F400000132F3
:100A9000013BB5E74FEA41037FEA226C18BF7FEACA
:100AA000236C21D092EA030F04D092F0000F08BF0C
:100AB0000846704790EA010F1CBF0020704712F0F3
:100AC0007F4F04D1400028BF40F00040704712F132
:100AD00000723CBF00F50000704700F0004343F097
:100AE000FE4040F4000070477FEA226216BF0846CD
:100AF0007FEA23630146420206BF5FEA412390EA90
:100B0000010F40F4800070474FF0000304E000BF85
:100B100010F0004348BF40425FEA000C08BF704736
:100B200043F0964301464FF000001CE050EA0102FA
:100B300008BF70474FF000030AE000BF50EA01020F
:100B400008BF704711F0004302D5404261EB4101FC
:100B50005FEA010C02BF84460146002043F0B64321
:100B600008BFA3F18053A3F50003BCFA8CF2083A46
:100B7000A3EBC25310DB01FA02FC634400FA02FC4F
:100B8000C2F12002BCF1004F20FA02F243EB020056
:100B900008BF20F00100704702F1200201FA02FCB8
:100BA000C2F1200250EA4C0021FA02F243EB0200AB
:100BB00008BF20EADC7070474FF0FF0C1CEAD052EF
:100BC0001EBF1CEAD15392EA0C0F93EA0C0F6FD0B0
:100BD0001A4480EA010C400218BF5FEA41211ED08E
:100BE0004FF0006343EA501043EA5111A0FB01317A
:100BF0000CF00040B1F5000F3EBF490041EAD3714F
:100C00005B0040EA010062F17F02FD2A1DD8B3F1CA
:100C1000004F40EBC25008BF20F00100704790F039
:100C2000000F0CF0004C08BF49024CEA502040EA8B
:100C300051207F3AC2BFD2F1FF0340EAC250704751
:100C400040F400004FF00003013A5DDC12F1190F8F
:100C5000DCBF00F000407047C2F10002410021FA01
:100C600002F1C2F1200200FA02FC5FEA310040F119
:100C7000000053EA4C0308BF20EADC70704792F092
:100C8000000F00F0004C02BF400010F4000F013ACA
:100C9000F9D040EA0C0093F0000F01F0004C02BFC5
:100CA000490011F4000F013BF9D041EA0C018FE734
:100CB0000CEAD15392EA0C0F18BF93EA0C0F0AD03A
:100CC00030F0004C18BF31F0004CD8D180EA010060
:100CD00000F00040704790F0000F17BF90F0004FF9
:100CE000084691F0000F91F0004F14D092EA0C0FDB
:100CF00001D142020FD193EA0C0F03D14B0218BF6E
:100D0000084608D180EA010000F0004040F0FE40B3
:100D100040F40000704740F0FE4040F4400070474F
:100D20004FF0FF0C1CEAD0521EBF1CEAD15392EACE
:100D30000C0F93EA0C0F69D0A2EB030280EA010CBE
:100D400049024FEA402037D04FF0805343EA111157
:100D500043EA10130CF000408B4238BF5B0042F1B5
:100D60007D024FF4000C8B4224BF5B1A40EA0C005A
:100D7000B3EB510F24BFA3EB510340EA5C00B3EB8C
:100D8000910F24BFA3EB910340EA9C00B3EBD10F7A
:100D900024BFA3EBD10340EADC001B0118BF5FEACC
:100DA0001C1CE0D1FD2A3FF650AF8B4240EBC250F5
:100DB00008BF20F0010070470CF0004C4CEA5020B6
:100DC0007F32C2BFD2F1FF0340EAC250704740F405
:100DD00000004FF00003013A37E792F0000F00F0F7
:100DE000004C02BF400010F4000F013AF9D040EA75
:100DF0000C0093F0000F01F0004C02BF490011F409
:100E0000000F013BF9D041EA0C0195E70CEAD15300
:100E100092EA0C0F08D142027FF47DAF93EA0C0FE7
:100E20007FF470AF084676E793EA0C0F04D14B02CB
:100E30003FF44CAF08466EE730F0004C18BF31F07D
:100E4000004CCAD130F000427FF45CAF31F0004377
:100E50007FF43CAF5FE700BF4FF0FF3C06E000BF10
:100E60004FF0010C02E000BF4FF0010C4DF804CD33
:100E70004FEA40024FEA41037FEA226C18BF7FEA43
:100E8000236C11D001B052EA530C18BF90EA010F45
:100E900058BFB2EB030088BFC81738BF6FEAE170D4
:100EA00018BF40F0010070477FEA226C02D15FEA70
:100EB000402C05D17FEA236CE4D15FEA412CE1D0DC
:100EC0005DF8040B704700BF844608466146FFE7A3
:100ED0000FB5FFF7C9FF002848BF10F1000F0FBD85
:100EE0004DF808EDFFF7F4FF0CBF012000205DF87E
:100EF00008FB00BF4DF808EDFFF7EAFF34BF012003
:100F000000205DF808FB00BF4DF808EDFFF7E0FF9B
:100F100094BF012000205DF808FB00BF4DF808EDEC
:100F2000FFF7D2FF94BF012000205DF808FB00BF4F
:100F30004DF808EDFFF7C8FF34BF012000205DF831
:100F400008FB00BF4FEA4002B2F1FE4F0FD34FF053
:100F50009E03B3EB12620DD94FEA002343F0004326
:100F600010F0004F23FA02F018BF404270474FF0D4
:100F70000000704712F1610F01D1420205D110F05B
:100F8000004008BF6FF0004070474FF0000070470E
:100F900080B586B002AF0346FB7107F10F02F91D61
:100FA000FF2300930123074806F05DFD00BF054BBA
:100FB00093F85130DBB2012BF9D1FB7B1846103787
:100FC000BD4680BD9805002080B500AF01224FF4DA
:100FD0008051054804F0A4FF00F01EF800F052F81C
:100FE00000F030F800BF80BD000C014080B500AFBC
:100FF00000224FF48051074804F092FF0620FFF7CB
:10100000C7FF01224FF48051024804F089FF00BF5E
:1010100080BD00BF000C014080B500AF00224FF43E
:101020008051074804F07CFF0420FFF7B1FF012244
:101030004FF48051024804F073FF00BF80BD00BF31
:10104000000C014080B582B000AF0023FB7100228C
:101050004FF480510A4804F063FF0520FFF798FF22
:10106000AB20FFF795FF0346FB7101224FF480513F
:10107000034804F055FFFB7918460837BD4680BD8C
:10108000000C014080B582B000AF0023FB7100224C
:101090004FF480510F4804F043FF0520FFF778FF1D
:1010A000AB20FFF775FF0346FB71012003F098FAB0
:1010B00002F0C6F9FB7903F00103002BF0D1012205
:1010C0004FF48051034804F02BFF00BF0837BD46A2
:1010D00080BD00BF000C014080B500AFFFF7D2FF1C
:1010E000FFF784FF00224FF480510A4804F018FFF4
:1010F000C720FFF74DFF01224FF48051054804F04F
:101100000FFFFFF7BFFFFFF787FFFFF7BBFF00BF32
:1011100080BD00BF000C014080B586B000AFF86014
:10112000B9607A60FB687B61FFF7ACFFFFF75EFF99
:10113000BB681B02BB6000224FF480511B4804F0C7
:10114000EFFE0220FFF724FFBB681B0CFB74FB7C47
:101150001846FFF71DFFBB681B0AFB74FB7C184693
:10116000FFF716FFBB68FB74FB7C1846FFF710FF08
:1011700007E07B691B781846FFF70AFF7B6901339C
:101180007B617B685A1E7A60002BF2D101224FF4FA
:101190008051064804F0C4FEFFF774FFFFF73CFFE0
:1011A000FFF770FF00BF1837BD4680BD000C01403F
:1011B00080B586B000AFF860B9607A60FB687B618B
:1011C000FFF760FFFFF728FFFFF75CFFBB681B021C
:1011D000BB6000224FF480511B4804F0A1FE0B209D
:1011E000FFF7D6FEBB681B0CFB74FB7C1846FFF7B1
:1011F000CFFEBB681B0AFB74FB7C1846FFF7C8FEDA
:10120000BB68FB74FB7C1846FFF7C2FEAB20FFF700
:10121000BFFE09E0AB20FFF7BBFE03461A467B6921
:101220001A707B6901337B617B685A1E7A60002BE0
:10123000F0D101224FF48051034804F071FE00BF49
:101240001837BD4680BD00BF000C014080B500AF1F
:10125000FFF7BAFE00F0E8F90346184680BD00002B
:1012600080B5ADF5836D00AF3B1D18603B4619603E
:1012700007F10803264A184611464FF480631A46C0
:101280000AF098F84FF0FF33C7F80C340023C7F882
:1012900014342EE0D7F80C341B0EC7F808343B4644
:1012A000D7F814241B689A4208DAD7F814343A1D88
:1012B000126813441B7887F8133402E0002387F880
:1012C0001334D7F80C341A0297F813341343C7F8C1
:1012D0000C3407F10803D7F8082453F82230D7F864
:1012E0000C245340C7F80C34D7F814340133C7F832
:1012F00014343B461B680433D7F814249A42C9DBE4
:10130000D7F80C34184607F58367BD4680BD00BF8B
:10131000A0BF000880B584B000AF0346FB71402336
:101320003B73FB797B7307F10C030221184602F033
:1013300091F800BF1037BD4680BD000080B58AB06F
:1013400000AFF8600B467A60FB72FB7A5B00642B9F
:1013500001DD002337E0FB687B6230233B75782397
:101360007B75002387F8233007F114030233FB61F8
:10137000FB687B621FE07B6A1B889AB2FB691A805C
:10138000FB69023300221A7007F1100207F11403FF
:101390000F4918460AF022F8396997F823307A681D
:1013A0001344CAB21A7097F82330013387F82330F8
:1013B0007B6A02337B62FB7AFA6813447A6A9A4248
:1013C000D9D397F8233018462837BD4680BD00BFD3
:1013D000A0C3000880B500AFFFF754FE00BF80BD7A
:1013E00080B5C4B000AF3B1D186008461146BB1C59
:1013F00002461A807B1C0A461A70554B1B88FF2B2D
:1014000001D900239EE07B1C1B78002B13D0504B8E
:101410001B88002B0FD04F4B19684D4B1B88013395
:101420001A464D48FFF778FEFFF7D4FF484B0022DD
:101430001A80012386E0BB1C1B88093BA7F80A31F0
:101440003B1D1B681B78242B08D1BB1C1B88013B50
:101450003A1D126813441B78232B01D0002371E03E
:10146000B7F80A31B3F5007F01D900236AE03B1DCC
:101470001B680833B7F80A21D1B207F108021846F1
:10148000FFF75CFF0346A7F80A31B7F80A3107F106
:1014900008020021D154B7F80A21304B1B681344CD
:1014A0002E4A13600023C7F80C3137E0284B1B8805
:1014B000FF2B12D1274B1B684FF480721946264828
:1014C000FFF72AFEFFF786FF214B00221A80214BEF
:1014D0001B6801331F4A13601BE01D4B1B88194614
:1014E00007F10802D7F80C3113441A781A4B5A54F2
:1014F000174B1B88194607F10802D7F80C31134423
:101500001A78174B5A54124B1B8801339AB2104B5E
:101510001A80D7F80C310133C7F80C31B7F80A310B
:10152000D7F80C219A42C1DB094B1B881A460D4B98
:101530001A60B7F80A310C4A1360BB1C1B880B4AAF
:1015400013600123184607F58877BD4680BD00BFAC
:10155000D008002074070020B8070020BC08002035
:10156000F405002000070020F8060020FC060020FB
:1015700080B584B000AF012200210020FFF730FFCA
:1015800001F05EFF234B00221A6000237B60224B98
:101590001B681B0A9BB201337B810123FB6017E0B0
:1015A0004FF4807200211D4809F00FFFFB684FF4D3
:1015B000807219461948FFF7FBFDFF211748FFF716
:1015C0004FFE02467B6813447B60FB680133FB607F
:1015D0007B89FA689A42E3DD4FF4807200210F485C
:1015E00009F0F3FE0D4BAB221A700D4A7B681360B5
:1015F0000C4A094B1B681360064B1B684FF4807242
:1016000019460648FFF788FDFFF7E4FE00BF1037D4
:10161000BD4680BD74070020BC080020B80700202C
:10162000B9070020BD07002080B584B000AF304B63
:1016300000221A802F4B00221A6001F001FF2D4B6F
:101640001B684FF4807219462B48FFF7B1FD2A4BF7
:101650001B78AB2B01D0002346E00023FB60002366
:101660003B60264B1B683B60254B1B681A46254B8D
:101670001A60244B1B681B0A9BB20133FB800123B9
:10168000BB6017E04FF4807200211B4809F09DFEFB
:10169000BB684FF4807219461748FFF789FDFF2198
:1016A0001548FFF7DDFD0246FB681344FB60BB688D
:1016B0000133BB60FB88BA689A42E3DD3B68FA6895
:1016C0009A4207D1104B01221A700A4B01221A606C
:1016D000012309E00C4B00221A70064B01221A600C
:1016E000084B00221A60002318461037BD4680BD03
:1016F000D008002074070020B8070020B907002098
:10170000BD070020BC080020B808002080B582B0CA
:1017100000AF78607B685B6E002B6DD07B681B78B8
:10172000402B37D17B685B78502B16D1FFF7D4FC68
:1017300001F086FE324B00221A70324B00221A70E2
:10174000314B01221A60314B00221A60304B0022CB
:101750001A80304B01221A7018E07B685B78452BA9
:1017600014D12C4B1B78002B10D0FFF701FF294B15
:1017700000221A70FFF758FF034683F00103DBB223
:10178000002B03D05220FFF7C5FD36E04F20FFF7B6
:10179000C1FD32E01F4B1B7883F00103DBB2002B4D
:1017A00003D05220FFF7B6FD27E07B681B78242B7F
:1017B00016D1184B1B78002B12D078687B685B6EB3
:1017C0009BB200221946FFF70BFE0346002B03D005
:1017D0004F20FFF79FFD10E05220FFF79BFD0CE02C
:1017E0007B681B78212B08D10A4B1B78002B04D077
:1017F0004F20FFF78FFD00E000BF0837BD4680BDDA
:10180000B80800207107002074070020BC080020E1
:10181000D00800207007002080B500AF104B0022D8
:101820001A70104B00225A660F4B0022DA604022D9
:1018300000210E4809F0C9FD0D4B00221A700D4B16
:1018400000221A700C4B00221A700C4B00221A70E6
:101850000B4B00221A600B4B01221A6000BF80BDA7
:101860007007002008070020C0080020780700202B
:10187000B808002005070020710700200407002099
:10188000BC0800207407002080B500AFF0220021C2
:10189000094809F09AFDA0220021084809F095FDA9
:1018A0000F220021064809F090FD02220021054880
:1018B00009F08BFD00BF80BDE4100020D40800209B
:1018C000DC110020E010002080B586B000AF034698
:1018D000FB8007237B617B69102B01DD10237B617B
:1018E00000233B616AE0FB8803F00103002B14BF77
:1018F00001230023FB73FB885B08FB803B69023BF1
:10190000042B58D801A252F823F000BF2119000877
:101910003F1900085D1900087B1900089919000893
:10192000FB7B002B05D000228021284804F0F8FA28
:1019300041E001228021254804F0F2FA3BE0FB7BE4
:10194000002B05D000224021204804F0E9FA32E0C3
:10195000012240211D4804F0E3FA2CE0FB7B002B20
:1019600005D000222021194804F0DAFA23E00122F0
:101970002021164804F0D4FA1DE0FB7B002B05D093
:1019800000221021114804F0CBFA14E001221021AA
:101990000E4804F0C5FA0EE0FB7B002B05D00022B8
:1019A00008210A4804F0BCFA04E001220821074893
:1019B00004F0B6FA00BF3B6901333B613A697B69C9
:1019C0009A4290DB00BF1837BD4680BD000C014035
:1019D00080B58AB000AF786039607B687B62002395
:1019E000BB6007F10C030322796A184609F0E2FC98
:1019F0000023FB7307F10C03013307F10802A6492A
:101A0000184609F0EBFCBB68DBB27B753B7B3B7592
:101A10007B6803337B627B6A1B78FB757B6A0133CF
:101A20007B627B6A1B78252B05D101233B767B6A81
:101A300001337B6201E000233B767A6A07F10C03F5
:101A40001068516803C300233B629FE107F10C0259
:101A50003B6A13441B78422B40F0958107F10C023E
:101A60003B6A134400221A7007F1080207F10C03C5
:101A70008949184609F0B2FCBB68FB613B6A023336
:101A80007A6A13447B6207F108031A468249786A2E
:101A900009F0A4FCBB68DBB2BB75BB7DFA697F496A
:101AA0001B010B4408331A60BB7DF97D7B4A1B0187
:101AB000134404330A461A703B7D462B2ED17B7D9E
:101AC000002B13D13B7E83F00103DBB2002B06D049
:101AD000BB7D724A1B011344714A1A605BE1BB7DF6
:101AE0006E4A1B0113446F4A1A6054E17B7D012B3F
:101AF00040F051813B7E83F00103DBB2002B06D026
:101B0000BB7D664A1B011344674A1A6043E1BB7DF3
:101B1000624A1B011344654A1A603CE13B7D492B34
:101B200075D17B7D042B00F2368101A252F823F09F
:101B3000451B00086D1B0008951B0008BD1B000815
:101B4000E51B00083B7E83F00103DBB2002B06D0CF
:101B5000BB7D524A1B011344554A1A6012E1BB7DFA
:101B60004E4A1B011344534A1A600BE13B7E83F03B
:101B70000103DBB2002B06D0BB7D484A1B01134496
:101B80004D4A1A60FEE0BB7D444A1B0113444B4A98
:101B90001A60F7E03B7E83F00103DBB2002B06D036
:101BA000BB7D3E4A1B011344454A1A60EAE0BB7DF7
:101BB0003A4A1B011344434A1A60E3E03B7E83F038
:101BC0000103DBB2002B06D0BB7D344A1B0113445A
:101BD0003D4A1A60D6E0BB7D304A1B0113443B4AA4
:101BE0001A60CFE03B7E83F00103DBB2002B06D00E
:101BF000BB7D2A4A1B011344354A1A60C2E0BB7DF3
:101C0000264A1B011344334A1A6000BFBAE03B7DE9
:101C1000432B40F0C0807B7D0E2B00F2B28001A2EE
:101C200052F823F0611C00086F1C00087D1C00089E
:101C30008B1C0008E91C0008F71C0008051D0008A3
:101C4000131D0008211D00082F1D00083D1D000860
:101C50004B1D0008591D0008671D0008751D000870
:101C6000BB7D0E4A1B0113441B4A1A608AE0BB7DF0
:101C70000A4A1B011344194A1A6083E0BB7D074AD4
:101C80001B011344164A1A607CE0BB7D034A1B010A
:101C90001344144A1A6075E0A4C30008E41000203D
:101CA000780700207C0700208007002084070020A0
:101CB00088070020A40700208C070020A807002028
:101CC00090070020AC07002094070020B0070020F8
:101CD00098070020B40700209C0900201C0A00205F
:101CE0009C0A00201C0B0020BB7D2D4A1B011344C5
:101CF0002C4A1A6046E0BB7D294A1B0113442A4A3C
:101D00001A603FE0BB7D264A1B011344274A1A6034
:101D100038E0BB7D224A1B011344254A1A6031E09A
:101D2000BB7D1F4A1B011344224A1A602AE0BB7D77
:101D30001B4A1B011344204A1A6023E0BB7D184A4A
:101D40001B0113441D4A1A601CE0BB7D144A1B0191
:101D500013441B4A1A6015E0BB7D114A1B01134452
:101D6000184A1A600EE0BB7D0D4A1B011344164A47
:101D70001A6007E0BB7D0A4A1B011344134A1A602C
:101D800000E000BF07E03B6A01333B623B6A072B80
:101D90007FF75CAE00E000BF00BF2837BD4680BDC6
:101DA000E41000209C0B00201C0C00209C0C002048
:101DB0001C0D00209C0D00201C0E00209C0E0020FD
:101DC0001C0F00209C0F00201C1000209C100020E5
:101DD00080B582B000AF00237B6090E04C4A7B6806
:101DE0001B0113441B68002B00F08680484A7B6867
:101DF0001B01134404331B783E2B0FD0444A7B68ED
:101E00001B01134404331B783C2B07D0404A7B68EA
:101E10001B01134404331B783D2B6DD13C4A7B6876
:101E20001B01134404331B783E2B1CD1384A7B68BA
:101E30001B0113441B681B681846FFF783F8014613
:101E4000334A7B681B01134408331B689942CCBF9B
:101E500001230023D9B22E4A7B681B0113440C33A3
:101E60000A461A7048E02A4A7B681B01134404336F
:101E70001B783C2B1CD1264A7B681B0113441B6832
:101E80001B681846FFF75EF80146214A7B681B0174
:101E9000134408331B689942B4BF01230023D9B20D
:101EA0001B4A7B681B0113440C330A461A7023E05B
:101EB000174A7B681B01134404331B783D2B1BD14D
:101EC000134A7B681B0113441B681B681846FFF705
:101ED00039F801460E4A7B681B01134408331B681E
:101EE00099420CBF01230023D9B2094A7B681B0128
:101EF00013440C330A461A707B6801337B607B689D
:101F00000E2B7FF76BAF00BF0837BD4680BD00BF0B
:101F1000E410002080B582B000AF1F4B1B78002B6F
:101F200036D000237B6030E07B68002B02D0012B91
:101F300014D027E0194A7B6813441B78002B06D085
:101F400001224FF48061164803F0EAFF1AE00022F4
:101F50004FF48061124803F0E3FF13E00F4A7B68FF
:101F600013441B78002B06D001224FF400710C485B
:101F700003F0D6FF05E000224FF40071084803F09B
:101F8000CFFF00BF7B6801337B607B68012BCBDD1B
:101F900000BF0837BD4680BD04070020E0100020C8
:101FA0000008014080B582B000AF78607B681B7B81
:101FB000742B2CD17B681B7883F00103DBB2002BE0
:101FC00008D07B6800225A7002F000FB02467B6852
:101FD0009A603AE002F0FAFA02467B689B68D21AED
:101FE0007B685B689A4202D37B6801225A7002F0D8
:101FF000EDFA02467B689B68D21A7B685B689A425E
:102000002CBF01230023DAB27B685A701DE07B6885
:102010001B7B632B19D17B681B78002B08D07B6856
:1020200001225A7002F0D2FA02467B689A600CE0F4
:1020300002F0CCFA02467B689B68D21A7B685B6828
:102040009A4202D97B6800225A7000BF0837BD4609
:1020500080BD000080B582B000AF00237B6009E046
:102060007B681B01074A13441846FFF79BFF7B68F8
:1020700001337B607B68092BF2DD00BF0837BD466A
:1020800080BD00BFD408002080B584B000AFF860E8
:102090007B600B46FB721346BB72FB681B7BBA7AF4
:1020A0009A420CD010220021F86809F08EF9FB68E2
:1020B000BA7A1A7302F08AFA0246FB689A60FB68E1
:1020C0007A685A60FB68FA7A1A70F868FFF76AFF54
:1020D000FB685B7818461037BD4680BD80B590B070
:1020E00000AFF860B9607A60FB68FB630023BB63F4
:1020F000002387F83630002387F82E30FB6B1B78DF
:10210000282B40F03783FB6B0133FB6349E0FA6B0C
:10211000BB6B13441B78292B40D17B681B78FB7762
:1021200007F11F031A46B96BF86BFFF7D7FF034699
:10213000FB7797F836304F2B0CD17B681A78FB7FF2
:102140001343DBB2002B14BF01230023DAB27B68F8
:102150001A7017E097F83630412B0CD17B681B784A
:102160001A46FB7F1340002B14BF01230023DAB271
:102170007B681A7006E097F83630002B02D1FA7FA0
:102180007B681A70002387F83630BB6B0133FA6B1B
:102190001344FB630023BB6300BF0AE0BB6B013346
:1021A000BB63FA6BBB6B1A44F968BB680B449A4279
:1021B000ADD3DFE2FB6B1B78632B03D0FB6B1B788B
:1021C000742B66D1FB6B1B7887F82E30FB6B0233C8
:1021D000FB63FB6B1B889BB2BB84002387F8263014
:1021E00007F1200207F12403B349184609F0F6F875
:1021F000FB6B0333FB63FA6B07F124031068516830
:1022000003C3002387F82C30002387F837303BE0E6
:1022100097F8373007F14002134413F81C3C7C2B2D
:102220002DD197F8373007F140021344002203F80C
:102230001C2C97F837300133FA6B1344FB6307F11A
:10224000180207F124039C49184609F0C7F87B6877
:102250001B7887F82D303B6A1B01984A9818BB6998
:1022600097F82E2097F82D10FFF70EFF03461A4619
:102270007B681A70002387F8363000BF08E097F8B3
:102280003730013387F8373097F83730072BBFD90D
:1022900070E2FB6B1B784F2B06D1FB6B0133FB63AA
:1022A0004F2387F8363065E2FB6B1B78412B06D154
:1022B000FB6B0133FB63412387F836305AE2FB6B3B
:1022C0001B78292B05D1FB6B0133FB630023BB6318
:1022D00050E2FB6B1B78562B04D0FB6B1B784E2B0C
:1022E00040F09780FB6B1B7887F82E30FB6B013337
:1022F000FB63FB6B1B7887F83730FB6B0133FB63A9
:10230000FB6B1B889BB2BB84FB6B0233FB6300231C
:1023100087F8263007F1200207F1240366491846A2
:1023200009F05CF897F83730582B08D13B6A644ABB
:102330001B0113440C331B7887F82F3023E097F8E8
:1023400037304D2B05D13B6A5E4AD35C87F82F307E
:1023500019E097F83730592B05D13B6A5A4AD35CBC
:1023600087F82F300FE097F83730542B08D13B6AAD
:10237000524A1B01134401331B7887F82F3002E0C7
:10238000002387F82F3097F82E304E2B11D197F875
:102390002F30002B14BF01230023DBB283F0010395
:1023A000DBB287F82F3097F82F3003F0010387F85E
:1023B0002F3097F836304F2B0DD17B681A7897F86D
:1023C0002F301343DBB2002B14BF01230023DAB2FA
:1023D0007B681A7019E097F83630412B0DD17B6875
:1023E0001B781A4697F82F301340002B14BF012397
:1023F0000023DAB27B681A7007E097F83630002BBA
:1024000003D17B6897F82F201A70002387F83630A5
:10241000B0E1FB6B1B78532B14D0FB6B1B78522B5A
:1024200010D0FB6B1B78422B0CD0FB6B1B782B2B3B
:1024300008D0FB6B1B782D2B04D0FB6B1B783D2B3E
:1024400040F09381FB6B1B7887F82E30FB6B0133D8
:10245000FB63FB6B1B7887F83730FB6B0133FB6347
:10246000FB6B1B889BB2BB84002387F8263007F1E7
:10247000200207F124031049184608F0AFFF97F82F
:102480002E30532B2ED17B681B78002B2AD097F847
:102490003730582B07D13B6A094A1B0113440C33D0
:1024A00001221A701AE097F83730592B0ED13B6A87
:1024B000054A0121D15411E0A4C30008D40800202A
:1024C000E4100020DC110020E010002097F83730E5
:1024D0004D2B03D13B6AAF4A0121D1547B680122C5
:1024E0001A7041E197F82E30522B24D17B681B786B
:1024F000002B20D097F83730582B07D13B6AA64ADB
:102500001B0113440C3300221A7010E097F8373087
:10251000592B04D13B6AA14A0021D15407E097F816
:1025200037304D2B03D13B6A9A4A0021D1547B6846
:1025300000221A7018E197F82E30422B22D197F81A
:102540003730582B09D13B6A7A681178924A1B01BF
:1025500013440C330A461A700CE197F83730592BA4
:1025600005D13B6A7A6811788C4AD15402E197F818
:1025700037304D2B40F0FE803B6A7A681178854AEF
:10258000D154F7E097F82E302B2B08D097F82E3047
:102590002D2B04D097F82E303D2B40F0EB807B683C
:1025A0001B78002B00F0E680FB6B0333FB63FA6BB8
:1025B00007F124031068516803C3002387F82C3007
:1025C000002387F8373024E097F8373007F14002CE
:1025D000134413F81C3C7C2B16D197F8373007F1C5
:1025E00040021344002203F81C2C97F837300133C3
:1025F000FA6B1344FB6307F1140207F124036849E3
:10260000184608F0EBFE08E097F83730013387F8FA
:10261000373097F83730072BD6D93B6A0E2B4ED878
:1026200001A252F823F000BF652600086B260008BF
:1026300071260008772600087D26000883260008FA
:10264000892600088F260008952600089B2600088A
:10265000A1260008A7260008AD260008B32600081A
:10266000B92600084F4B3B632AE04F4B3B6327E002
:102670004E4B3B6324E04E4B3B6321E04D4B3B63B1
:102680001EE04D4B3B631BE04C4B3B6318E04C4B57
:102690003B6315E04B4B3B6312E04B4B3B630FE05E
:1026A0004A4B3B630CE04A4B3B6309E0494B3B63BD
:1026B00006E0494B3B6303E0484B3B6300E000BF4F
:1026C00097F82E302B2B19D101F080FF0246444B96
:1026D0001B68D31A7A6993424CD33B6B1B684FF04B
:1026E0007E511846FEF760F903461A463B6B1A60A6
:1026F00001F06CFF02463A4B1A603BE097F82E302F
:102700002D2B26D13B6B1B6836491846FEF710FC73
:102710000346002B19D001F059FF0246304B1B68CD
:10272000D31A7A69934225D33B6B1B684FF07E51D5
:102730001846FEF737F903461A463B6B1A6001F05C
:1027400045FF0246264B1A6014E03B6B254A1A608F
:1027500010E097F82E303D2B0CD17B691846FEF720
:10276000D7F902463B6B1A6004E0FB6B0133FB6355
:102770000023BB63FA6BBB6B1A44F968BB680B445C
:102780009A42FFF417AD7B681B7818464037BD4668
:1027900080BD00BFDC110020E4100020E01000200C
:1027A000A4C300089C0900201C0A00209C0A0020E9
:1027B0001C0B00209C0B00201C0C00209C0C0020FB
:1027C0001C0D00209C0D00201C0E00209C0E0020E3
:1027D0001C0F00209C0F00201C1000209C100020CB
:1027E000D4110020000080BF80B58CB000AFA74B93
:1027F0001B7883F00103DBB2002B40F07381A44B04
:102800001B78002B40F07081FFF73EF84FF4807288
:102810000121A048FEF7CCFC9F4BFB6200237B61AB
:10282000FB6A1B889BB23B823B8AFF2B03D9974BE9
:1028300000221A7059E13B8A1846FFF745F8FB6AF7
:102840000233FB62FB6A1B889BB27B827B8A0F2B65
:1028500003D98E4B00221A7047E1FB6A0233FB62F8
:1028600000233B621AE0FB6A1B889BB23B823B8AD7
:10287000142B03D9854B00221A7036E1FB6A023310
:10288000FB623B8A1946F86AFFF7A2F83B8A1A46B0
:10289000FB6A1344FB623B6A01333B627B8A1A4644
:1028A0003B6A9342DFDBFB6ABB62FFE0BB6A1B78DB
:1028B000432B40F0E980BB6A0133BB62BB6A1B88D3
:1028C0009BB23B8307F10C0207F1180373491846CA
:1028D00008F084FDBB6A0333BB623B1D0722B96A63
:1028E000184608F067FD002387F827301CE097F8AA
:1028F000273007F13002134413F82C3C7C2B0ED107
:1029000097F8273007F130021344002203F82C2CEB
:1029100007F114023B1D6149184608F05FFD97F866
:102920002730013387F8273097F82730072BDED977
:10293000FB680E2B00F2B68001A252F823F000BF14
:102940007D2900088D2900089F290008B129000869
:10295000C3290008D5290008E7290008F92900083B
:102960000B2A00081D2A00082F2A0008412A000807
:10297000532A0008652A0008772A00087B69184650
:10298000FEF7C6F80246464B5A608CE07B69184653
:10299000FEF7BEF80246424BC3F8842083E07B6911
:1029A0001846FEF7B5F802463D4BC3F804217AE01D
:1029B0007B691846FEF7ACF80246394BC3F8842110
:1029C00071E07B691846FEF7A3F80246344BC3F862
:1029D000042268E07B691846FEF79AF80246304BFD
:1029E000C3F884225FE07B691846FEF791F802463F
:1029F0002B4BC3F8042356E07B691846FEF788F892
:102A00000246274BC3F884234DE07B691846FEF746
:102A10007FF80246224BC3F8042444E07B69184641
:102A2000FEF776F802461E4BC3F884243BE07B6930
:102A30001846FEF76DF80246194BC3F8042532E03C
:102A40007B691846FEF764F80246154BC3F88425E7
:102A500029E07B691846FEF75BF80246104BC3F885
:102A6000042620E07B691846FEF752F802460C4B1C
:102A7000C3F8842617E07B691846FEF749F802463A
:102A8000074BC3F804270EE000BF0CE0B808002095
:102A900070070020B8070020BB070020A4C300086F
:102AA0009809002000BFBB6A0133BB62BB6A1B7878
:102AB000282B7FF4FBAEBB6A023B0D4A13600C4B24
:102AC0001B681B889BB23B823B8A1A46094B1A60E3
:102AD000BB6A094A9B1A9AB2084B1A80084B01221A
:102AE0001A7002E000BF00E000BF3037BD4680BD75
:102AF000D8110020BC080020B8070020D008002012
:102B00007107002080B5C4B000AF4C4B1B881A463B
:102B10004B4B1344C7F80C310023A7F80A310023AC
:102B2000A7F808310023A7F80631002387F80531FC
:102B3000012387F8043197F8053101334FF480728F
:102B400019463F48FEF734FB58E03E4AD7F80C31AF
:102B5000934213D397F80531013387F80531384B89
:102B6000C7F80C3197F8053101334FF480721946DC
:102B70003348FEF71DFB0023A7F80831B7F80831EA
:102B8000D7F80C2113441B780D2B1ED1012387F895
:102B90000431B7F80A313A1D0021D154B7F80A11AF
:102BA00007F582723B1D1846FFF798FA0023A7F835
:102BB0000A31B7F808310133D7F80C211344C7F8AC
:102BC0000C310023A7F8083113E0B7F80831D7F823
:102BD0000C211A44B7F80A3111783A1DD154B7F8CC
:102BE0000A310133A7F80A31B7F808310133A7F8E1
:102BF0000831B7F806310133A7F80631B7F80621D6
:102C0000114B1B689A42A0D3B7F80A31002B0FD0A2
:102C1000012387F80431B7F80A313A1D0021D15455
:102C2000B7F80A1107F582723B1D1846FFF756FAEE
:102C300000BF07F58877BD4680BD00BFD0080020E3
:102C4000B8070020B8080020BC08002080B500AFFD
:102C5000364B1B78002B0DD1354B1B7883F00103CD
:102C6000DBB2002B06D1334B1B7883F00103DBB2C0
:102C7000002B50D000224FF480612F4803F050F910
:102C800000224FF400712C4803F04AF90122802100
:102C90002A4803F045F901224021284803F040F971
:102CA00001222021254803F03BF90122102123486D
:102CB00003F036F901220821204803F031F91B4BBB
:102CC0001B7883F00103DBB2002B0DD0184B1B786F
:102CD000002B09D0174B1B7883F00103DBB2002BCC
:102CE00002D0FFF781FD16E0104B1B7883F0010343
:102CF000DBB2002B18D00E4B1B7883F00103DBB244
:102D0000002B11D00B4B1B7883F00103DBB2002B9F
:102D10000AD0FEF789FCFFF75BF8FFF79BF9FFF796
:102D2000F1FEFFF7F7F800E000BF80BD700700205C
:102D3000B80800207107002000080140000C014085
:102D400080B500AF314B1B7883F00103DBB2002B61
:102D500043D02F4B1B78002B25D02E4B1B78002BFC
:102D600021D001F033FC02462B4B1B68D31AB3F57C
:102D70007A7F09D94FF40051284803F0E9F801F0AF
:102D800025FC0246244B1A60254B1B78012B06D8E4
:102D9000234B1B780133DAB2214B1A7033E0214BFD
:102DA00001221A702FE01E4B00221A701D4B0022C8
:102DB0001A7001F00BFC0246174B1B68D31AB3F5CF
:102DC000967F20D94FF40051144803F0C1F801F068
:102DD000FDFB0246104B1A6015E00C4B1B78002BD4
:102DE00011D00F4B00221A700E4B00221A700022D5
:102DF0004FF40051094803F093F801F0E7FB024655
:102E0000054B1A60FFE700BF80BD00BF70070020C0
:102E1000B808002071070020241300200010014092
:102E2000541200200407002080B582B000AF0222B7
:102E300001212048FEF7BCF91E4B7B607B681B78A4
:102E40004C2B0BD17B6801337B607B681B783B701C
:102E50003B46194A1949184608F0C0FA164B1B6838
:102E60005B00154A136019E001F0B0FB0246144BF9
:102E70001B68D31AB3F5967F0ED94FF40051114851
:102E800003F066F801F0A2FB02460D4B1A600A4BF4
:102E90001B68013B084A136000F0D2FA064B1B681E
:102EA000002BE1DC4FF47A7001F09AFB00BF083789
:102EB000BD4680BDB8070020DC120020A8C3000872
:102EC000241300200010014080B500AF1E4B0022EB
:102ED0001A6001F023FB00F03FF81C4B00221A702F
:102EE00000F028FA00F098F800F0D0F907F0A0FD03
:102EF00000F002FA00F0B0F900F04CF900F07EF9B1
:102F000000F08AF80A221249124801F063FCFEF729
:102F100083FC00F095FAFEF799F900F091FAFFF7BB
:102F200083FF00F08DFA094B1B78002B01D000F0D5
:102F3000D7FB00F01FFB00F083FAFFF787FE00F0DD
:102F40007FFAFFF7FDFEEEE7241300202813002090
:102F5000B41200208012002080B594B000AF07F1B9
:102F6000280328220021184608F02FFA07F114033D
:102F700000221A605A609A60DA601A613B1D0022D2
:102F80001A605A609A60DA600923BB624FF480339A
:102F9000FB6200233B630123BB6301233B640223E9
:102FA0007B644FF48033BB644FF48023FB6407F1F0
:102FB0002803184604F036F80346002B01D001F030
:102FC00001F80F237B610223BB610023FB614FF4F7
:102FD00080633B6200237B6207F1140301211846E2
:102FE00004F0A0FA0346002B01D000F0EBFF1223FF
:102FF0007B604FF48043FB604FF480033B613B1DDB
:10300000184604F019FC0346002B01D000F0DAFF4B
:1030100000BF5037BD4680BD80B584B000AF3B1DBA
:1030200000221A605A609A60584B594A1A60574BEE
:103030004FF480729A60554B01221A73534B002251
:103040001A75524B4FF46022DA61504B00225A60DD
:103050004E4B0A221A614D4801F0E4FA0346002B58
:1030600001D000F0AFFF00237B600123BB6005238C
:10307000FB603B1D1946454801F072FD0346002BDD
:1030800001D000F09FFF01237B600223BB603B1D4A
:1030900019463E4801F064FD0346002B01D000F0C4
:1030A00091FF02237B600323BB603B1D1946374819
:1030B00001F056FD0346002B01D000F083FF0323EF
:1030C0007B600423BB603B1D1946304801F048FD7E
:1030D0000346002B01D000F075FF04237B6005231D
:1030E000BB603B1D1946294801F03AFD0346002B01
:1030F00001D000F067FF05237B600623BB603B1D0A
:103100001946224801F02CFD0346002B01D000F0A7
:1031100059FF06237B600723BB603B1D19461B48F4
:1031200001F01EFD0346002B01D000F04BFF0723EA
:103130007B600823BB603B1D1946144801F010FD5D
:103140000346002B01D000F03DFF11237B600923D3
:10315000BB603B1D19460D4801F002FD0346002BE4
:1031600001D000F02FFF10237B600A23BB603B1DC2
:103170001946064801F0F4FC0346002B01D000F08C
:1031800021FF00BF1037BD4680BD00BF8012002068
:103190000024014080B500AF164B174A1A60154B4A
:1031A00010225A60134B00229A60124B0022DA6000
:1031B000104B00221A610F4B00225A610D4B002266
:1031C0001A760C4B00225A760A4B00229A76094B4B
:1031D0000022DA76074B00221A77064B00225A7734
:1031E000044801F0B0FE0346002B01D000F0EAFED7
:1031F00000BF80BD581200200064004080B500AFC1
:10320000124B134A1A60114B124A5A600F4B00229C
:103210009A600E4B0022DA600C4B4FF480421A6128
:103220000A4B00225A61094B00229A61074B002287
:10323000DA61064B00221A62044802F0A1FE03463E
:10324000002B01D000F0BEFE00BF80BD00120020A8
:1032500000580040A086010080B500AF094B0A4A23
:103260001A60084B05225A60064B4FF4FA629A60C6
:10327000044802F0ADFF0346002B01D000F0A2FE8F
:1032800000BF80BDF41100200030004080B500AFC9
:10329000174B184A1A60164B4FF482725A60144B3F
:1032A00000229A60124B0022DA60114B00221A6150
:1032B0000F4B00225A610E4B4FF400729A610C4B77
:1032C0001822DA610A4B00221A62094B00225A6264
:1032D000074B00229A62064B0A22DA62044804F085
:1032E00061FB0346002B01D000F06CFE00BF80BDE7
:1032F000980500200038004080B582B000AF0C4B2C
:103300005B690B4A43F001035361094B5B6903F0AE
:1033100001037B607B68002200210B2002F00BFA86
:103320000B2002F024FA00BF0837BD4680BD00BF65
:103330000010024080B588B000AF07F110030022F2
:103340001A605A609A60DA60394B9B69384A43F0D8
:1033500010039361364B9B6903F01003FB60FB681D
:10336000334B9B69324A43F020039361304B9B6996
:1033700003F02003BB60BB682D4B9B692C4A43F0D4
:10338000040393612A4B9B6903F004037B607B6811
:10339000274B9B69264A43F008039361244B9B69A2
:1033A00003F008033B603B6801224FF400512148C1
:1033B00002F0B6FD002241F2F8011F4802F0B0FD14
:1033C00000224FF4C0611D4802F0AAFD4FF40053E3
:1033D0003B6101237B610023BB610323FB6107F198
:1033E00010031946134802F041FC41F2F8033B6117
:1033F00001237B610123BB610323FB6107F1100300
:1034000019460D4802F032FC4FF4C0633B610123C2
:103410007B610123BB610323FB6107F110031946A4
:10342000064802F023FC00BF2037BD4680BD00BF28
:103430000010024000100140000C01400008014053
:1034400080B500AF024802F0FCFE00BF80BD00BFA7
:10345000F411002080B584B000AF78600B46FB709B
:10346000FB78642B01D9002332E07B68002B01D16B
:1034700000232DE07B681B78002B01D1002327E07F
:10348000FB781A467968144807F094FFFB78002B04
:1034900003D0FB78104AD36005E07868FCF758FE4B
:1034A00002460D4BDA600C4BDB689BB219460A48AA
:1034B00007F07CFB0346FB73074B0022DA60FB7BC3
:1034C000012B02D0FB7B022B01D1002300E0012362
:1034D00018461037BD4680BDC008002080B584B0B6
:1034E00000AF78607B68D3F8B832002B37D07B68A8
:1034F000D3F8B832FB60FB68D3F80C32002B30D025
:103500001A4B5B6E002B03D1194B1B78002B04D098
:10351000FB680022C3F80C2224E0FB68D3F80432D5
:103520001B78002B07D1114B00225A66FB68002242
:10353000C3F80C2216E0FB68D3F80412FB68D3F83A
:103540000C321A46094807F035FFFB68D3F80C32F5
:10355000064A5366FB680022C3F80C2202E000BF53
:1035600000E000BF1037BD4680BD00BF0807002047
:103570000507002080B500AF0F4B5B6E002B18D005
:103580000E4B01221A700C4B1B78562B03D00A4BA2
:103590001B78762B04D105210948FFF75BFF02E079
:1035A0000548FEF7B3F8044B00225A66034B00228D
:1035B0001A7000BF80BD00BF08070020050700206B
:1035C000ACC3000880B400AF00BFBD4680BC7047EC
:1035D00080B400AF034B01221A7000BFBD4680BC0F
:1035E000704700BF2813002080B500AFFFF728FF09
:1035F000384B5B6A4FF000011846FDF799FC034613
:10360000002B55D0334B1A69324B5B6A1946104672
:10361000FDF786FB034630491846FDF7CDFA034611
:103620001A462C4BDA622B4B5A692A4B5B6A1946B5
:103630001046FDF775FB034627491846FDF7BCFA0F
:1036400003461A46234B1A63224B9A69214B5B6A45
:1036500019461046FDF764FB03461F491846FDF75F
:10366000ABFA03461A461B4B5A631A4BDA69194BDD
:103670005B6A19461046FDF753FB03461649184688
:10368000FDF79AFA03461A46124B9A63114B1A6ACF
:10369000104B5B6A19461046FDF742FB03460E4984
:1036A0001846FDF789FA03461A460A4BDA630EE01C
:1036B000084B094ADA62074B074A1A63054B064A68
:1036C0005A63044B044A9A63024B034ADA6300BF0D
:1036D00080BD00BF780700200000C8420000000045
:1036E0002DE9B04382B000AF114B1B6A002B21D0F3
:1036F0000F4B1B6A1846FDF707FA03461846FCF7FE
:1037000093FE03460C461A46234607A1D1E9000161
:10371000FDF70CF803460C4618462146FDF7EEF877
:1037200003467B6008E000BFD7A3703DEA81B2404A
:10373000B4120020C04B7B60C04B5B6A1846FDF79B
:10374000E3F9034679681846FDF736FA0346BC49A3
:103750001846FDF7E5FA03463B603868FCF764FE5F
:1037600003460C461A462346A5A1D1E90001FCF701
:10377000FBFC03460C4618462146A3A3D3E90023CD
:10378000FCF7D4FF03460C46184621464FF00002D2
:10379000AC4BFCF7EBFC03460C4618462146FDF704
:1037A000ADF80246A84B9A62A44B1B681846FCF77A
:1037B00019FE97A3D3E90023FCF7B8FF03460C4694
:1037C00018462146FDF79AF80346A0491846FDF72A
:1037D000F3F903461A469C4B5A60984B5B681846AF
:1037E000FCF700FE8AA3D3E90023FCF79FFF034602
:1037F0000C4618462146FDF781F8034693491846C2
:10380000FDF7DAF903461A468F4BDA608B4B1B68DB
:103810001846FCF7E7FD7EA3D3E90023FCF786FFFB
:1038200003460C4618462146FDF768F803467968BA
:103830001846FDF7C1F9034685491846FDF7BCF95E
:1038400003461A46804B1A607C4B5B681846FCF7AF
:10385000C9FD6FA3D3E90023FCF768FF03460C46BC
:1038600018462146FDF74AF8034679681846FDF7E1
:10387000A3F9034676491846FDF79EF903461A4612
:10388000714B9A606D4B9B68002B09D06B4B9B680A
:103890001A46704B1A60694B9B683C33674A9360C9
:1038A000664B9B681846FDF72FF903467968184662
:1038B000FDF782F9034662491846FDF731FA0346DF
:1038C0003B603868FCF7B0FD53A3D3E90023FCF755
:1038D00003FE03460C4625461C463868FCF7A4FD4B
:1038E00002460B4620462946FCF7F6FD03460C46E9
:1038F00025461C463868FCF797FD02460B462046D5
:103900002946FCF7E9FD03460C4625461C46386867
:10391000FCF78AFD42A3D3E90023FCF7DDFD024654
:103920000B46904699463868FCF77EFD02460B46EA
:1039300040464946FCF7D0FD02460B462046294644
:10394000FCF712FC03460C4625461C463868FCF77B
:103950006BFD35A3D3E90023FCF7BEFD02460B4601
:1039600020462946FCF702FC03460C461846214631
:103970002FA3D3E90023FCF7F7FB03460C461846B8
:103980002146FCF7BBFF03463B6031493868FDF731
:1039900013F903461A462C4B1A61284BDB68002B9F
:1039A00004D0264BDB683C33244AD360234BDB68CE
:1039B0001846FDF7A9F8034679681846FDF7FCF8A4
:1039C00003461F491846FDF7ABF903463B603868CC
:1039D000FCF72AFD10A3D3E90023FCF77DFD034685
:1039E0000C4625461C463868FCF71EFD02460B4671
:1039F00020462946FCF770FD2EE000BFAFF30080A3
:103A0000E17A14AE47E1F63F3333333333331140B9
:103A10000000000000FEAF40423EE8D9AC7A2040F2
:103A2000F2D24D62106840403F355EBA49AC4A4020
:103A30009EEFA7C64B17334033335340B4120020D8
:103A400000F07F4500003940780700200000C842A0
:103A500000007A44F005002003460C4625461C462B
:103A60003868FCF7E1FC02460B4620462946FCF785
:103A700033FD03460C4625461C463868FCF7D4FC4B
:103A8000C9A3D3E90023FCF727FD02460B46904665
:103A900099463868FCF7C8FC02460B464046494642
:103AA000FCF71AFD02460B4620462946FCF75CFB54
:103AB00003460C4625461C463868FCF7B5FCBCA3FB
:103AC000D3E90023FCF708FD02460B4620462946B1
:103AD000FCF74CFB03460C4618462146B6A3D3E937
:103AE0000023FCF741FB03460C4618462146FCF731
:103AF00005FF03463B60B4493868FDF75DF80346AF
:103B00001A46B24B5A61B24B1B69002B04D0B04B22
:103B10001B693C33AE4A1361AD4B1B691846FCF779
:103B2000F3FF034679681846FDF746F80346A949AE
:103B30001846FDF7F5F803463B603868FCF774FC5F
:103B40009FA3D3E90023FCF7C7FC03460C46254698
:103B50001C463868FCF768FC02460B46204629469E
:103B6000FCF7BAFC03460C4625461C463868FCF7B1
:103B70005BFC02460B4620462946FCF7ADFC03469B
:103B80000C4625461C463868FCF74EFC86A3D3E954
:103B90000023FCF7A1FC02460B4690469946386884
:103BA000FCF742FC02460B4640464946FCF794FCB3
:103BB00002460B4620462946FCF7D6FA03460C4639
:103BC00025461C463868FCF72FFC79A3D3E900236F
:103BD000FCF782FC02460B4620462946FCF7C6FA53
:103BE00003460C461846214673A3D3E90023FCF78D
:103BF000BBFA03460C4618462146FCF77FFE0346F7
:103C00003B6071493868FCF7D7FF03461A466F4B93
:103C10009A616F4B5B69002B04D06D4B5B693C3341
:103C20006B4A53616A4B5B691846FCF76DFF0346AC
:103C300079681846FCF7C0FF034666491846FDF749
:103C40006FF803463B603868FCF7EEFB5CA3D3E9F2
:103C50000023FCF741FC03460C4625461C46386809
:103C6000FCF7E2FB02460B4620462946FCF734FCF3
:103C700003460C4625461C463868FCF7D5FB024631
:103C80000B4620462946FCF727FC03460C462546F2
:103C90001C463868FCF7C8FB43A3D3E90023FCF7B4
:103CA0001BFC02460B46904699463868FCF7BCFB65
:103CB00002460B4640464946FCF70EFC02460B46C0
:103CC00020462946FCF750FA03460C4625461C467A
:103CD0003868FCF7A9FB36A3D3E90023FCF7FCFB0B
:103CE00002460B4620462946FCF740FA03460C469E
:103CF0001846214630A3D3E90023FCF735FA0346E2
:103D00000C4618462146FCF7F9FD03463B602E4958
:103D10003868FCF751FF03461A462C4BDA612C4BEE
:103D20009B69002B04D02A4B9B693C33284A936142
:103D3000274B9B691846FCF7E7FE0346796818464F
:103D4000FCF73AFF034623491846FCF7E9FF034610
:103D50003B603868FCF768FB19A3D3E90023FCF744
:103D6000BBFB03460C4625461C463868FCF75CFB4B
:103D700002460B4620462946FCF7AEFB03460C469E
:103D800025461C463868FCF74FFB02460B4620468A
:103D90002946FCF7A1FB03460C4625461C4638681D
:103DA0001AE000BFAFF30080F2D24D6210684040CD
:103DB0003F355EBA49AC4A409EEFA7C64B17334029
:103DC000423EE8D9AC7A204000007A4478070020CF
:103DD000B412002000F07F45FCF726FB6CA3D3E96A
:103DE0000023FCF779FB02460B469046994638685B
:103DF000FCF71AFB02460B4640464946FCF76CFBB3
:103E000002460B4620462946FCF7AEF903460C460F
:103E100025461C463868FCF707FB5FA3D3E900235F
:103E2000FCF75AFB02460B4620462946FCF79EF952
:103E300003460C461846214659A3D3E90023FCF754
:103E400093F903460C4618462146FCF757FD0346F6
:103E50003B6057493868FCF7AFFE03461A46554B9E
:103E60001A62554BDB69002B00F08380524BDB69F3
:103E70003C33514AD361504BDB691846FCF744FE92
:103E8000034679681846FCF797FE03464B491846E7
:103E9000FCF746FF03463B603868FCF7C5FA42A3CF
:103EA000D3E90023FCF718FB03460C4625461C46C5
:103EB0003868FCF7B9FA02460B4620462946FCF75B
:103EC0000BFB03460C4625461C463868FCF7ACFA4B
:103ED00002460B4620462946FCF7FEFA03460C46EE
:103EE00025461C463868FCF79FFA29A3D3E900232E
:103EF000FCF7F2FA02460B46904699463868FCF702
:103F000093FA02460B4640464946FCF7E5FA02465C
:103F10000B4620462946FCF727F903460C46254662
:103F20001C463868FCF780FA1BA3D3E90023FCF792
:103F3000D3FA02460B4620462946FCF717F90346FA
:103F40000C461846214616A3D3E90023FCF70CF9CA
:103F500003460C4618462146FCF7D0FC03463B605E
:103F600013493868FCF728FE03461A46114B5A627B
:103F700003E0104B4FF000025A62FFF735FB104B85
:103F800000221A7000BF0837BD46BDE8B08300BFED
:103F9000F2D24D62106840403F355EBA49AC4A40AB
:103FA0009EEFA7C64B173340423EE8D9AC7A20407B
:103FB00000007A4478070020B412002000F07F450A
:103FC0002813002080B400AF00BFBD4680BC7047FE
:103FD00080B485B000AF154B9B69144A43F00103D0
:103FE0009361124B9B6903F00103BB60BB680F4BED
:103FF000DB690E4A43F08053D3610C4BDB6903F05D
:1040000080537B607B680A4B5B68FB60FB6823F036
:10401000E063FB60FB6843F00073FB60044AFB68ED
:10402000536000BF1437BD4680BC7047001002408B
:104030000000014080B588B000AF786007F1100340
:1040400000221A605A609A60DA607B681B682D4A09
:10405000934252D12C4B9B692B4A43F400739361DA
:10406000294B9B6903F40073FB60FB68264B9B693B
:10407000254A43F004039361234B9B6903F0040337
:10408000BB60BB68FF233B6103237B6107F1100327
:1040900019461E4801F0EAFD1D4B1E4A1A601C4BD2
:1040A00000225A601A4B00229A60194B8022DA6073
:1040B000174B4FF400721A61154B4FF400625A61AE
:1040C000134B20229A61124B4FF48052DA61104850
:1040D00001F068FB0346002B01D0FFF773FF7B68FC
:1040E0000B4A1A620A4A7B6853620022002112209E
:1040F00001F021FB122001F03AFB00BF2037BD4642
:1041000080BD00BF002401400010024000080140B3
:10411000E01200200800024080B58AB000AF78604D
:1041200007F1140300221A605A609A60DA607B6813
:104130001B682D4A934253D12C4BDB692B4A43F029
:104140000073D361294BDB6903F000733B613B696A
:10415000264B9B69254A43F008039361234B9B69D7
:1041600003F00803FB60FB684FF480737B6100235E
:10417000BB610023FB6107F1140319461C4801F0E1
:1041800075FD4FF400737B610223BB6103233B6227
:1041900007F114031946164801F068FD154B5B68DA
:1041A0007B627B6A23F4C0437B627B6A43F0E063FB
:1041B0007B627B6A43F480437B620E4A7B6A536076
:1041C00000220021132001F0B6FA132001F0CFFAEB
:1041D00000220021142001F0AEFA142001F0C7FAE9
:1041E00000BF2837BD4680BD00640040001002407B
:1041F000000C01400000014080B588B000AF78603D
:1042000007F1100300221A605A609A60DA607B6836
:104210001B68164A934224D1154B9B69144A43F0FC
:1042200008039361124B9B6903F00803FB60FB6872
:104230004FF440633B6112237B610323FB6107F171
:10424000100319460B4801F011FD094BDB69084AC0
:1042500043F48003D361064BDB6903F48003BB6046
:10426000BB6800BF2037BD4680BD00BF005800407E
:1042700000100240000C014080B588B000AF7860AB
:1042800007F1100300221A605A609A60DA607B68B6
:104290001B68204A934239D11F4BDB691E4A43F405
:1042A0008043D3611C4BDB6903F48043FB60FB68F4
:1042B000194B9B69184A43F008039361164B9B699D
:1042C00003F00803BB60BB684FF420433B6102234B
:1042D0007B610323FB6107F1100319460F4801F0CE
:1042E000C5FC4FF480433B6100237B610123BB612C
:1042F00007F110031946094801F0B8FC002200211B
:10430000242001F018FA242001F031FA00BF2037F0
:10431000BD4680BD0038004000100240000C014046
:1043200080B400AF00BFBD4680BC704780B400AF12
:10433000FEE780B400AFFEE780B400AFFEE780B4D4
:1043400000AFFEE780B400AF00BFBD4680BC704741
:1043500080B400AF00BFBD4680BC704780B400AFE2
:1043600000BFBD4680BC704780B500AF00F01CF9AF
:10437000FFF728F900BF80BD80B500AF034801F00A
:1043800041FBFFF725F900BF80BD00BFE012002010
:1043900080B500AF024800F0FBFA00BF80BD00BF4F
:1043A0008012002080B500AF034800F0C7FE03482C
:1043B00002F05DF800BF80BD5812002020180020D8
:1043C00080B500AF054800F0B9FE054802F04FF88F
:1043D0000448FFF783F800BF80BD00BF58120020DB
:1043E000201800203013002080B500AF024803F0F1
:1043F000DDFC00BF80BD00BF9805002080B586B001
:1044000000AF7860144A154BD31A7B617B693B611E
:10441000134B1B68002B02D1114B124A1A60104B30
:104420001A687B6813443A699A4207D206F098FFEB
:1044300002460C2313604FF0FF3309E0084B1B6862
:10444000FB60074B1A687B681344054A1360FB68DE
:1044500018461837BD4680BD0050002000060000F9
:1044600068030020901A002080B400AF154B1B6831
:10447000144A43F001031360124B5A681149124B5E
:1044800013404B600F4B1B680E4A23F0847323F4D8
:10449000803313600B4B1B680A4A23F4802313609C
:1044A000084B5B68074A23F4FE035360054B4FF447
:1044B0001F029A60054B4FF000629A6000BFBD4634
:1044C00080BC7047001002400000FFF800ED00E0E3
:1044D000002103E00B4B5B58435004310A480B4B5F
:1044E00042189A42F6D30A4A02E0002342F8043BFB
:1044F000084B9A42F9D3FFF7B7FF06F037FFFEF7F4
:10450000E3FC7047B8C50008000000204C03002001
:104510004C030020901A0020FEE7000080B500AF99
:10452000084B1B68074A43F010031360032001F097
:10453000F7F8002000F008F8FFF74AFD00231846BE
:1045400080BD00BF0020024080B582B000AF78601F
:10455000124B1A68124B1B7819464FF47A73B3FB4F
:10456000F1F3B2FBF3F3184601F00FF90346002B09
:1045700001D001230EE07B680F2B0AD80022796856
:104580004FF0FF3001F0D7F8064A7B681360002334
:1045900000E0012318460837BD4680BD000000201A
:1045A000080000200400002080B400AF054B1B78F9
:1045B0001A46054B1B681344034A136000BFBD46EF
:1045C00080BC7047080000202C13002080B400AF8E
:1045D000024B1B681846BD4680BC70472C13002058
:1045E00080B584B000AF7860FFF7F0FFB8607B68FB
:1045F000FB60FB68B3F1FF3F05D0094B1B781A46FF
:10460000FB681344FB6000BFFFF7E0FF0246BB6896
:10461000D31AFA689A42F7D800BF1037BD4680BD5A
:104620000800002080B586B000AF78600023FB75DD
:1046300000233B610023BB600023FB607B68002BF1
:1046400001D10123BEE07B689B68002B7B689B6ADD
:10465000002B09D17B680022DA627B68002283F894
:1046600024207868FFF7E6FC786800F0C3FB034677
:10467000FB757B689B6A03F01003002B40F0998068
:10468000FB7D002B40F095807B689B6A23F4885368
:1046900023F0020343F002027B689A627B685A6847
:1046A0007B68DB691A437B681B7B5B001343BA683A
:1046B0001343BB607B689B68B3F5807F03D07B6846
:1046C0009B68012B02D14FF4807300E000233A690C
:1046D00013433B617B681B7D012B19D17B681B7BDE
:1046E000002B09D17B689B69013B5A033B6913434B
:1046F00043F400633B610BE07B689B6A43F020025C
:104700007B689A627B68DB6A43F001027B68DA624D
:104710007B681B685B6823F469417B681B683A69A6
:104720000A435A607B681B689A68284B13407A6872
:104730001268B9680B4393607B689B68B3F5807F10
:1047400003D07B689B68012B04D17B681B69013B0C
:104750001B05FB607B681B68DB6A23F470017B68C8
:104760001B68FA680A43DA627B681B689A68184B10
:104770001340BA689A420BD17B680022DA627B68E8
:104780009B6A23F0030343F001027B689A6218E0FE
:104790007B689B6A23F0120343F010027B689A62E5
:1047A0007B68DB6A43F001027B68DA620123FB75F8
:1047B00007E07B689B6A43F010027B689A620123E2
:1047C000FB75FB7D18461837BD4680BDFDF7E1FF40
:1047D000FE0E1FFF80B586B000AFF860B9607A604A
:1047E0000023FB75FB681B68644A934204D0FB6896
:1047F0001B68634A934206D1604B5B6803F47023E5
:10480000002B40F0B380FB6893F82430012B01D1DA
:104810000223AEE0FB68012283F82420F86800F050
:1048200097FA0346FB75FB7D002B40F09A80FB68EE
:104830009B6A23F4706323F0010343F48072FB68E6
:104840009A62FB681B684E4A934205D14B4B5B68EA
:1048500003F47023002B15D1FB689B6A23F48012AC
:10486000FB689A62FB681B685B6803F48063002B3B
:1048700026D0FB689B6A23F4405343F48052FB68C4
:104880009A621DE0FB689B6A43F48012FB689A629F
:10489000FB681B68394A934204D0FB681B68384A9E
:1048A00093420DD1354B5B6803F48063002B07D036
:1048B000FB689B6A23F4405343F48052FB689A627E
:1048C000FB689B6A03F48053002B06D0FB68DB6A0D
:1048D00023F00602FB68DA6202E0FB680022DA627B
:1048E000FB68002283F82420FB681B6A254A9A6231
:1048F000FB681B6A244ADA62FB681B6A234A1A6354
:10490000FB681B686FF002021A60FB681B689A68FC
:10491000FB681B6842F480729A60FB68186AFB6847
:104920001B684C331946BA687B6800F095FFFB683A
:104930001B689B6803F46023B3F5602F08D1FB6804
:104940001B689A68FB681B6842F4A0029A600FE03B
:10495000FB681B689A68FB681B6842F480129A60C7
:1049600006E0FB68002283F8242001E00123FB75A8
:10497000FB7D18461837BD4680BD00BF00240140AE
:1049800000280140694E0008E54E0008014F00086C
:1049900080B582B000AF78607B681B685B6803F00D
:1049A0002003202B40D17B681B681B6803F00203A7
:1049B000022B39D17B689B6A03F01003002B05D1D1
:1049C0007B689B6A43F400727B689A627B681B6811
:1049D0009B6803F46023B3F5602F1DD17B681B7BBC
:1049E000002B19D17B681B685A687B681B6822F012
:1049F00020025A607B689B6A23F480727B689A620B
:104A00007B689B6A03F48053002B05D17B689B6A0B
:104A100043F001027B689A62786800F07CF87B685A
:104A20001B686FF012021A607B681B685B6803F0FA
:104A30008003802B4FD17B681B681B6803F0040345
:104A4000042B48D17B689B6A03F01003002B05D12F
:104A50007B689B6A43F400527B689A627B681B68A0
:104A60009B6803F4E043B3F5E04F12D07B681B680A
:104A70005B6803F48063002B25D17B681B689B680F
:104A800003F46023B3F5602F1DD17B681B7B002BE3
:104A900019D17B681B685A687B681B6822F080020A
:104AA0005A607B689B6A23F480527B689A627B68B9
:104AB0009B6A03F48073002B05D17B689B6A43F0EB
:104AC00001027B689A62786800F034FA7B681B68A0
:104AD0006FF00C021A607B681B685B6803F0400390
:104AE000402B14D17B681B681B6803F00103012B6A
:104AF0000DD17B689B6A43F480327B689A62786848
:104B000000F01BF87B681B686FF001021A6000BFA1
:104B10000837BD4680BD80B483B000AF786000BF69
:104B20000C37BD4680BC704780B483B000AF78605E
:104B300000BF0C37BD4680BC704780B483B000AF67
:104B4000786000BF0C37BD4680BC704780B483B02E
:104B500000AF786000BF0C37BD4680BC70470000D6
:104B600080B485B000AF786039600023FB73002308
:104B7000BB607B6893F82430012B01D10223DCE079
:104B80007B68012283F824203B685B68062B1CD8D5
:104B90007B681B68596B3B685A6813469B0013443B
:104BA000053B1F2202FA03F3DB4319403B681868F8
:104BB0003B685A6813469B001344053B00FA03F216
:104BC0007B681B680A435A633CE03B685B680C2BBC
:104BD0001CD87B681B68196B3B685A6813469B009E
:104BE0001344233B1F2202FA03F3DB4319403B68C3
:104BF00018683B685A6813469B001344233B00FA2D
:104C000003F27B681B680A431A631BE07B681B681E
:104C1000D96A3B685A6813469B001344413B1F22E4
:104C200002FA03F3DB4319403B6818683B685A6893
:104C300013469B001344413B00FA03F27B681B6858
:104C40000A43DA623B681B68092B1CD97B681B6826
:104C5000D9683B681A6813465B0013441E3B072261
:104C600002FA03F3DB4319403B6898683B681A6813
:104C700013465B0013441E3B00FA03F27B681B687B
:104C80000A43DA6019E07B681B6819693B681A6897
:104C900013465B001344072202FA03F3DB43194077
:104CA0003B6898683B681A6813465B00134400FA37
:104CB00003F27B681B680A431A613B681B68102B70
:104CC00003D03B681B68112B32D17B681B681D4ADF
:104CD000934225D17B681B689B6803F40003002B7B
:104CE00026D17B681B689A687B681B6842F40002C7
:104CF0009A603B681B68102B1AD1134B1B68134A30
:104D0000A2FB03239A0C13469B0013445B00BB6079
:104D100002E0BB68013BBB60BB68002BF9D107E038
:104D20007B689B6A43F020027B689A620123FB73D5
:104D30007B68002283F82420FB7B18461437BD468D
:104D400080BC7047002401400000002083DE1B432C
:104D500080B584B000AF78600023FB600023BB60A7
:104D60007B681B689B6803F00103012B39D07B68CB
:104D70001B689A687B681B6842F001029A601B4BB3
:104D80001B681B4AA2FB03239B0CBB6002E0BB68B1
:104D9000013BBB60BB68002BF9D1FFF717FCF86043
:104DA00018E0FFF713FC0246FB68D31A022B11D957
:104DB0007B689B6A43F010027B689A627B68DB6ABF
:104DC00043F001027B68DA627B68002283F82420CA
:104DD000012307E07B681B689B6803F00103012B3C
:104DE000DFD1002318461037BD4680BD00000020EB
:104DF00083DE1B4380B584B000AF78600023FB6086
:104E00007B681B689B6803F00103012B27D17B683B
:104E10001B689A687B681B6822F001029A60FFF7A2
:104E2000D5FBF86014E0FFF7D1FB0246FB68D31A0C
:104E3000022B0DD97B689B6A43F010027B689A6253
:104E40007B68DB6A43F001027B68DA62012307E0DA
:104E50007B681B689B6803F00103012BE3D00023F0
:104E600018461037BD4680BD80B584B000AF78606D
:104E70007B685B6AFB60FB689B6A03F05003002B56
:104E800027D1FB689B6A43F40072FB689A62FB6857
:104E90001B689B6803F46023B3F5602F15D1FB6892
:104EA0001B7B002B11D1FB689B6A23F48072FB688B
:104EB0009A62FB689B6A03F48053002B05D1FB6860
:104EC0009B6A43F00102FB689A62F868FFF723FED1
:104ED00004E0FB681B6A1B6B7868984700BF1037BB
:104EE000BD4680BD80B584B000AF78607B685B6AEA
:104EF000FB60F868FFF718FE00BF1037BD4680BDA5
:104F000080B584B000AF78607B685B6AFB60FB684B
:104F10009B6A43F04002FB689A62FB68DB6A43F0DD
:104F20000402FB68DA62F868FFF710FE00BF103772
:104F3000BD4680BD80B483B000AF786000BF0C3741
:104F4000BD4680BC704780B584B000AF78607B6898
:104F5000002B01D10123EDE07B6893F82030DBB218
:104F6000002B02D17868FFF7D7F87B681B681A68B6
:104F70007B681B6822F002021A60FFF727FBF860CB
:104F800012E0FFF723FB0246FB68D31A0A2B0BD96A
:104F90007B685B6A43F400327B685A627B68052257
:104FA00083F820200123C5E07B681B685B6803F061
:104FB0000203002BE5D17B681B681A687B681B68BD
:104FC00042F001021A60FFF701FBF86012E0FFF700
:104FD000FDFA0246FB68D31A0A2B0BD97B685B6A81
:104FE00043F400327B685A627B68052283F82020F4
:104FF00001239FE07B681B685B6803F00103002BC3
:10500000E5D07B681B7E012B08D17B681B681A6882
:105010007B681B6842F080021A6007E07B681B68AF
:105020001A687B681B6822F080021A607B685B7ECE
:10503000012B08D17B681B681A687B681B6842F0EB
:1050400040021A6007E07B681B681A687B681B686F
:1050500022F040021A607B689B7E012B08D17B689E
:105060001B681A687B681B6842F020021A6007E020
:105070007B681B681A687B681B6822F020021A6034
:105080007B68DB7E012B08D17B681B681A687B6814
:105090001B6822F010021A6007E07B681B681A6820
:1050A0007B681B6842F010021A607B681B7F012B33
:1050B00008D17B681B681A687B681B6842F008028D
:1050C0001A6007E07B681B681A687B681B6822F01F
:1050D00008021A607B685B7F012B08D17B681B6824
:1050E0001A687B681B6842F004021A6007E07B685C
:1050F0001B681A687B681B6822F004021A607B68D0
:105100009A687B68DB681A437B681B691A437B6873
:105110005B6942EA03017B685B685A1E7B681B6817
:105120000A43DA617B6800225A627B68012283F8B5
:105130002020002318461037BD4680BD80B58AB0B8
:1051400000AF786000237B627B681B685B693B6211
:105150007B681B685B68FB617B681B689B68BB6145
:105160007B681B68DB687B617B681B681B693B6134
:105170007B681B689B69FB603B6A03F00103002BA3
:105180007CD0BB6903F00103002B23D07B681B6834
:1051900001229A60BB6903F00203002B03D07868F8
:1051A00000F07DF916E0BB6903F00403002B04D086
:1051B0007B6A43F400637B620CE0BB6903F0080385
:1051C000002B04D07B6A43F480537B6202E0786852
:1051D00000F080F9BB6903F48073002B24D07B6856
:1051E0001B684FF480729A60BB6903F40073002B54
:1051F00003D0786800F05CF916E0BB6903F48063C3
:10520000002B04D07B6A43F400537B620CE0BB6943
:1052100003F40063002B04D07B6A43F480437B6279
:1052200002E0786800F05FF9BB6903F48033002B7B
:1052300024D07B681B684FF480329A60BB6903F40A
:105240000033002B03D0786800F03BF916E0BB690F
:1052500003F48023002B04D07B6A43F400437B6279
:105260000CE0BB6903F40023002B04D07B6A43F4F9
:1052700080337B6202E0786800F03EF93B6A03F01D
:105280000803002B0CD07B6903F01003002B07D020
:105290007B6A43F400737B627B681B681022DA60D0
:1052A0003B6A03F00403002B0BD07B6903F0080377
:1052B000002B06D07B681B680822DA60786800F053
:1052C0002DF93B6A03F00203002B09D07B681B68B1
:1052D000DB6803F00303002B02D0786800F015F9B7
:1052E0003B6A03F04003002B0CD03B6903F0100332
:1052F000002B07D07B6A43F480637B627B681B686A
:1053000010221A613B6A03F02003002B0BD03B698B
:1053100003F00803002B06D07B681B6808221A6183
:10532000786800F00DF93B6A03F01003002B09D0F8
:105330007B681B681B6903F00303002B02D07868AD
:1053400000F0F5F83B6A03F40033002B0BD0FB6947
:1053500003F01003002B06D07B681B6810225A60F4
:10536000786800F0F6F83B6A03F48033002B0BD02A
:10537000FB6903F00803002B06D07B681B6808223A
:105380005A60786800F0EEF83B6A03F40043002BA3
:1053900075D0FB6903F00403002B6CD03B6A03F467
:1053A0008073002B08D0FB6803F00103002B03D0AF
:1053B0007B6A43F001037B623B6A03F40073002BBA
:1053C00008D0FB6803F00203002B03D07B6A43F094
:1053D00002037B623B6A03F48063002B08D0FB6806
:1053E00003F00403002B03D07B6A43F004037B62C9
:1053F0003B6A03F40063002B3DD0FB6803F07003AD
:10540000002B38D0FB6803F07003302B17D0302B03
:1054100004D8102B09D0202B0CD024E0502B18D00E
:10542000602B1BD0402B0FD01DE07B6A43F008039C
:105430007B6218E07B6A43F010037B6213E07B6AB7
:1054400043F020037B620EE07B6A43F040037B6203
:1054500009E07B6A43F080037B6204E07B6A43F4EB
:1054600080737B6200BF7B681B689A697B681B68DE
:1054700022F070029A617B681B6804225A607B6A82
:10548000002B08D07B685A6A7B6A1A437B685A6291
:10549000786800F070F800BF2837BD4680BD80B442
:1054A00083B000AF786000BF0C37BD4680BC70474A
:1054B00080B483B000AF786000BF0C37BD4680BCBD
:1054C000704780B483B000AF786000BF0C37BD4632
:1054D00080BC704780B483B000AF786000BF0C37E9
:1054E000BD4680BC704780B483B000AF786000BF19
:1054F0000C37BD4680BC704780B483B000AF786085
:1055000000BF0C37BD4680BC704780B483B000AF8D
:10551000786000BF0C37BD4680BC704780B483B054
:1055200000AF786000BF0C37BD4680BC704780B4C8
:1055300083B000AF786000BF0C37BD4680BC7047B9
:1055400080B483B000AF786000BF0C37BD4680BC2C
:10555000704780B483B000AF786000BF0C37BD46A1
:1055600080BC704780B483B000AF786000BF0C3758
:10557000BD4680BC704780B483B000AF786000BF88
:105580000C37BD4680BC704780B485B000AF7860F2
:105590007B6803F00703FB600C4BDB68BB60BA68F9
:1055A0004FF6FF031340BB60FB681A02BB6813434E
:1055B00043F0BF6343F40033BB60044ABB68D3606D
:1055C00000BF1437BD4680BC704700BF00ED00E04F
:1055D00080B400AF044BDB681B0A03F007031846D6
:1055E000BD4680BC704700BF00ED00E080B483B0D2
:1055F00000AF0346FB7197F90730002B0BDBFB79FB
:1056000003F01F02064997F907305B09012000FAF1
:1056100002F241F8232000BF0C37BD4680BC704722
:1056200000E100E080B483B000AF03463960FB7155
:1056300097F90730002B0ADB3B68DAB20C4997F97F
:1056400007301201D2B20B4483F800230AE03B6812
:10565000DAB20849FB7903F00F03043B1201D2B21E
:105660000B441A7600BF0C37BD4680BC704700BFA4
:1056700000E100E000ED00E080B489B000AFF86028
:10568000B9607A60FB6803F00703FB61FB69C3F153
:105690000703042B28BF0423BB61FB690433062BDB
:1056A00002D9FB69033B00E000237B614FF0FF322E
:1056B000BB6902FA03F3DA43BB681A407B699A407C
:1056C0004FF0FF317B6901FA03F3D9437B680B404C
:1056D000134318462437BD4680BC704780B582B05E
:1056E00000AF78607B68013BB3F1807F01D3012379
:1056F0000FE00A4A7B68013B53600F214FF0FF30F7
:10570000FFF790FF054B00229A60044B07221A60B6
:10571000002318460837BD4680BD00BF10E000E0FA
:1057200080B582B000AF78607868FFF72DFF00BFCA
:105730000837BD4680BD80B586B000AF0346B9606E
:105740007A60FB7300237B61FFF742FF78617A6820
:10575000B9687869FFF790FF024697F90F30114654
:105760001846FFF75FFF00BF1837BD4680BD80B504
:1057700082B000AF0346FB7197F907301846FFF778
:1057800035FF00BF0837BD4680BD80B582B000AF91
:1057900078607868FFF7A2FF034618460837BD46D1
:1057A00080BD000080B485B000AF78600023FB604E
:1057B0007B68002B01D1012343E07B681B681A46FC
:1057C000224B1344224AA2FB03231B099A007B6845
:1057D0001A647B681F4ADA637B68022283F82120FF
:1057E0007B681B681B68FB60FB6823F47F5323F016
:1057F0003003FB607B685A687B689B681A437B6850
:10580000DB681A437B681B691A437B685B691A4330
:105810007B689B691A437B68DB691343FA6813430F
:10582000FB607B681B68FA681A607B6800229A63D9
:105830007B68012283F821207B68002283F82020E6
:10584000002318461437BD4680BC7047F8FFFDBFE3
:10585000CDCCCCCC0000024080B586B000AFF86063
:10586000B9607A603B600023FB75FB6893F82030D9
:10587000012B01D102234AE0FB68012283F820209A
:10588000FB6893F82130012B3AD1FB68022283F8A0
:105890002120FB6800229A63FB681B681A68FB687A
:1058A0001B6822F001021A603B687A68B968F868E0
:1058B00000F0AEF9FB68DB6A002B08D0FB681B68C0
:1058C0001A68FB681B6842F00E021A600FE0FB6862
:1058D0001B681A68FB681B6822F004021A60FB68E8
:1058E0001B681A68FB681B6842F00A021A60FB68B2
:1058F0001B681A68FB681B6842F001021A6005E029
:10590000FB68002283F820200223FB75FB7D1846EC
:105910001837BD4680BD000080B584B000AF786008
:105920000023FB737B6893F82130022B05D07B6842
:1059300004229A630123FB7351E07B681B681A6899
:105940007B681B6822F00E021A607B681B681A686D
:105950007B681B6822F001021A607B681B68224A80
:10596000934229D07B681B68204A934222D07B68EF
:105970001B681F4A93421AD07B681B681D4A9342DA
:1059800012D07B681B681C4A93420AD07B681B6854
:105990001A4A934202D14FF480130EE04FF0807305
:1059A0000BE04FF4803308E04FF4805305E04FF4F0
:1059B000807302E0102300E00123114A53607B68EA
:1059C000012283F821207B68002283F820207B6855
:1059D0005B6B002B03D07B685B6B78689847FB7B25
:1059E00018461037BD4680BD080002401C0002402A
:1059F0003000024044000240580002406C00024067
:105A00000000024080B584B000AF78607B68DB6B3B
:105A10001B68FB607B681B681B68BB607B681B6C3A
:105A200004229A40FB681340002B4FD0BB6803F060
:105A30000403002B4AD07B681B681B6803F020031B
:105A4000002B07D17B681B681A687B681B6822F0F3
:105A500004021A607B681B68664A934229D07B68FF
:105A60001B68654A934222D07B681B68634A934255
:105A70001AD07B681B68624A934212D07B681B680D
:105A8000604A93420AD07B681B685F4A934202D106
:105A90004FF480030EE04FF080630BE04FF480235F
:105AA00008E04FF4804305E04FF4806302E04023B8
:105AB00000E00423554A53607B68DB6A002B00F04A
:105AC00094807B68DB6A786898478EE07B681B6C03
:105AD00002229A40FB681340002B56D0BB6803F0AB
