:020000040800F2
:1000000000500020993D0008113C00081D3C0008EC
:10001000233C0008293C00082F3C00080000000099
:10002000000000000000000000000000353C000857
:10003000413C0008000000004D3C0008593C00080D
:10004000E13D0008E13D0008E13D0008E13D000818
:10005000E13D0008E13D0008E13D0008E13D000808
:10006000E13D0008E13D0008E13D0008693C000871
:10007000E13D0008E13D0008E13D0008E13D0008E8
:10008000E13D0008E13D0008813C0008953C000886
:10009000A93C0008E13D0008E13D0008E13D000801
:1000A000E13D0008E13D0008E13D0008E13D0008B8
:1000B000E13D0008E13D0008E13D0008E13D0008A8
:1000C000E13D0008E13D0008E13D0008E13D000898
:1000D000C53C0008E13D0008E13D0008E13D0008A5
:1000E000E13D0008E13D0008E13D0008000000009E
:1000F0000000000000000000000000000000000000
:0C01000000000000000000005FF808F1A3
:1001100010B5054C237833B9044B13B10448AFF341
:1001200000800123237010BD4C030020000000005C
:1001300084AF000808B5034B1BB103490348AFF374
:10014000008008BD000000005003002084AF0008BC
:10015000034613F8012B002AFBD1181A0138704707
:1001600081F0004102E000BF83F0004330B54FEA68
:1001700041044FEA430594EA050F08BF90EA020FD5
:100180001FBF54EA000C55EA020C7FEA645C7FEA68
:10019000655C00F0E2804FEA5454D4EB5555B8BF8B
:1001A0006D420CDD2C4480EA020281EA030382EAFC
:1001B000000083EA010180EA020281EA0303362D8E
:1001C00088BF30BD11F0004F4FEA01314FF4801C61
:1001D0004CEA113102D0404261EB410113F0004F73
:1001E0004FEA03334CEA133302D0524263EB43032A
:1001F00094EA050F00F0A780A4F10104D5F1200EC8
:100200000DDB02FA0EFC22FA05F2801841F1000122
:1002100003FA0EF2801843FA05F359410EE0A5F1F6
:1002200020050EF1200E012A03FA0EFC28BF4CF027
:10023000020C43FA05F3C01851EBE37101F00045DD
:1002400007D54FF0000EDCF1000C7EEB00006EEBEA
:100250000101B1F5801F1BD3B1F5001F0CD3490874
:100260005FEA30004FEA3C0C04F101044FEA4452CB
:1002700012F5800F80F09A80BCF1004F08BF5FEA52
:10028000500C50F1000041EB045141EA050130BD32
:100290005FEA4C0C404141EB010111F4801FA4F1D5
:1002A0000104E9D191F0000F04BF01460020B1FA2A
:1002B00081F308BF2033A3F10B03B3F120020CDA62
:1002C0000C3208DD02F1140CC2F10C0201FA0CF040
:1002D00021FA02F10CE002F11402D8BFC2F1200CA5
:1002E00001FA02F120FA0CFCDCBF41EA0C0190405B
:1002F000E41AA2BF01EB0451294330BD6FEA0404A4
:100300001F3C1CDA0C340EDC04F11404C4F120028E
:1003100020FA04F001FA02F340EA030021FA04F3A0
:1003200045EA030130BDC4F10C04C4F1200220FAF7
:1003300002F001FA04F340EA0300294630BD21FA35
:1003400004F0294630BD94F0000F83F4801306BFFB
:1003500081F480110134013D4EE77FEA645C18BFEF
:100360007FEA655C29D094EA050F08BF90EA020F86
:1003700005D054EA000C04BF1946104630BD91EA7E
:10038000030F1EBF0021002030BD5FEA545C05D181
:100390004000494128BF41F0004130BD14F58004C0
:1003A0003CBF01F5801130BD01F0004545F0FE4134
:1003B00041F470014FF0000030BD7FEA645C1ABF69
:1003C000194610467FEA655C1CBF0B46024650EAA0
:1003D000013406BF52EA033591EA030F41F40021CC
:1003E00030BD00BF90F0000F04BF0021704730B552
:1003F0004FF4806404F132044FF000054FF0000127
:1004000050E700BF90F0000F04BF0021704730B5E7
:100410004FF4806404F1320410F0004548BF4042BC
:100420004FF000013EE700BF42004FEAE2014FEA11
:1004300031014FEA02701FBF12F07F4393F07F4FEC
:1004400081F06051704732F07F4208BF704793F0EF
:100450007F4F04BF41F40021704730B54FF4607402
:1004600001F0004521F000411CE700BF50EA010205
:1004700008BF704730B54FF000050AE050EA0102AE
:1004800008BF704730B511F0004502D5404261EB1E
:1004900041014FF4806404F132045FEA915C3FF45F
:1004A000D8AE4FF003025FEADC0C18BF03325FEAFC
:1004B000DC0C18BF033202EBDC02C2F1200300FAAD
:1004C00003FC20FA02F001FA03FE40EA0E0021FAD2
:1004D00002F11444BDE600BF70B54FF0FF0C4CF4C0
:1004E000E06C1CEA11541DBF1CEA135594EA0C0F72
:1004F00095EA0C0F00F0DEF82C4481EA030621EAAD
:100500004C5123EA4C5350EA013518BF52EA0335E7
:1005100041F4801143F4801338D0A0FB02CE4FF099
:100520000005E1FB02E506F00042E0FB03E54FF0C9
:100530000006E1FB03569CF0000F18BF4EF0010EC1
:10054000A4F1FF04B6F5007F64F5407404D25FEABD
:100550004E0E6D4146EB060642EAC62141EA555170
:100560004FEAC52040EA5E504FEACE2EB4F1FD0CB2
:1005700088BFBCF5E06F1ED8BEF1004F08BF5FEA30
:10058000500E50F1000041EB045170BD06F00046E2
:1005900046EA010140EA020081EA0301B4EB5C048F
:1005A000C2BFD4EB0C0541EA045170BD41F4801187
:1005B0004FF0000E013C00F3AB8014F1360FDEBFAC
:1005C000002001F0004170BDC4F10004203C35DA88
:1005D0000C341BDC04F11404C4F1200500FA05F30B
:1005E00020FA04F001FA05F240EA020001F00042AC
:1005F00021F0004110EBD37021FA04F642EB060122
:100600005EEA430E08BF20EAD37070BDC4F10C044B
:10061000C4F1200500FA04F320FA05F001FA04F20F
:1006200040EA020001F0004110EBD37041F10001FB
:100630005EEA430E08BF20EAD37070BDC4F1200506
:1006400000FA05F24EEA020E20FA04F301FA05F26E
:1006500043EA020321FA04F001F0004121FA04F216
:1006600020EA020000EBD3705EEA430E08BF20EAE6
:10067000D37070BD94F0000F0FD101F00046400020
:1006800041EB010111F4801F08BF013CF7D041EAA2
:10069000060195F0000F18BF704703F000465200A6
:1006A00043EB030313F4801F08BF013DF7D043EA77
:1006B0000603704794EA0C0F0CEA135518BF95EA2D
:1006C0000C0F0CD050EA410618BF52EA4306D1D1B4
:1006D00081EA030101F000414FF0000070BD50EAD3
:1006E000410606BF1046194652EA430619D094EA5D
:1006F0000C0F02D150EA013613D195EA0C0F05D147
:1007000052EA03361CBF104619460AD181EA03019A
:1007100001F0004141F0FE4141F470014FF0000052
:1007200070BD41F0FE4141F4780170BD70B54FF0ED
:10073000FF0C4CF4E06C1CEA11541DBF1CEA13556D
:1007400094EA0C0F95EA0C0F00F0A7F8A4EB05044F
:1007500081EA030E52EA03354FEA013100F0888046
:100760004FEA03334FF0805545EA131343EA12630F
:100770004FEA022245EA111545EA10654FEA0026C4
:100780000EF000419D4208BF964244F1FD0404F57D
:10079000407402D25B084FEA3202B61A65EB0305D9
:1007A0005B084FEA32024FF480104FF4002CB6EB96
:1007B000020E75EB030E22BFB61A754640EA0C0016
:1007C0005B084FEA3202B6EB020E75EB030E22BF56
:1007D000B61A754640EA5C005B084FEA3202B6EB97
:1007E000020E75EB030E22BFB61A754640EA9C0056
:1007F0005B084FEA3202B6EB020E75EB030E22BF26
:10080000B61A754640EADC0055EA060E18D04FEAE3
:10081000051545EA16754FEA06164FEAC30343EA83
:1008200052734FEAC2025FEA1C1CC0D111F4801F50
:100830000BD141EA00014FF000004FF0004CB6E749
:1008400011F4801F04BF01430020B4F1FD0C88BFE8
:10085000BCF5E06F3FF6AFAEB5EB030C04BFB6EBF3
:10086000020C5FEA500C50F1000041EB045170BDE6
:100870000EF0004E4EEA113114EB5C04C2BFD4EB13
:100880000C0541EA045170BD41F480114FF0000E97
:10089000013C90E645EA060E8DE60CEA135594EA13
:1008A0000C0F08BF95EA0C0F3FF43BAF94EA0C0F16
:1008B0000AD150EA01347FF434AF95EA0C0F7FF48B
:1008C00025AF104619462CE795EA0C0F06D152EADF
:1008D00003353FF4FDAE1046194622E750EA4106C3
:1008E00018BF52EA43067FF4C5AE50EA41047FF4D4
:1008F0000DAF52EA43057FF4EBAE12E74FEA410237
:10090000B2F1E04324BFB3F5001CDCF1FE5C0DD96D
:1009100001F0004C4FEAC0024CEA5070B2F1004FB7
:1009200040EB830008BF20F00100704711F0804FBA
:1009300021D113F13872BCBF01F00040704741F47F
:1009400080114FEA5252C2F11802C2F1200C10FA83
:100950000CF320FA02F018BF40F001004FEAC12367
:100960004FEAD32303FA0CFC40EA0C0023FA02F30B
:100970004FEA4303CCE77FEA625307D150EA0133E1
:100980001EBF4FF0FE4040F44000704701F00040B1
:1009900040F0FE4040F40000704700BF80F000408F
:1009A00002E000BF81F0004142001FBF5FEA410347
:1009B00092EA030F7FEA226C7FEA236C6AD04FEA47
:1009C0001262D2EB1363C1BFD2184140484041408C
:1009D000B8BF5B42192B88BF704710F0004F40F43E
:1009E000000020F07F4018BF404211F0004F41F45A
:1009F000000121F07F4118BF494292EA030F3FD026
:100A0000A2F1010241FA03FC10EB0C00C3F1200338
:100A100001FA03F100F0004302D5494260EB4000C7
:100A2000B0F5000F13D3B0F1807F06D340084FEA32
:100A3000310102F10102FE2A51D2B1F1004F40EB27
:100A4000C25008BF20F0010040EA0300704749008F
:100A500040EB000010F4000FA2F10102EDD1B0FA5A
:100A600080FCACF1080CB2EB0C0200FA0CF0AABF4F
:100A700000EBC25052421843BCBFD04018437047ED
:100A800092F0000F81F4000106BF80F400000132F3
:100A9000013BB5E74FEA41037FEA226C18BF7FEACA
:100AA000236C21D092EA030F04D092F0000F08BF0C
:100AB0000846704790EA010F1CBF0020704712F0F3
:100AC0007F4F04D1400028BF40F00040704712F132
:100AD00000723CBF00F50000704700F0004343F097
:100AE000FE4040F4000070477FEA226216BF0846CD
:100AF0007FEA23630146420206BF5FEA412390EA90
:100B0000010F40F4800070474FF0000304E000BF85
:100B100010F0004348BF40425FEA000C08BF704736
:100B200043F0964301464FF000001CE050EA0102FA
:100B300008BF70474FF000030AE000BF50EA01020F
:100B400008BF704711F0004302D5404261EB4101FC
:100B50005FEA010C02BF84460146002043F0B64321
:100B600008BFA3F18053A3F50003BCFA8CF2083A46
:100B7000A3EBC25310DB01FA02FC634400FA02FC4F
:100B8000C2F12002BCF1004F20FA02F243EB020056
:100B900008BF20F00100704702F1200201FA02FCB8
:100BA000C2F1200250EA4C0021FA02F243EB0200AB
:100BB00008BF20EADC7070474FF0FF0C1CEAD052EF
:100BC0001EBF1CEAD15392EA0C0F93EA0C0F6FD0B0
:100BD0001A4480EA010C400218BF5FEA41211ED08E
:100BE0004FF0006343EA501043EA5111A0FB01317A
:100BF0000CF00040B1F5000F3EBF490041EAD3714F
:100C00005B0040EA010062F17F02FD2A1DD8B3F1CA
:100C1000004F40EBC25008BF20F00100704790F039
:100C2000000F0CF0004C08BF49024CEA502040EA8B
:100C300051207F3AC2BFD2F1FF0340EAC250704751
:100C400040F400004FF00003013A5DDC12F1190F8F
:100C5000DCBF00F000407047C2F10002410021FA01
:100C600002F1C2F1200200FA02FC5FEA310040F119
:100C7000000053EA4C0308BF20EADC70704792F092
:100C8000000F00F0004C02BF400010F4000F013ACA
:100C9000F9D040EA0C0093F0000F01F0004C02BFC5
:100CA000490011F4000F013BF9D041EA0C018FE734
:100CB0000CEAD15392EA0C0F18BF93EA0C0F0AD03A
:100CC00030F0004C18BF31F0004CD8D180EA010060
:100CD00000F00040704790F0000F17BF90F0004FF9
:100CE000084691F0000F91F0004F14D092EA0C0FDB
:100CF00001D142020FD193EA0C0F03D14B0218BF6E
:100D0000084608D180EA010000F0004040F0FE40B3
:100D100040F40000704740F0FE4040F4400070474F
:100D20004FF0FF0C1CEAD0521EBF1CEAD15392EACE
:100D30000C0F93EA0C0F69D0A2EB030280EA010CBE
:100D400049024FEA402037D04FF0805343EA111157
:100D500043EA10130CF000408B4238BF5B0042F1B5
:100D60007D024FF4000C8B4224BF5B1A40EA0C005A
:100D7000B3EB510F24BFA3EB510340EA5C00B3EB8C
:100D8000910F24BFA3EB910340EA9C00B3EBD10F7A
:100D900024BFA3EBD10340EADC001B0118BF5FEACC
:100DA0001C1CE0D1FD2A3FF650AF8B4240EBC250F5
:100DB00008BF20F0010070470CF0004C4CEA5020B6
:100DC0007F32C2BFD2F1FF0340EAC250704740F405
:100DD00000004FF00003013A37E792F0000F00F0F7
:100DE000004C02BF400010F4000F013AF9D040EA75
:100DF0000C0093F0000F01F0004C02BF490011F409
:100E0000000F013BF9D041EA0C0195E70CEAD15300
:100E100092EA0C0F08D142027FF47DAF93EA0C0FE7
:100E20007FF470AF084676E793EA0C0F04D14B02CB
:100E30003FF44CAF08466EE730F0004C18BF31F07D
:100E4000004CCAD130F000427FF45CAF31F0004377
:100E50007FF43CAF5FE700BF4FF0FF3C06E000BF10
:100E60004FF0010C02E000BF4FF0010C4DF804CD33
:100E70004FEA40024FEA41037FEA226C18BF7FEA43
:100E8000236C11D001B052EA530C18BF90EA010F45
:100E900058BFB2EB030088BFC81738BF6FEAE170D4
:100EA00018BF40F0010070477FEA226C02D15FEA70
:100EB000402C05D17FEA236CE4D15FEA412CE1D0DC
:100EC0005DF8040B704700BF844608466146FFE7A3
:100ED0000FB5FFF7C9FF002848BF10F1000F0FBD85
:100EE0004DF808EDFFF7F4FF0CBF012000205DF87E
:100EF00008FB00BF4DF808EDFFF7EAFF34BF012003
:100F000000205DF808FB00BF4DF808EDFFF7E0FF9B
:100F100094BF012000205DF808FB00BF4DF808EDEC
:100F2000FFF7D2FF94BF012000205DF808FB00BF4F
:100F30004DF808EDFFF7C8FF34BF012000205DF831
:100F400008FB00BF4FEA4002B2F1FE4F0FD34FF053
:100F50009E03B3EB12620DD94FEA002343F0004326
:100F600010F0004F23FA02F018BF404270474FF0D4
:100F70000000704712F1610F01D1420205D110F05B
:100F8000004008BF6FF0004070474FF0000070470E
:100F900080B500AF00F036FB00F0E8F903461846D4
:100FA00080BD000080B5ADF5836D00AF3B1D1860BE
:100FB0003B46196007F10803264A184611464FF4CC
:100FC00080631A4609F0F4F94FF0FF33C7F80C3488
:100FD0000023C7F814342EE0D7F80C341B0EC7F8E2
:100FE00008343B46D7F814241B689A4208DAD7F82D
:100FF00014343A1D126813441B7887F8133402E046
:10100000002387F81334D7F80C341A0297F81334F6
:101010001343C7F80C3407F10803D7F8082453F832
:101020002230D7F80C245340C7F80C34D7F81434C6
:101030000133C7F814343B461B680433D7F8142433
:101040009A42C9DBD7F80C34184607F58367BD46CA
:1010500080BD00BF9CAF000880B584B000AF0346E0
:10106000FB7140233B73FB797B7307F10C03022177
:10107000184602F057F900BF1037BD4680BD00008A
:1010800080B58AB000AFF8600B467A60FB72FB7ADD
:101090005B00642B01DD002337E0FB687B623023BB
:1010A0003B7578237B75002387F8233007F1140301
:1010B0000233FB61FB687B621FE07B6A1B889AB28C
:1010C000FB691A80FB69023300221A7007F11002D3
:1010D00007F114030F49184609F07EF9396997F8AA
:1010E00023307A681344CAB21A7097F82330013358
:1010F00087F823307B6A02337B62FB7AFA681344F9
:101100007A6A9A42D9D397F8233018462837BD46D1
:1011100080BD00BF9CB3000880B500AF00F0D0FADE
:1011200000BF80BD80B5C4B000AF3B1D186008464D
:101130001146BB1C02461A807B1C0A461A70554B8E
:101140001B88FF2B01D900239EE07B1C1B78002B02
:1011500013D0504B1B88002B0FD04F4B19684D4BB1
:101160001B8801331A464D4800F0F4FAFFF7D4FF0C
:10117000484B00221A80012386E0BB1C1B88093BD8
:10118000A7F80A313B1D1B681B78242B08D1BB1C18
:101190001B88013B3A1D126813441B78232B01D096
:1011A000002371E0B7F80A31B3F5007F01D90023BD
:1011B0006AE03B1D1B680833B7F80A21D1B207F17A
:1011C00008021846FFF75CFF0346A7F80A31B7F894
:1011D0000A3107F108020021D154B7F80A21304B37
:1011E0001B6813442E4A13600023C7F80C3137E004
:1011F000284B1B88FF2B12D1274B1B684FF48072A2
:101200001946264800F0A6FAFFF786FF214B002278
:101210001A80214B1B6801331F4A13601BE01D4BD2
:101220001B88194607F10802D7F80C3113441A78C5
:101230001A4B5A54174B1B88194607F10802D7F866
:101240000C3113441A78174B5A54124B1B88013334
:101250009AB2104B1A80D7F80C310133C7F80C3111
:10126000B7F80A31D7F80C219A42C1DB094B1B8829
:101270001A460D4B1A60B7F80A310C4A1360BB1CB2
:101280001B880B4A13600123184607F58877BD4673
:1012900080BD00BF74080020180700205C070020F4
:1012A0006008002098050020A40600209C0600206D
:1012B000A006002080B584B000AF012200210020EC
:1012C000FFF730FF02F024F8234B00221A600023BE
:1012D0007B60224B1B681B0A9BB201337B8101237D
:1012E000FB6017E04FF4807200211D4809F06BF895
:1012F000FB684FF480721946194800F077FAFF2115
:101300001748FFF74FFE02467B6813447B60FB687B
:101310000133FB607B89FA689A42E3DD4FF4807207
:1013200000210F4809F04FF80D4BAB221A700D4AFF
:101330007B6813600C4A094B1B681360064B1B68E3
:101340004FF480721946064800F004FAFFF7E4FEF5
:1013500000BF1037BD4680BD180700206008002080
:101360005C0700205D0700206107002080B584B085
:1013700000AF304B00221A802F4B00221A6001F080
:10138000C7FF2D4B1B684FF4807219462B4800F0A5
:101390002DFA2A4B1B78AB2B01D0002346E000230B
:1013A000FB6000233B60264B1B683B60254B1B68A2
:1013B0001A46254B1A60244B1B681B0A9BB201334B
:1013C000FB800123BB6017E04FF4807200211B48B3
:1013D00008F0F9FFBB684FF480721946174800F017
:1013E00005FAFF211548FFF7DDFD0246FB681344AF
:1013F000FB60BB680133BB60FB88BA689A42E3DDDF
:101400003B68FA689A4207D1104B01221A700A4BC6
:1014100001221A60012309E00C4B00221A70064BCE
:1014200001221A60084B00221A6000231846103768
:10143000BD4680BD74080020180700205C0700200E
:101440005D07002061070020600800205C08002084
:1014500080B582B000AF78607B685B6E002B6DD08A
:101460007B681B78402B37D17B685B78502B16D17B
:1014700000F050F901F04CFF324B00221A70324B51
:1014800000221A70314B01221A60314B00221A607F
:10149000304B00221A80304B01221A7018E07B6812
:1014A0005B78452B14D12C4B1B78002B10D0FFF709
:1014B00001FF294B00221A70FFF758FF034683F003
:1014C0000103DBB2002B03D05220FFF7C5FD36E04D
:1014D0004F20FFF7C1FD32E01F4B1B7883F0010363
:1014E000DBB2002B03D05220FFF7B6FD27E07B686C
:1014F0001B78242B16D1184B1B78002B12D0786840
:101500007B685B6E9BB200221946FFF70BFE034619
:10151000002B03D04F20FFF79FFD10E05220FFF774
:101520009BFD0CE07B681B78212B08D10A4B1B78B4
:10153000002B04D04F20FFF78FFD00E000BF0837DD
:10154000BD4680BD5C08002015070020180700205C
:1015500060080020740800201407002080B500AF48
:10156000104B00221A70104B00225A660F4B0022BB
:10157000DA60402200210E4808F025FF0D4B0022C2
:101580001A700D4B00221A700C4B00221A700C4B73
:1015900000221A700B4B00221A600B4B01221A60BA
:1015A00000BF80BD14070020AC06002064080020A6
:1015B0001C0700205C080020A90600201507002059
:1015C000A8060020600800201807002080B586B01B
:1015D00002AF0346FB7107F10F02F91DFF230093D1
:1015E0000123074805F03DFA00BF054B93F8513041
:1015F000DBB2012BF9D1FB7B18461037BD4680BD0D
:101600007808002080B500AF01224FF480510548D2
:1016100003F0CAFD00F01EF800F052F800F030F8B8
:1016200000BF80BD000C014080B500AF00224FF428
:101630008051074803F0B8FD0620FFF7C7FF0122DD
:101640004FF48051024803F0AFFD00BF80BD00BFE2
:10165000000C014080B500AF00224FF480510748D4
:1016600003F0A2FD0420FFF7B1FF01224FF48051E7
:10167000024803F099FD00BF80BD00BF000C01408F
:1016800080B582B000AF0023FB7100224FF480517F
:101690000A4803F089FD0520FFF798FFAB20FFF70C
:1016A00095FF0346FB7101224FF48051034803F07C
:1016B0007BFDFB7918460837BD4680BD000C014014
:1016C00080B582B000AF0023FB7100224FF480513F
:1016D0000F4803F069FD0520FFF778FFAB20FFF707
:1016E00075FF0346FB71012002F0DEFB01F010FEE6
:1016F000FB7903F00103002BF0D101224FF480515C
:10170000034803F051FD00BF0837BD4680BD00BF50
:10171000000C014080B500AFFFF7D2FFFFF784FF58
:1017200000224FF480510A4803F03EFDC720FFF726
:101730004DFF01224FF48051054803F035FDFFF7BE
:10174000BFFFFFF787FFFFF7BBFF00BF80BD00BFF4
:10175000000C014080B586B000AFF860B9607A60D7
:10176000FB687B61FFF7ACFFFFF75EFFBB681B0206
:10177000BB6000224FF480511B4803F015FD02208E
:10178000FFF724FFBB681B0CFB74FB7C1846FFF7BC
:101790001DFFBB681B0AFB74FB7C1846FFF716FF96
:1017A000BB68FB74FB7C1846FFF710FF07E07B6902
:1017B0001B781846FFF70AFF7B6901337B617B6862
:1017C0005A1E7A60002BF2D101224FF48051064854
:1017D00003F0EAFCFFF774FFFFF73CFFFFF770FF31
:1017E00000BF1837BD4680BD000C014080B586B0F3
:1017F00000AFF860B9607A60FB687B61FFF760FF5B
:10180000FFF728FFFFF75CFFBB681B02BB600022ED
:101810004FF480511B4803F0C7FC0B20FFF7D6FEA6
:10182000BB681B0CFB74FB7C1846FFF7CFFEBB6844
:101830001B0AFB74FB7C1846FFF7C8FEBB68FB74F1
:10184000FB7C1846FFF7C2FEAB20FFF7BFFE09E0A6
:10185000AB20FFF7BBFE03461A467B691A707B6913
:1018600001337B617B685A1E7A60002BF0D1012224
:101870004FF48051034803F097FC00BF1837BD4672
:1018800080BD00BF000C014080B500AF7822002170
:10189000094808F098FDA0220021084808F093FDAF
:1018A0000F220021064808F08EFD02220121054882
:1018B00008F089FD00BF80BDDC100020D0080020AA
:1018C00054110020D810002080B586B000AF034628
:1018D000FB8007237B617B69102B01DD10237B617B
:1018E00000233B616AE0FB8803F00103002B14BF77
:1018F00001230023FB73FB885B08FB803B69023BF1
:10190000042B58D801A252F823F000BF2119000877
:101910003F1900085D1900087B1900089919000893
:10192000FB7B002B05D000228021284803F03CFCE3
:1019300041E001228021254803F036FC3BE0FB7B9F
:10194000002B05D000224021204803F02DFC32E07E
:10195000012240211D4803F027FC2CE0FB7B002BDB
:1019600005D000222021194803F01EFC23E00122AB
:101970002021164803F018FC1DE0FB7B002B05D04E
:1019800000221021114803F00FFC14E00122102165
:101990000E4803F009FC0EE0FB7B002B05D0002273
:1019A00008210A4803F000FC04E00122082107484E
:1019B00003F0FAFB00BF3B6901333B613A697B6985
:1019C0009A4290DB00BF1837BD4680BD000C014035
:1019D00080B58AB000AF786039607B687B62002395
:1019E000FB6007F110030322796A184608F0E0FC57
:1019F0000023FB7407F11003013307F10C02AE4919
:101A0000184608F0E9FCFB68DBB27B763B7C3B7652
:101A10007B6803337B627B6A1B78FB767B6A0133CE
:101A20007B627B6A1B78252B05D101233B777B6A80
:101A300001337B6201E000233B7707F110030622AC
:101A4000796A184608F0B4FC00233B62A4E107F170
:101A500010023B6A13441B78422B40F09A8107F135
:101A600010023B6A134400221A7007F10C0207F1BE
:101A700010039149184608F0AFFCFB68DBB27B7796
:101A80003B6A02337A6A13447B6207F10C031A46FD
:101A90008949786A08F0A0FCFB68DBB2BB76BB7EA4
:101AA000797F864ADB0013440A465A71BB7EF97E71
:101AB000824ADB0013440A461A713B7E462B2ED124
:101AC0007B7E002B13D13B7F83F00103DBB2002B25
:101AD00006D0BB7E1946794B794A43F8312060E144
:101AE000BB7E1946754B774A43F8312059E17B7E1E
:101AF000012B40F056813B7F83F00103DBB2002BCA
:101B000006D0BB7E19466D4B6F4A43F8312048E141
:101B1000BB7E1946694B6D4A43F8312041E13B7E5B
:101B2000492B76D17B7E042B00F23B8101A252F837
:101B300023F000BF491B0008711B0008991B000817
:101B4000C11B0008E91B00083B7F83F00103DBB2E7
:101B5000002B06D0BB7E1946584B5D4A43F8312016
:101B600016E1BB7E1946554B5A4A43F831200FE126
:101B70003B7F83F00103DBB2002B06D0BB7E19460E
:101B80004E4B554A43F8312002E1BB7E19464B4B80
:101B9000524A43F83120FBE03B7F83F00103DBB284
:101BA000002B06D0BB7E1946444B4D4A43F83120EA
:101BB000EEE0BB7E1946414B4A4A43F83120E7E04C
:101BC0003B7F83F00103DBB2002B06D0BB7E1946BE
:101BD0003A4B454A43F83120DAE0BB7E1946374B91
:101BE000424A43F83120D3E03B7F83F00103DBB26C
:101BF000002B06D0BB7E1946304B3D4A43F83120BE
:101C0000C6E0BB7E19462D4B3A4A43F8312000BF4F
:101C1000BEE03B7E432B40F0C4807B7E0E2B00F267
:101C2000B68001A252F823F0651C0008731C00085E
:101C3000811C00088F1C00089D1C0008AB1C0008BC
:101C4000111D00081F1D00082D1D00083B1D000868
:101C5000491D0008571D0008651D0008731D000878
:101C6000811D0008BB7E1946144B234A43F83120DE
:101C70008EE0BB7E1946114B204A43F8312087E0A5
:101C8000BB7E19460D4B1E4A43F8312080E0BB7ED7
:101C900019460A4B1B4A43F8312079E0BB7E1946AE
:101CA000064B194A43F8312072E0BB7E1946034BBC
:101CB000164A43F831206BE0A0B30008DC10002086
:101CC0001C070020200700202407002028070020F0
:101CD0002C07002048070020300700204C07002078
:101CE0003407002050070020380700205407002048
:101CF0003C0700205807002094090020140A002007
:101D0000940A0020140B0020940B0020140C0020D7
:101D1000BB7E1946254B264A43F8312038E0BB7E6E
:101D20001946224B234A43F8312031E0BB7E194645
:101D30001E4B214A43F831202AE0BB7E19461B4B3B
:101D40001E4A43F8312023E0BB7E1946174B1C4A3C
:101D500043F831201CE0BB7E1946144B194A43F866
:101D6000312015E0BB7E1946104B174A43F831204D
:101D70000EE0BB7E19460D4B144A43F8312007E0B4
:101D8000BB7E1946094B124A43F8312000E000BFE0
:101D900007E03B6A01333B623B6A072B7FF757AE94
:101DA00000E000BF00BF2837BD4680BDDC1000202A
:101DB000940C0020140D0020940D0020140E00201F
:101DC000940E0020140F0020940F00201410002007
:101DD0009410002080B582B000AF00237B607FE0CC
:101DE000434A7B6852F83330002B76D0404A7B68F8
:101DF000DB0013441B793E2B0DD03D4A7B68DB0092
:101E000013441B793C2B06D0394A7B68DB00134412
:101E10001B793D2B61D1364A7B68DB0013441B796B
:101E20003E2B19D1324A7B6852F833301B68184672
:101E3000FFF788F801462E4A7B68DB0013445B7984
:101E40009942CCBF01230023D9B2294A7B68DB0029
:101E500013440A469A7140E0254A7B68DB0013442C
:101E60001B793C2B19D1224A7B6852F833301B680E
:101E70001846FFF767F801461D4A7B68DB001344EC
:101E80005B799942B4BF01230023D9B2184A7B6819
:101E9000DB0013440A469A711FE0154A7B68DB0099
:101EA00013441B793D2B18D1114A7B6852F833300B
:101EB0001B681846FFF746F801460D4A7B68DB00B1
:101EC00013445B7999420CBF01230023D9B2084A1D
:101ED0007B68DB0013440A469A717B6801337B60A0
:101EE0007B680E2B7FF77CAF00BF0837BD4680BDF7
:101EF000DC10002080B582B000AF1F4B1B78002B98
:101F000036D000237B6030E07B68002B02D0012BB1
:101F100014D027E0194A7B6813441B78002B06D0A5
:101F200001224FF48061164803F03EF91AE00022C6
:101F30004FF48061124803F037F913E00F4A7B68D1
:101F400013441B78002B06D001224FF400710C487B
:101F500003F02AF905E000224FF40071084803F06D
:101F600023F900BF7B6801337B607B68012BCBDDED
:101F700000BF0837BD4680BDA8060020D81000204D
:101F80000008014080B582B000AF78607B681B7BA1
:101F9000742B2CD17B681B7883F00103DBB2002B00
:101FA00008D07B6800225A7001F074FF02467B68FB
:101FB0009A603AE001F06EFF02467B689B68D21A95
:101FC0007B685B689A4202D37B6801225A7001F0F9
:101FD00061FF02467B689B68D21A7B685B689A4205
:101FE0002CBF01230023DAB27B685A701DE07B68A6
:101FF0001B7B632B19D17B681B78002B08D07B6877
:1020000001225A7001F046FF02467B689A600CE09C
:1020100001F040FF02467B689B68D21A7B685B68D0
:102020009A4202D97B6800225A7000BF0837BD4629
:1020300080BD000080B582B000AF00237B6009E066
:102040007B681B01074A13441846FFF79BFF7B6818
:1020500001337B607B68092BF2DD00BF0837BD468A
:1020600080BD00BFD008002080B584B000AFF8600C
:102070007B600B46FB721346BB72FB681B7BBA7A14
:102080009A420CD010220021F86808F09CF9FB68F5
:10209000BA7A1A7301F0FEFE0246FB689A60FB688A
:1020A0007A685A60FB68FA7A1A70F868FFF76AFF74
:1020B000FB685B7818461037BD4680BD80B590B090
:1020C00000AFF860B9607A60FB68FB630023BB6314
:1020D000002387F83630002387F82E30FB6B1B78FF
:1020E000282B40F02183FB6B0133FB6349E0FA6B43
:1020F000BB6B13441B78292B40D17B681B78FB7783
:1021000007F11F031A46B96BF86BFFF7D7FF0346B9
:10211000FB7797F836304F2B0CD17B681A78FB7F12
:102120001343DBB2002B14BF01230023DAB27B6818
:102130001A7017E097F83630412B0CD17B681B786A
:102140001A46FB7F1340002B14BF01230023DAB291
:102150007B681A7006E097F83630002B02D1FA7FC0
:102160007B681A70002387F83630BB6B0133FA6B3B
:102170001344FB630023BB6300BF0AE0BB6B013366
:10218000BB63FA6BBB6B1A44F968BB680B449A4299
:10219000ADD3C9E2FB6B1B78632B03D0FB6B1B78C1
:1021A000742B67D1FB6B1B7887F82E30FB6B0233E7
:1021B000FB63FB6B1B889BB2BB84002387F8263034
:1021C00007F1200207F12403B349184608F004F987
:1021D000FB6B0333FB6307F124030822F96B1846FA
:1021E00008F0E6F8002387F82C30002387F8373012
:1021F0003BE097F8373007F14002134413F81C3CDA
:102200007C2B2DD197F8373007F140021344002280
:1022100003F81C2C97F837300133FA6B1344FB6337
:1022200007F1180207F124039B49184608F0D4F877
:102230007B681B7887F82D303B6A1B01974A9818FA
:10224000BB6997F82E2097F82D10FFF70DFF034676
:102250001A467B681A70002387F8363000BF08E002
:1022600097F83730013387F8373097F83730072B36
:10227000BFD959E2FB6B1B784F2B06D1FB6B0133A7
:10228000FB634F2387F836304EE2FB6B1B78412B04
:1022900006D1FB6B0133FB63412387F8363043E201
:1022A000FB6B1B78292B05D1FB6B0133FB630023F0
:1022B000BB6339E2FB6B1B78562B04D0FB6B1B789E
:1022C0004E2B40F09680FB6B1B7887F82E30FB6B13
:1022D0000133FB63FB6B1B7887F83730FB6B0133F3
:1022E000FB63FB6B1B889BB2BB84FB6B0233FB6302
:1022F000002387F8263007F1200207F124036649FE
:10230000184608F069F897F83730582B07D13B6A20
:10231000634ADB0013449B7987F82F3023E097F85A
:1023200037304D2B05D13B6A5E4AD35C87F82F309E
:1023300019E097F83730592B05D13B6A5A4AD35CDC
:1023400087F82F300FE097F83730542B08D13B6ACD
:10235000524A1B01134401331B7887F82F3002E0E7
:10236000002387F82F3097F82E304E2B11D197F895
:102370002F30002B14BF01230023DBB283F00103B5
:10238000DBB287F82F3097F82F3003F0010387F87E
:102390002F3097F836304F2B0DD17B681A7897F88D
:1023A0002F301343DBB2002B14BF01230023DAB21A
:1023B0007B681A7019E097F83630412B0DD17B6895
:1023C0001B781A4697F82F301340002B14BF0123B7
:1023D0000023DAB27B681A7007E097F83630002BDA
:1023E00003D17B6897F82F201A70002387F83630C6
:1023F0009AE1FB6B1B78532B14D0FB6B1B78522B91
:1024000010D0FB6B1B78422B0CD0FB6B1B782B2B5B
:1024100008D0FB6B1B782D2B04D0FB6B1B783D2B5E
:1024200040F07D81FB6B1B7887F82E30FB6B01330E
:10243000FB63FB6B1B7887F83730FB6B0133FB6367
:10244000FB6B1B889BB2BB84002387F8263007F107
:10245000200207F124031049184607F0BDFF97F842
:102460002E30532B2ED17B681B78002B2AD097F867
:102470003730582B06D13B6A094ADB00134401224E
:102480009A711BE097F83730592B0FD13B6A064AF7
:102490000121D15412E000BFA0B30008D0080020F1
:1024A000DC10002054110020D810002097F837309D
:1024B0004D2B03D13B6AA44A0121D1547B680122F0
:1024C0001A7029E197F82E30522B23D17B681B78A4
:1024D000002B1FD097F83730582B06D13B6A9B4A08
:1024E000DB00134400229A7110E097F83730592B23
:1024F00004D13B6A964A0021D15407E097F837305F
:102500004D2B03D13B6A904A0021D1547B680022B5
:102510001A7001E197F82E30422B21D197F837300D
:10252000582B08D13B6A7A681178884ADB0013443B
:102530000A469A71F0E097F83730592B05D13B6A7B
:102540007A681178824AD154E6E097F837304D2BFB
:1025500040F0E2803B6A7A6811787B4AD154DBE034
:1025600097F82E302B2B08D097F82E302D2B04D037
:1025700097F82E303D2B40F0CF807B681B78002BE6
:1025800000F0CA8097F82E303D2B39D1FB6B033316
:10259000FB6307F124030822F96B184607F008FFD4
:1025A000002387F82C30002387F8373024E097F891
:1025B000373007F14002134413F81C3C7C2B16D132
:1025C00097F8373007F140021344002203F81C2C1F
:1025D00097F837300133FA6B1344FB6307F11402A9
:1025E00007F124035B49184607F0F6FE08E097F868
:1025F0003730013387F8373097F83730072BD6D983
:102600003B6A0E2B4DD801A252F823F04926000850
:102610004F260008552600085B26000861260008A2
:10262000672600086D260008732600087926000832
:102630007F260008852600088B26000891260008C2
:10264000972600089D260008434B3B632AE0434B36
:102650003B6327E0424B3B6324E0424B3B6321E07A
:10266000414B3B631EE0414B3B631BE0404B3B63F4
:1026700018E0404B3B6315E03F4B3B6312E03F4BA0
:102680003B630FE03E4B3B630CE03E4B3B6309E09A
:102690003D4B3B6306E03D4B3B6303E03C4B3B6300
:1026A00000E000BF97F82E302B2B0BD13B6B1B6843
:1026B0004FF07E511846FEF777F903461A463B6BFA
:1026C0001A6029E097F82E302D2B1AD13B6B1B682E
:1026D0004FF000011846FEF72BFC0346002B0BD0F1
:1026E0003B6B1B684FF07E511846FEF75BF90346C3
:1026F0001A463B6B1A600FE03B6B4FF000021A600A
:102700000AE097F82E303D2B06D17B691846FEF77C
:10271000FFF902463B6B1A607B681B780FE0FB6B8E
:102720000133FB630023BB63FA6BBB6B1A44F9688C
:10273000BB680B449A42FFF42DAD7B681B781846AA
:102740004037BD4680BD00BF54110020DC10002082
:10275000D8100020A0B3000894090020140A00201B
:10276000940A0020140B0020940B0020140C00206D
:10277000940C0020140D0020940D0020140E002055
:10278000940E0020140F0020940F0020141000203D
:102790009410002080B58CB000AFA74B1B7883F05D
:1027A0000103DBB2002B40F07181A44B1B78002B9E
:1027B00040F06E81FFF768F84FF480720121A04865
:1027C000FFF714F89F4BFB6200237B61FB6A1B88B9
:1027D0009BB23B823B8AFF2B03D9974B00221A7096
:1027E00057E13B8A1846FFF76FF8FB6A0233FB623A
:1027F000FB6A1B889BB27B827B8A0F2B03D98E4B93
:1028000000221A7045E1FB6A0233FB6200233B623F
:102810001AE0FB6A1B889BB23B823B8A142B03D9CC
:10282000854B00221A7034E1FB6A0233FB623B8A5B
:102830001946F86AFFF7CCF83B8A1A46FB6A13443C
:10284000FB623B6A01333B627B8A1A463B6A9342D6
:10285000DFDBFB6ABB62FFE0BB6A1B78432B40F007
:10286000E980BB6A0133BB62BB6A1B889BB23B83B6
:1028700007F10C0207F118037349184607F0ACFD85
:10288000BB6A0333BB623B1D0722B96A184607F0D7
:102890008FFD002387F827301CE097F8273007F1D9
:1028A0003002134413F82C3C7C2B0ED197F82730C0
:1028B00007F130021344002203F82C2C07F1140214
:1028C0003B1D6149184607F087FD97F82730013313
:1028D00087F8273097F82730072BDED9FB680E2BB7
:1028E00000F2B68001A252F823F000BF29290008A7
:1028F000392900084B2900085D2900086F290008C4
:102900008129000893290008A5290008B729000893
:10291000C9290008DB290008ED290008FF29000863
:10292000112A0008232A00087B691846FEF7F0F8F0
:102930000246464B5A608CE07B691846FEF7E8F881
:102940000246424BC3F8842083E07B691846FEF7B9
:10295000DFF802463D4BC3F804217AE07B69184654
:10296000FEF7D6F80246394BC3F8842171E07B6943
:102970001846FEF7CDF80246344BC3F8042268E04F
:102980007B691846FEF7C4F80246304BC3F8842230
:102990005FE07B691846FEF7BBF802462B4BC3F895
:1029A000042356E07B691846FEF7B2F80246274B2F
:1029B000C3F884234DE07B691846FEF7A9F8024668
:1029C000224BC3F8042444E07B691846FEF7A0F8C4
:1029D00002461E4BC3F884243BE07B691846FEF791
:1029E00097F80246194BC3F8042532E07B69184674
:1029F000FEF78EF80246154BC3F8842529E07B6963
:102A00001846FEF785F80246104BC3F8042620E06E
:102A10007B691846FEF77CF802460C4BC3F8842607
:102A200017E07B691846FEF773F80246074BC3F8B8
:102A300004270EE000BF0CE05C0800201407002013
:102A40005C0700205F070020A0B300089009002069
:102A500000BFBB6A0133BB62BB6A1B78282B7FF4C3
:102A6000FBAEFB6A1B889BB23B82FB6A0233FB62B4
:102A70003B8A1A46084B1A60BB6A084A9B1A9AB2EC
:102A8000074B1A80074B01221A7002E000BF00E0DA
:102A900000BF3037BD4680BD600800205C070020C5
:102AA000740800201507002080B5C4B000AF4C4B5F
:102AB0001B881A464B4B1344C7F80C310023A7F868
:102AC0000A310023A7F808310023A7F806310023B4
:102AD00087F80531012387F8043197F80531013370
:102AE0004FF4807219463F48FEF780FE58E03E4A98
:102AF000D7F80C31934213D397F80531013387F897
:102B00000531384BC7F80C3197F8053101334FF4D4
:102B1000807219463348FEF769FE0023A7F8083192
:102B2000B7F80831D7F80C2113441B780D2B1ED1B0
:102B3000012387F80431B7F80A313A1D0021D15436
:102B4000B7F80A1107F582723B1D1846FFF7B6FA6F
:102B50000023A7F80A31B7F808310133D7F80C2160
:102B60001344C7F80C310023A7F8083113E0B7F875
:102B70000831D7F80C211A44B7F80A3111783A1DF8
:102B8000D154B7F80A310133A7F80A31B7F8083140
:102B90000133A7F80831B7F806310133A7F8063139
:102BA000B7F80621114B1B689A42A0D3B7F80A3137
:102BB000002B0FD0012387F80431B7F80A313A1DF2
:102BC0000021D154B7F80A1107F582723B1D18464F
:102BD000FFF774FA00BF07F58877BD4680BD00BFD8
:102BE000740800205C0700205C08002060080020BA
:102BF00080B500AF364B1B78002B0DD1354B1B78C1
:102C000083F00103DBB2002B06D1334B1B7883F03A
:102C10000103DBB2002B50D000224FF480612F481B
:102C200002F0C2FA00224FF400712C4802F0BCFA04
:102C3000012280212A4802F0B7FA012240212848C7
:102C400002F0B2FA01222021254802F0ADFA012259
:102C50001021234802F0A8FA01220821204802F09E
:102C6000A3FA1B4B1B7883F00103DBB2002B0DD0C2
:102C7000184B1B78002B09D0174B1B7883F00103EE
:102C8000DBB2002B02D0FFF785FD16E0104B1B785E
:102C900083F00103DBB2002B18D00E4B1B7883F0BE
:102CA0000103DBB2002B11D00B4B1B7883F0010327
:102CB000DBB2002B0AD0FEF759FBFFF78BF8FFF7CA
:102CC000B9F9FFF7F1FEFFF715F900E000BF80BD8D
:102CD000140700205C0800201507002000080140B0
:102CE000000C014080B500AF314B1B7883F001032D
:102CF000DBB2002B43D02F4B1B78002B25D02E4B63
:102D00001B78002B21D001F0C5F802462B4B1B6825
:102D1000D31AB3F57A7F09D94FF40051284802F04D
:102D20005BFA01F0B7F80246244B1A60254B1B787A
:102D3000012B06D8234B1B780133DAB2214B1A70D2
:102D400033E0214B01221A702FE01E4B00221A7033
:102D50001D4B00221A7001F09DF80246174B1B68AC
:102D6000D31AB3F5967F20D94FF40051144802F0DE
:102D700033FA01F08FF80246104B1A6015E00C4B45
:102D80001B78002B11D00F4B00221A700E4B002223
:102D90001A7000224FF40051094802F005FA01F0C0
:102DA00079F80246054B1A60FFE700BF80BD00BFFF
:102DB000140700205C080020150700200C120020DA
:102DC0000010014078110020A806002080B582B0D4
:102DD00000AF022201211E48FEF708FD1C4B7B605C
:102DE0007B681B784C2B0BD17B6801337B607B6845
:102DF0001B783B703B46174A1749184607F0ECFA18
:102E0000144B1B685B00134A136019E001F042F891
:102E10000246124B1B68D31AB3F5967F0ED94FF4B6
:102E200000510F4802F0D8F901F034F802460B4B7C
:102E30001A60084B1B68013B064A136000F068FAF1
:102E4000044B1B68002BE1DC00BF0837BD4680BD8A
:102E50005C070020C4110020A4B300080C1200205D
:102E60000010014080B500AF1C4B00221A6000F03A
:102E7000B9FF00F03BF81A4B00221A7000F0C2F9BB
:102E800000F094F800F06AF906F0D0FD00F09CF92B
:102E900000F04AF900F08AF80A221249124801F0BB
:102EA000FDF8FEF75BFB00F033FAFEF771F800F077
:102EB0002FFAFFF78BFF00F02BFA094B1B78002B42
:102EC00001D000F075FB00F0BDFA00F021FAFFF729
:102ED0008FFE00F01DFAFFF705FFEEE70C12002051
:102EE00010120020B01100207C11002080B594B099
:102EF00000AF07F1280328220021184607F063FAE3
:102F000007F1140300221A605A609A60DA601A61AD
:102F10003B1D00221A605A609A60DA600923BB6286
:102F20004FF48033FB6200233B630123BB63012327
:102F30003B6402237B644FF48033BB644FF48023F3
:102F4000FB6407F12803184603F088F80346002BBA
:102F500001D000F05FFD0F237B610223BB610023E2
:102F6000FB614FF480633B6200237B6207F1140333
:102F70000121184603F0F2FA0346002B01D000F0BD
:102F800049FD12237B604FF48043FB604FF48003C4
:102F90003B613B1D184603F04DFC0346002B01D05E
:102FA00000F038FD00BF5037BD4680BD80B584B00D
:102FB00000AF3B1D00221A605A609A60584B594A74
:102FC0001A60574B4FF480729A60554B01221A7366
:102FD000534B00221A75524B4FF46022DA61504B6A
:102FE00000225A604E4B0A221A614D4800F07EFFC3
:102FF0000346002B01D000F00DFD00237B60012370
:10300000BB600223FB603B1D1946454801F00CFAEA
:103010000346002B01D000F0FDFC01237B6002235E
:10302000BB603B1D19463E4801F0FEF90346002BEC
:1030300001D000F0EFFC02237B600323BB603B1D4B
:103040001946374801F0F0F90346002B01D000F093
:10305000E1FC03237B600423BB603B1D1946304821
:1030600001F0E2F90346002B01D000F0D3FC042369
:103070007B600523BB603B1D1946294801F0D4F94C
:103080000346002B01D000F0C5FC05237B6006231E
:10309000BB603B1D1946224801F0C6F90346002BD0
:1030A00001D000F0B7FC06237B600723BB603B1D0B
:1030B00019461B4801F0B8F90346002B01D000F077
:1030C000A9FC07237B600823BB603B1D19461448FD
:1030D00001F0AAF90346002B01D000F09BFC11235C
:1030E0007B600923BB603B1D19460D4801F09CF92C
:1030F0000346002B01D000F08DFC10237B600A23D7
:10310000BB603B1D1946064801F08EF90346002BB3
:1031100001D000F07FFC00BF1037BD4680BD00BF6E
:103120007C1100200024014080B500AF094B0A4A01
:103130001A60084B05225A60064B4FF4FA629A60F7
:10314000044802F061F80346002B01D000F062FC55
:1031500000BF80BD6C1100200030004080B500AF82
:10316000174B184A1A60164B4FF482725A60144B70
:1031700000229A60124B0022DA60114B00221A6181
:103180000F4B00225A610E4B4FF400729A610C4BA8
:103190001822DA610A4B00221A62094B00225A6295
:1031A000074B00229A62064B0A22DA62044803F0B7
:1031B000F7FB0346002B01D000F02CFC00BF80BDC4
:1031C000780800200038004080B582B000AF0C4B7A
:1031D0005B690B4A43F001035361094B5B6903F0E0
:1031E00001037B607B68002200210B2001F0E7FBDC
:1031F0000B2001F000FC00BF0837BD4680BD00BFBA
:103200000010024080B588B000AF07F11003002223
:103210001A605A609A60DA60394B9B69384A43F009
:1032200010039361364B9B6903F01003FB60FB684E
:10323000334B9B69324A43F020039361304B9B69C7
:1032400003F02003BB60BB682D4B9B692C4A43F005
:10325000040393612A4B9B6903F004037B607B6842
:10326000274B9B69264A43F008039361244B9B69D3
:1032700003F008033B603B6800224FF400512148F3
:1032800001F092FF002241F2F8011F4801F08CFF8B
:1032900000224FF4C0611D4801F086FF4FF4005337
:1032A0003B6101237B610023BB610323FB6107F1C9
:1032B00010031946134801F01DFE41F2F8033B616B
:1032C00001237B610123BB610323FB6107F1100331
:1032D00019460D4801F00EFE4FF4C0633B61012317
:1032E0007B610123BB610323FB6107F110031946D6
:1032F000064801F0FFFD00BF2037BD4680BD00BF7E
:103300000010024000100140000C01400008014084
:1033100080B500AF024801F0B0FF00BF80BD00BF24
:103320006C11002080B584B000AF78600B46FB7054
:10333000FB78642B01D9002332E07B68002B01D19C
:1033400000232DE07B681B78002B01D1002327E0B0
:10335000FB781A467968144807F02AF8FB78002BA6
:1033600003D0FB78104AD36005E07868FCF7F0FEE4
:1033700002460D4BDA600C4BDB689BB219460A48DB
:1033800006F012FC0346FB73074B0022DA60FB7B5E
:10339000012B02D0FB7B022B01D1002300E0012393
:1033A00018461037BD4680BD6408002080B584B043
:1033B00000AF78607B68D3F8B832002B37D07B68D9
:1033C000D3F8B832FB60FB68D3F80C32002B30D056
:1033D0001A4B5B6E002B03D1194B1B78002B04D0CA
:1033E000FB680022C3F80C2224E0FB68D3F8043207
:1033F0001B78002B07D1114B00225A66FB68002274
:10340000C3F80C2216E0FB68D3F80412FB68D3F86B
:103410000C321A46094806F0CBFFFB68D3F80C3291
:10342000064A5366FB680022C3F80C2202E000BF84
:1034300000E000BF1037BD4680BD00BFAC060020D5
:10344000A906002080B500AF0F4B5B6E002B18D093
:103450000E4B01221A700C4B1B78562B03D00A4BD3
:103460001B78762B04D105210948FFF75BFF02E0AA
:103470000548FDF7EDFF044B00225A66034B00227E
:103480001A7000BF80BD00BFAC060020A906002056
:10349000A8B3000880B400AF00BFBD4680BC704731
:1034A00080B400AF034B01221A7000BFBD4680BC40
:1034B000704700BF1012002080B500AFFFF728FF53
:1034C000384B5B6A4FF000011846FDF731FD0346AB
:1034D000002B55D0334B1A69324B5B6A19461046A4
:1034E000FDF71EFC034630491846FDF765FB034611
:1034F0001A462C4BDA622B4B5A692A4B5B6A1946E7
:103500001046FDF70DFC034627491846FDF754FB0E
:1035100003461A46234B1A63224B9A69214B5B6A76
:1035200019461046FDF7FCFB03461F491846FDF7F8
:1035300043FB03461A461B4B5A631A4BDA69194B75
:103540005B6A19461046FDF7EBFB03461649184621
:10355000FDF732FB03461A46124B9A63114B1A6A67
:10356000104B5B6A19461046FDF7DAFB03460E491D
:103570001846FDF721FB03461A460A4BDA630EE0B4
:10358000084B094ADA62074B074A1A63054B064A99
:103590005A63044B044A9A63024B034ADA6300BF3E
:1035A00080BD00BF1C0700200000C84200000000D2
:1035B00090B583B000AFBA4B7B60BA4B5B8A9BB2CD
:1035C0001846FDF7A1FA034679681846FDF7F4FAA4
:1035D0000346B5491846FDF7A3FB03463B60386830
:1035E000FCF722FF03460C461A462346A2A1D1E966
:1035F0000001FCF7B9FD03460C4618462146A0A37E
:10360000D3E90023FDF792F803460C4618462146FD
:103610004FF00002A54BFCF7A9FD03460C461846E7
:103620002146FDF76BF90246A14B9A629D4B1B8820
:103630009BB21846FCF7E6FE93A3D3E90023FDF7FF
:1036400075F803460C4618462146FDF757F9034620
:1036500098491846FDF7B0FA03461A46944B5A604B
:10366000904B5B889BB21846FCF7CCFE86A3D3E94F
:103670000023FDF75BF803460C4618462146FDF78C
:103680003DF903468B491846FDF796FA03461A465C
:10369000874BDA60834B1B889BB21846FCF7B2FE5F
:1036A00079A3D3E90023FDF741F803460C461846F9
:1036B0002146FDF723F9034679681846FDF77CFAA1
:1036C00003467D491846FDF777FA03461A46784BBC
:1036D0001A60744B5B889BB21846FCF793FE6AA392
:1036E000D3E90023FDF722F803460C46184621468D
:1036F000FDF704F9034679681846FDF75DFA0346BD
:103700006D491846FDF758FA03461A46684B9A6009
:10371000644B9B889BB21846FDF7F6F9034679681F
:103720001846FDF749FA03465F491846FDF7F8FACF
:1037300003463B603868FCF777FE55A3D3E90023C6
:10374000FCF7CAFE03460C461846214652A3D3E9AD
:103750000023FCF7EBFF03460C46184621464FF0CA
:103760000002564BFCF7B8FE03460C4618462146AD
:10377000FDF7C4F802464E4B1A614A4BDB889BB2F8
:103780001846FDF7C1F9034679681846FDF714FAA3
:10379000034645491846FDF7C3FA03463B603868BF
:1037A000FCF742FE3AA3D3E90023FCF795FE03465B
:1037B0000C461846214638A3D3E90023FCF7B6FF90
:1037C00003460C46184621464FF000023B4BFCF7DF
:1037D00083FE03460C4618462146FDF78FF8024645
:1037E000334B5A612F4B1B899BB21846FDF78CF95E
:1037F000034679681846FDF7DFF903462A4918465B
:10380000FDF78EFA03463B603868FCF70DFE20A3F7
:10381000D3E90023FCF760FE03460C461846214618
:103820001DA3D3E90023FCF781FF03460C4618468D
:1038300021464FF00002214BFCF74EFE03460C469A
:1038400018462146FDF75AF80246194B9A61154B66
:103850005B899BB21846FDF757F90346796818460D
:10386000FDF7AAF9034610491846FDF759FA034631
:103870003B6025E0AFF30080E17A14AE47E1F63F0C
:1038800033333333333311400000000000FEAF40C8
:103890003D0AD7A3707D3840EC51B81E85EB03403C
:1038A00033335340B011002000F07F450000394011
:1038B0001C0700200000C84200007A4400408F40EE
:1038C0003868FCF7B1FD4AA3D3E90023FCF704FEF6
:1038D00003460C461846214647A3D3E90023FCF7CC
:1038E00025FF03460C46184621464FF00002444B84
:1038F000FCF7F2FD03460C4618462146FCF7FEFF96
:103900000246404BDA61404B9B899BB21846FDF75B
:10391000FBF8034679681846FDF74EF903463B4924
:103920001846FDF7FDF903463B603868FCF77CFD5F
:103930002FA3D3E90023FCF7CFFD03460C4618461E
:1039400021462DA3D3E90023FCF7F0FE03460C46E5
:10395000184621464FF00002294BFCF7BDFD0346F7
:103960000C4618462146FCF7C9FF0246254B1A6251
:10397000254BDB899BB21846FDF7C6F803467968EC
:103980001846FDF719F9034620491846FDF7C8F90E
:1039900003463B603868FCF747FD15A3D3E90023D5
:1039A000FCF79AFD03460C461846214612A3D3E9BC
:1039B0000023FCF7BBFE03460C46184621464FF099
:1039C00000020F4BFCF788FD03460C4618462146C3
:1039D000FCF794FF02460B4B5A62FFF76DFD0C4B50
:1039E00000221A7000BF0C37BD4690BDAFF30080B7
:1039F0003D0AD7A3707D3840EC51B81E85EB0340DB
:103A000000408F401C070020B011002000F07F45CF
:103A10001012002080B400AF00BFBD4680BC7047CC
:103A200080B485B000AF154B9B69144A43F0010385
:103A30009361124B9B6903F00103BB60BB680F4BA2
:103A4000DB690E4A43F08053D3610C4BDB6903F012
:103A500080537B607B680A4B5B68FB60FB6823F0EC
:103A6000E063FB60FB6843F00073FB60044AFB68A3
:103A7000536000BF1437BD4680BC70470010024041
:103A80000000014080B588B000AF786007F11003F6
:103A900000221A605A609A60DA607B681B682D4ABF
:103AA000934252D12C4B9B692B4A43F40073936190
:103AB000294B9B6903F40073FB60FB68264B9B69F1
:103AC000254A43F004039361234B9B6903F00403ED
:103AD000BB60BB68FF233B6103237B6107F11003DD
:103AE00019461E4801F006FA1D4B1E4A1A601C4B6F
:103AF00000225A601A4B00229A60194B8022DA6029
:103B0000174B4FF480721A61154B4FF480625A6163
:103B1000134B20229A61124B4FF48052DA61104805
:103B200000F084FF0346002B01D0FFF773FF7B6892
:103B30000B4A1A620A4A7B68536200220021122053
:103B400000F03DFF122000F056FF00BF2037BD46B9
:103B500080BD00BF00240140001002400008014069
:103B6000C81100200800024080B588B000AF78601E
:103B700007F1100300221A605A609A60DA607B68CD
:103B80001B68204A934239D11F4BDB691E4A43F41C
:103B90008043D3611C4BDB6903F48043FB60FB680B
:103BA000194B9B69184A43F008039361164B9B69B4
:103BB00003F00803BB60BB684FF420433B61022362
:103BC0007B610323FB6107F1100319460F4801F0E5
:103BD00091F94FF480433B6100237B610123BB617A
:103BE00007F110031946094801F084F90022002169
:103BF000242000F0E4FE242000F0FDFE00BF20376A
:103C0000BD4680BD0038004000100240000C01405D
:103C100080B400AF00BFBD4680BC704780B400AF29
:103C2000FEE780B400AFFEE780B400AFFEE780B4EB
:103C300000AFFEE780B400AF00BFBD4680BC704758
:103C400080B400AF00BFBD4680BC704780B400AFF9
:103C500000BFBD4680BC704780B500AF00F008F9DA
:103C6000FFF718FC00BF80BD80B500AF034801F02E
:103C70000DF8FFF715FC00BF80BD00BFC811002084
:103C800080B500AF024800F0E7FA00BF80BD00BF7A
:103C90007C11002080B500AF024801F004FC00BF99
:103CA00080BD00BFAC1E002080B500AF034801F00E
:103CB000FAFB0348FFF77AFB00BF80BDAC1E002073
:103CC0001812002080B500AF024803F06DF800BF65
:103CD00080BD00BF7808002080B584B000AF786058
:103CE000114B1B68002B02D10F4B104A1A600E4B70
:103CF0001B68FB600C4B1A687B6813446A4693424E
:103D000007D906F02BFB02460C2313604FF0FF335C
:103D100006E0054B1A687B681344034A1360FB688E
:103D200018461037BD4680BD6803002020210020C2
:103D300080B400AF154B1B68144A43F001031360B5
:103D4000124B5A681149124B13404B600F4B1B68C2
:103D50000E4A23F0847323F4803313600B4B1B68EB
:103D60000A4A23F480231360084B5B68074A23F454
:103D7000FE035360054B4FF41F029A60054B4FF052
:103D800000629A6000BFBD4680BC704700100240D0
:103D90000000FFF800ED00E0002103E00B4B5B5852
:103DA000435004310A480B4B42189A42F6D30A4A50
:103DB00002E0002342F8043B084B9A42F9D3FFF794
:103DC000B7FF06F0D1FAFFF74DF87047ACB5000821
:103DD000000000204C0300204C0300201C21002088
:103DE000FEE7000080B500AF084B1B68074A43F0B0
:103DF00010031360032000F0D7FD002000F008F846
:103E0000FFF70EFE0023184680BD00BF00200240D1
:103E100080B582B000AF7860124B1A68124B1B78E5
:103E200019464FF47A73B3FBF1F3B2FBF3F3184680
:103E300000F0EFFD0346002B01D001230EE07B686C
:103E40000F2B0AD8002279684FF0FF3000F0B7FD41
:103E5000064A7B681360002300E0012318460837F8
:103E6000BD4680BD000000200800002004000020A6
:103E700080B400AF054B1B781A46054B1B681344F2
:103E8000034A136000BFBD4680BC70470800002095
:103E90001412002080B400AF024B1B681846BD46C8
:103EA00080BC70471412002080B584B000AF7860E9
:103EB000FFF7F0FFB8607B68FB60FB68B3F1FF3F82
:103EC00005D0094B1B781A46FB681344FB6000BF02
:103ED000FFF7E0FF0246BB68D31AFA689A42F7D8A8
:103EE00000BF1037BD4680BD0800002080B586B0F9
:103EF00000AF78600023FB7500233B610023BB60AB
:103F00000023FB607B68002B01D10123BEE07B68AE
:103F10009B68002B7B689B6A002B09D17B68002281
:103F2000DA627B68002283F824207868FFF7AAFD14
:103F3000786800F0C3FB0346FB757B689B6A03F05F
:103F40001003002B40F09980FB7D002B40F0958002
:103F50007B689B6A23F4885323F0020343F0020238
:103F60007B689A627B685A687B68DB691A437B6866
:103F70001B7B5B001343BA681343BB607B689B6881
:103F8000B3F5807F03D07B689B68012B02D14FF48F
:103F9000807300E000233A6913433B617B681B7D1B
:103FA000012B19D17B681B7B002B09D17B689B6996
:103FB000013B5A033B69134343F400633B610BE04D
:103FC0007B689B6A43F020027B689A627B68DB6AAD
:103FD00043F001027B68DA627B681B685B6823F44C
:103FE00069417B681B683A690A435A607B681B68B1
:103FF0009A68284B13407A681268B9680B4393603B
:104000007B689B68B3F5807F03D07B689B68012B3E
:1040100004D17B681B69013B1B05FB607B681B6847
:10402000DB6A23F470017B681B68FA680A43DA6272
:104030007B681B689A68184B1340BA689A420BD188
:104040007B680022DA627B689B6A23F0030343F0FB
:1040500001027B689A6218E07B689B6A23F0120376
:1040600043F010027B689A627B68DB6A43F00102CE
:104070007B68DA620123FB7507E07B689B6A43F08B
:1040800010027B689A620123FB75FB7D1846183786
:10409000BD4680BDFDF7E1FFFE0E1FFF80B586B077
:1040A00000AFF860B9607A600023FB75FB681B689D
:1040B000644A934204D0FB681B68634A934206D16A
:1040C000604B5B6803F47023002B40F0B380FB6807
:1040D00093F82430012B01D10223AEE0FB680122CA
:1040E00083F82420F86800F097FA0346FB75FB7DFF
:1040F000002B40F09A80FB689B6A23F4706323F0E6
:10410000010343F48072FB689A62FB681B684E4AA5
:10411000934205D14B4B5B6803F47023002B15D100
:10412000FB689B6A23F48012FB689A62FB681B6839
:104130005B6803F48063002B26D0FB689B6A23F442
:10414000405343F48052FB689A621DE0FB689B6A0F
:1041500043F48012FB689A62FB681B68394A9342F9
:1041600004D0FB681B68384A93420DD1354B5B681D
:1041700003F48063002B07D0FB689B6A23F4405351
:1041800043F48052FB689A62FB689B6A03F4805395
:10419000002B06D0FB68DB6A23F00602FB68DA62BC
:1041A00002E0FB680022DA62FB68002283F8242028
:1041B000FB681B6A254A9A62FB681B6A244ADA621A
:1041C000FB681B6A234A1A63FB681B686FF00202D4
:1041D0001A60FB681B689A68FB681B6842F480726F
:1041E0009A60FB68186AFB681B684C331946BA680A
:1041F0007B6800F075FCFB681B689B6803F4602318
:10420000B3F5602F08D1FB681B689A68FB681B68D0
:1042100042F4A0029A600FE0FB681B689A68FB6892
:104220001B6842F480129A6006E0FB68002283F863
:10423000242001E00123FB75FB7D18461837BD469D
:1042400080BD00BF00240140002801403147000824
:10425000AD470008C947000880B582B000AF78605C
:104260007B681B685B6803F02003202B40D17B68D0
:104270001B681B6803F00203022B39D17B689B6A21
:1042800003F01003002B05D17B689B6A43F4007296
:104290007B689A627B681B689B6803F46023B3F5B4
:1042A000602F1DD17B681B7B002B19D17B681B689D
:1042B0005A687B681B6822F020025A607B689B6A00
:1042C00023F480727B689A627B689B6A03F4805354
:1042D000002B05D17B689B6A43F001027B689A62E0
:1042E000786800F07CF87B681B686FF012021A6037
:1042F0007B681B685B6803F08003802B4FD17B6871
:104300001B681B6803F00403042B48D17B689B6A7D
:1043100003F01003002B05D17B689B6A43F4005225
:104320007B689A627B681B689B6803F4E043B3F583
:10433000E04F12D07B681B685B6803F48063002B3E
:1043400025D17B681B689B6803F46023B3F5602F5D
:104350001DD17B681B7B002B19D17B681B685A68B9
:104360007B681B6822F080025A607B689B6A23F49A
:1043700080527B689A627B689B6A03F48073002B8F
:1043800005D17B689B6A43F001027B689A6278687A
:1043900000F034FA7B681B686FF00C021A607B68CF
:1043A0001B685B6803F04003402B14D17B681B68DB
:1043B0001B6803F00103012B0DD17B689B6A43F45A
:1043C00080327B689A62786800F01BF87B681B6813
:1043D0006FF001021A6000BF0837BD4680BD80B48F
:1043E00083B000AF786000BF0C37BD4680BC70471B
:1043F00080B483B000AF786000BF0C37BD4680BC8E
:10440000704780B483B000AF786000BF0C37BD4602
:1044100080BC704780B483B000AF786000BF0C37B9
:10442000BD4680BC7047000080B485B000AF7860A6
:1044300039600023FB730023BB607B6893F8243052
:10444000012B01D10223DCE07B68012283F82420C8
:104450003B685B68062B1CD87B681B68596B3B6804
:104460005A6813469B001344053B1F2202FA03F3CC
:10447000DB4319403B6818683B685A6813469B0049
:104480001344053B00FA03F27B681B680A435A6336
:104490003CE03B685B680C2B1CD87B681B68196B85
:1044A0003B685A6813469B001344233B1F2202FAC1
:1044B00003F3DB4319403B6818683B685A681346AE
:1044C0009B001344233B00FA03F27B681B680A43FA
:1044D0001A631BE07B681B68D96A3B685A681346FD
:1044E0009B001344413B1F2202FA03F3DB431940B4
:1044F0003B6818683B685A6813469B001344413B6D
:1045000000FA03F27B681B680A43DA623B681B68A7
:10451000092B1CD97B681B68D9683B681A6813464D
:104520005B0013441E3B072202FA03F3DB431940EE
:104530003B6898683B681A6813465B0013441E3B4F
:1045400000FA03F27B681B680A43DA6019E07B68B3
:104550001B6819693B681A6813465B0013440722FD
:1045600002FA03F3DB4319403B6898683B681A681A
:1045700013465B00134400FA03F27B681B680A438E
:104580001A613B681B68102B03D03B681B68112B1A
:1045900032D17B681B681D4A934225D17B681B681A
:1045A0009B6803F40003002B26D17B681B689A6884
:1045B0007B681B6842F400029A603B681B68102B02
:1045C0001AD1134B1B68134AA2FB03239A0C134600
:1045D0009B0013445B00BB6002E0BB68013BBB6017
:1045E000BB68002BF9D107E07B689B6A43F020028F
:1045F0007B689A620123FB737B68002283F8242086
:10460000FB7B18461437BD4680BC70470024014030
:104610000000002083DE1B4380B584B000AF7860CB
:104620000023FB600023BB607B681B689B6803F072
:104630000103012B39D07B681B689A687B681B6873
:1046400042F001029A601B4B1B681B4AA2FB03232A
:104650009B0CBB6002E0BB68013BBB60BB68002BEE
:10466000F9D1FFF717FCF86018E0FFF713FC0246DA
:10467000FB68D31A022B11D97B689B6A43F01002A6
:104680007B689A627B68DB6A43F001027B68DA62CE
:104690007B68002283F82420012307E07B681B68E5
:1046A0009B6803F00103012BDFD10023184610376C
:1046B000BD4680BD0000002083DE1B4380B584B072
:1046C00000AF78600023FB607B681B689B6803F089
:1046D0000103012B27D17B681B689A687B681B68E4
:1046E00022F001029A60FFF7D5FBF86014E0FFF7B3
:1046F000D1FB0246FB68D31A022B0DD97B689B6A5B
:1047000043F010027B689A627B68DB6A43F0010227
:104710007B68DA62012307E07B681B689B6803F013
:104720000103012BE3D0002318461037BD4680BD9E
:1047300080B584B000AF78607B685B6AFB60FB6823
:104740009B6A03F05003002B27D1FB689B6A43F45C
:104750000072FB689A62FB681B689B6803F4602325
:10476000B3F5602F15D1FB681B7B002B11D1FB68C3
:104770009B6A23F48072FB689A62FB689B6A03F46D
:104780008053002B05D1FB689B6A43F00102FB6854
:104790009A62F868FFF723FE04E0FB681B6A1B6B54
:1047A0007868984700BF1037BD4680BD80B584B09B
:1047B00000AF78607B685B6AFB60F868FFF718FE03
:1047C00000BF1037BD4680BD80B584B000AF7860B3
:1047D0007B685B6AFB60FB689B6A43F04002FB6896
:1047E0009A62FB68DB6A43F00402FB68DA62F868ED
:1047F000FFF710FE00BF1037BD4680BD80B483B008
:1048000000AF786000BF0C37BD4680BC7047000029
:1048100080B485B000AF78607B6803F00703FB606D
:104820000C4BDB68BB60BA684FF6FF031340BB60FC
:10483000FB681A02BB68134343F0BF6343F40033C1
:10484000BB60044ABB68D36000BF1437BD4680BC60
:10485000704700BF00ED00E080B400AF044BDB68A0
:104860001B0A03F007031846BD4680BC704700BF13
:1048700000ED00E080B483B000AF0346FB7197F910
:104880000730002B0BDBFB7903F01F02064997F979
:1048900007305B09012000FA02F241F8232000BF33
:1048A0000C37BD4680BC704700E100E080B483B0A7
:1048B00000AF03463960FB7197F90730002B0ADB24
:1048C0003B68DAB20C4997F907301201D2B20B44B7
:1048D00083F800230AE03B68DAB20849FB7903F069
:1048E0000F03043B1201D2B20B441A7600BF0C37FF
:1048F000BD4680BC704700BF00E100E000ED00E075
:1049000080B489B000AFF860B9607A60FB6803F0EA
:104910000703FB61FB69C3F10703042B28BF0423D2
:10492000BB61FB690433062B02D9FB69033B00E042
:1049300000237B614FF0FF32BB6902FA03F3DA43D5
:10494000BB681A407B699A404FF0FF317B6901FADE
:1049500003F3D9437B680B40134318462437BD4605
:1049600080BC704780B582B000AF78607B68013B47
:10497000B3F1807F01D301230FE00A4A7B68013B3A
:1049800053600F214FF0FF30FFF790FF054B0022DF
:104990009A60044B07221A60002318460837BD4668
:1049A00080BD00BF10E000E080B582B000AF78604D
:1049B0007868FFF72DFF00BF0837BD4680BD80B582
:1049C00086B000AF0346B9607A60FB7300237B6159
:1049D000FFF742FF78617A68B9687869FFF790FF5E
:1049E000024697F90F3011461846FFF75FFF00BFE8
:1049F0001837BD4680BD80B582B000AF0346FB715D
:104A000097F907301846FFF735FF00BF0837BD4656
:104A100080BD80B582B000AF78607868FFF7A2FFF4
:104A2000034618460837BD4680BD000080B485B0F7
:104A300000AF78600023FB607B68002B01D101236D
:104A400043E07B681B681A46224B1344224AA2FBB0
:104A500003231B099A007B681A647B681F4ADA6388
:104A60007B68022283F821207B681B681B68FB603F
:104A7000FB6823F47F5323F03003FB607B685A68A4
:104A80007B689B681A437B68DB681A437B681B69F9
:104A90001A437B685B691A437B689B691A437B688E
:104AA000DB691343FA681343FB607B681B68FA6891
:104AB0001A607B6800229A637B68012283F82120B8
:104AC0007B68002283F82020002318461437BD4657
:104AD00080BC7047F8FFFDBFCDCCCCCC00000240BD
:104AE00080B586B000AFF860B9607A603B600023A3
:104AF000FB75FB6893F82030012B01D102234AE0BB
:104B0000FB68012283F82020FB6893F82130012BF9
:104B10003AD1FB68022283F82120FB6800229A63C5
:104B2000FB681B681A68FB681B6822F001021A60A8
:104B30003B687A68B968F86800F0AEF9FB68DB6A30
:104B4000002B08D0FB681B681A68FB681B6842F0E2
:104B50000E021A600FE0FB681B681A68FB681B688E
:104B600022F004021A60FB681B681A68FB681B6865
:104B700042F00A021A60FB681B681A68FB681B682F
:104B800042F001021A6005E0FB68002283F8202051
:104B90000223FB75FB7D18461837BD4680BD00001B
:104BA00080B584B000AF78600023FB737B6893F816
:104BB0002130022B05D07B6804229A630123FB730A
:104BC00051E07B681B681A687B681B6822F00E0244
:104BD0001A607B681B681A687B681B6822F00102F8
:104BE0001A607B681B68224A934229D07B681B6845
:104BF000204A934222D07B681B681F4A93421AD0F6
:104C00007B681B681D4A934212D07B681B681C4A54
:104C100093420AD07B681B681A4A934202D14FF430
:104C200080130EE04FF080730BE04FF4803308E008
:104C30004FF4805305E04FF4807302E0102300E04E
:104C40000123114A53607B68012283F821207B688D
:104C5000002283F820207B685B6B002B03D07B68ED
:104C60005B6B78689847FB7B18461037BD4680BD64
:104C7000080002401C000240300002404400024094
:104C8000580002406C0002400000024080B584B031
:104C900000AF78607B68DB6B1B68FB607B681B6820
:104CA0001B68BB607B681B6C04229A40FB68134046
:104CB000002B4FD0BB6803F00403002B4AD07B6865
:104CC0001B681B6803F02003002B07D17B681B685F
:104CD0001A687B681B6822F004021A607B681B68F4
:104CE000664A934229D07B681B68654A934222D06A
:104CF0007B681B68634A93421AD07B681B68624AD0
:104D0000934212D07B681B68604A93420AD07B684A
:104D10001B685F4A934202D14FF480030EE04FF0CC
:104D200080630BE04FF4802308E04FF4804305E0FC
:104D30004FF4806302E0402300E00423554A5360AF
:104D40007B68DB6A002B00F094807B68DB6A786804
:104D500098478EE07B681B6C02229A40FB681340E8
:104D6000002B56D0BB6803F00203002B51D07B68A8
:104D70001B681B6803F02003002B0BD17B681B68AA
:104D80001A687B681B6822F00A021A607B6801229D
:104D900083F821207B681B68384A934229D07B68BE
:104DA0001B68374A934222D07B681B68354A93427E
:104DB0001AD07B681B68344A934212D07B681B6808
:104DC000324A93420AD07B681B68314A934202D12F
:104DD0004FF400130EE04FF000730BE04FF400337C
:104DE00008E04FF4005305E04FF4007302E0202385
:104DF00000E00223274A53607B68002283F82020CA
:104E00007B689B6A002B34D07B689B6A78689847E4
:104E10002FE07B681B6C08229A40FB681340002B34
:104E200028D0BB6803F00803002B23D07B681B68E5
:104E30001A687B681B6822F00E021A607B681A6C85
:104E40007B68DB6B012101FA02F25A607B68012268
:104E50009A637B68012283F821207B68002283F813
:104E600020207B681B6B002B04D07B681B6B786851
:104E7000984700BF00BF1037BD4680BD0800024004
:104E80001C00024030000240440002405800024032
:104E90006C0002400000024080B485B000AFF860B2
:104EA000B9607A603B60FB681A6CFB68DB6B0121C0
:104EB00001FA02F25A60FB681B683A685A60FB68A4
:104EC0005B68102B08D1FB681B687A689A60FB68E6
:104ED0001B68BA68DA6007E0FB681B68BA689A600A
:104EE000FB681B687A68DA6000BF1437BD4680BC77
:104EF0007047000080B48BB000AF78603960002349
:104F00007B6200233B6227E101227B6A02FA03F302
:104F1000FB613B681B68FA691340BB61BA69FB69B6
:104F20009A4240F016813B685B68122B34D0122BFA
:104F30000DD8022B2BD0022B04D8002B31D0012B03
:104F40001CD048E0032B43D0112B1BD043E0894AEF
:104F5000934226D0874A934206D8874A934220D06C
:104F6000864A93421DD036E0854A934219D0854A3D
:104F7000934216D0844A934213D02CE03B68DB68FE
:104F80003B6228E03B68DB6804333B6223E03B681C
:104F9000DB6808333B621EE03B68DB680C333B6236
:104FA00019E03B689B68002B02D104233B6212E0AE
:104FB0003B689B68012B05D108233B627B68FA693B
:104FC0001A6108E008233B627B68FA695A6102E0D3
:104FD00000233B6200BFBB69FF2B01D87B6801E067
:104FE0007B6804337B61BB69FF2B02D87B6A9B0023
:104FF00002E07B6A083B9B003B617B691A680F21DA
:105000003B6901FA03F3DB431A40396A3B6901FA51
:1050100003F31A437B691A603B685B6803F08053B3
:10502000002B00F09680594B9B69584A43F00103CE
:105030009361564B9B6903F00103BB60BB68544A04
:105040007B6A9B08023352F82330FB607B6A03F0D3
:1050500003039B000F2202FA03F3DB43FA681340B9
:10506000FB607B684B4A934213D07B684A4A934269
:105070000DD07B68494A934207D07B68484A9342E7
:1050800001D1032306E0042304E0022302E001230C
:1050900000E000237A6A02F0030292009340FA686B
:1050A0001343FB603A497B6A9B080233FA6841F874
:1050B00023203B685B6803F48033002B06D0394B18
:1050C0001A683849BB6913430B6006E0354B1A6810
:1050D000BB69DB43334913400B603B685B6803F4F7
:1050E0000033002B06D02F4B5A682E49BB6913435F
:1050F0004B6006E02B4B5A68BB69DB4329491340E0
:105100004B603B685B6803F48013002B06D0254B93
:105110009A682449BB6913438B6006E0214B9A6867
:10512000BB69DB431F4913408B603B685B6803F43A
:105130000013002B06D01B4BDA681A49BB691343D6
:10514000CB6006E0174BDA68BB69DB4315491340B7
:10515000CB607B6A01337B623B681A687B6A22FA08
:1051600003F3002B7FF4D0AE00BF2C37BD4680BCCC
:10517000704700BF00002110000011100000121045
:105180000000311000003210000022100010024018
:105190000000014000080140000C014000100140E7
:1051A000001401400004014080B483B000AF786077
:1051B0000B467B8013467B707B78002B03D07A886C
:1051C0007B681A6103E07B881A047B681A6100BF60
:1051D0000C37BD4680BC704780B483B000AF7860A8
:1051E0000B467B807B68DA687B881340002B03D0FA
:1051F0007A887B685A6102E07A887B681A6100BF0E
:105200000C37BD4680BC704780B584B000AF786075
:105210007B68002B01D101232BE07B681B684CF6D7
:10522000CC421A607B681B6845F255521A607B6855
:105230001B687A6852685A607B681B687A68926853
:105240009A60FEF727FEF86008E0FEF723FE0246AC
:10525000FB68D31A302B01D903230AE07B681B6853
:10526000DB68002BF1D17B681B684AF6AA221A6022
:10527000002318461037BD4680BD80B483B000AF10
:1052800078607B681B684AF6AA221A6000231846D9
:105290000C37BD4680BC7047F0B58BB006AF786068
:1052A0007B68002B01D10123D3E07B6893F829327E
:1052B000DBB2002B06D17B68002283F828227868B5
:1052C00004F0A6FD7B68032283F829227B681B6813
:1052D000184601F01DFF7B681B683B607E686D46C9
:1052E00006F110040FCC0FC523682B60331D0ECBC5
:1052F000386801F0E6FE0346002B05D07B680222E9
:1053000083F829220123A4E07B681B68002118464A
:1053100001F01AFF0023FB7335E0FB7B7A685B0129
:105320001344293301221A70FB7B7A685B01134412
:105330002833FA7B1A70FB7BFA7B91B27A685B01A7
:10534000134436330A461A80FB7B7A685B011344A8
:105350002B3300221A70FB7B7A685B0113443833CD
:1053600000221A60FB7B7A685B0113443C33002205
:105370001A60FB7B7A6802335B01134400221A60D7
:10538000FB7B0133FB73FA7B7B685B689A42C4D377
:105390000023FB7331E0FB7B7A685B01134403F26B
:1053A000291300221A70FB7B7A685B01134403F512
:1053B0009473FA7B1A70FB7B7A685B01134403F2E7
:1053C0002B1300221A70FB7B7A685B01134403F5F0
:1053D0009C7300221A60FB7B7A685B01134403F51F
:1053E0009E7300221A60FB7B7A680A335B011344C8
:1053F00000221A60FB7B0133FB73FA7B7B685B68DE
:105400009A42C8D37B681B683B607E686D4606F194
:1054100010040FCC0FC523682B60331D0ECB3868EA
:1054200001F09EFE0346002B05D07B68022283F824
:10543000292201230DE07B68002283F824207B6869
:10544000012283F829227B681B68184602F0DBFEE4
:10545000002318461437BD46F0BD80B582B000AFBA
:1054600078607B6893F82832012B01D1022316E083
:105470007B68012283F828220121786804F037FF35
:105480007B681B68184602F0B4FE7B681B681846F0
:1054900001F027FE7B68002283F8282200231846AB
:1054A0000837BD4680BD80B582B000AF78607B68AC
:1054B0001B68184602F0B1FE034603F40043B3F53F
:1054C000004F02D1786800F0F3FA7B681B68184639
:1054D00002F0A3FE034603F48063B3F5806F12D19C
:1054E0007B681B68B3F844309AB27B681B6822F46F
:1054F000806292B2A3F84420786804F006FD00218F
:10550000786800F0DEF87B681B68184602F085FEBC
:10551000034603F48043B3F5804F0BD17B681B68CF
:10552000B3F844309AB27B681B6822F4804292B28E
:10553000A3F844207B681B68184602F06EFE034601
:1055400003F40053B3F5005F0BD17B681B68B3F81D
:1055500044309AB27B681B6822F4005292B2A3F8DE
:1055600044207B681B68184602F057FE034603F48C
:105570008053B3F5805F26D17B681B68B3F8403059
:105580009AB27B681B6822F0040292B2A3F8402012
:105590007B681B68B3F840309AB27B681B6822F0C6
:1055A000080292B2A3F84020786804F0E7FC7B6818
:1055B0001B68B3F844309AB27B681B6822F48052AF
:1055C00092B2A3F844207B681B68184602F025FEBF
:1055D000034603F40063B3F5006F3DD17B681B689D
:1055E000B3F840309AB27B681B6842F0080292B26E
:1055F000A3F840207B681B68B3F844309AB27B68FC
:105600001B6822F4006292B2A3F844207B681B68F6
:10561000B3F840309AB27B681B6842F0040292B241
:10562000A3F840207B681B68184602F0F6FD03468D
:1056300003F48053B3F5805F0BD17B681B68B3F82C
:1056400044309AB27B681B6822F4805292B2A3F86D
:105650004420786804F078FC7B681B68184602F0E8
:10566000DCFD034603F40073B3F5007F0ED17B68C5
:105670001B68B3F844309AB27B681B6822F400724E
:1056800092B2A3F84420786804F031FC7B681B6870
:10569000184602F0C2FD034603F48073B3F5807F21
:1056A0000BD17B681B68B3F844309AB27B681B68E7
:1056B00022F4807292B2A3F8442000BF0837BD469E
:1056C00080BD80B582B000AF78600B46FB707B6810
:1056D00093F82832012B01D1022313E07B680122C9
:1056E00083F828227B68FA7883F824207B681B687B
:1056F000FA781146184602F069FD7B68002283F8AB
:105700002822002318460837BD4680BD80B584B0E6
:1057100000AF7860084611461A460346FB700B46F8
:105720003B801346BB700023FB7297F90330002BBC
:105730000BDAFB7803F007035B0128337A68134424
:10574000FB60FB6801225A700BE0FB7803F0070353
:105750005B0103F594737A681344FB60FB680022D5
:105760005A70FB7803F00703DAB2FB681A703A88C4
:10577000FB681A61FB68BA78DA70FB685B78002B0B
:1057800004D0FB681B789AB2FB68DA81BB78022BE5
:1057900002D1FB6800221A717B6893F82832012B32
:1057A00001D102230EE07B68012283F828227B6866
:1057B0001B68F968184601F0F7FC7B68002283F843
:1057C0002822FB7A18461037BD4680BD80B584B0CC
:1057D00000AF78600B46FB7097F90330002B0BDAB3
:1057E000FB7803F007035B0128337A681344FB60FE
:1057F000FB6801225A700BE0FB7803F007035B01A2
:1058000003F594737A681344FB60FB6800225A70B6
:10581000FB7803F00703DAB2FB681A707B6893F831
:105820002832012B01D102230EE07B68012283F88C
:1058300028227B681B68F968184601F0A3FF7B6883
:10584000002283F82822002318461037BD4680BD69
:1058500080B586B000AFF8607A603B600B46FB72A3
:10586000FB7A03F007035B0103F59473FA681344B2
:105870007B617B697A685A617B693A689A617B6966
:105880000022DA617B6900225A70FB7A03F0070379
:10589000DAB27B691A70FB7A03F00703002B06D19A
:1058A000FB681B687969184602F002F905E0FB689D
:1058B0001B687969184602F0FBF800231846183770
:1058C000BD4680BD80B483B000AF78600B46FB70EE
:1058D000FB7803F007037A680A335B01134404334F
:1058E0001B6818460C37BD4680BC704780B586B033
:1058F00000AFF8607A603B600B46FB72FB7A03F006
:1059000007035B012833FA6813447B617B697A687B
:105910005A617B693A689A617B690022DA617B6926
:1059200001225A70FB7A03F00703DAB27B691A701E
:10593000FB7A03F00703002B06D1FB681B6879692B
:10594000184602F0B5F805E0FB681B68796918464F
:1059500002F0AEF8002318461837BD4680BD80B56A
:1059600084B000AF78600B46FB70FB7803F0070251
:105970007B685B689A4201D9012346E097F90330BE
:10598000002B0BDAFB7803F007035B0128337A68FE
:105990001344FB60FB6801225A7009E0FB785B014D
:1059A00003F594737A681344FB60FB6800225A7015
:1059B000FB6801229A70FB7803F00703DAB2FB68F8
:1059C0001A707B6893F82832012B01D102231CE066
:1059D0007B68012283F828227B681B68F9681846D7
:1059E00002F01EFBFB7803F00703002B08D17B6855
:1059F0001A687B6803F50C731946104602F01CFC0C
:105A00007B68002283F82822002318461037BD4601
:105A100080BD80B584B000AF78600B46FB70FB782A
:105A200003F00F027B685B689A4201D901233AE0D8
:105A300097F90330002B0BDAFB7803F007035B01C7
:105A400028337A681344FB60FB6801225A700BE02C
:105A5000FB7803F007035B0103F594737A68134442
:105A6000FB60FB6800225A70FB6800229A70FB788A
:105A700003F00703DAB2FB681A707B6893F82832E8
:105A8000012B01D102230EE07B68012283F828223A
:105A90007B681B68F968184602F004FB7B680022EB
:105AA00083F82822002318461037BD4680BD000029
:105AB00090B589B000AF786082E27B681B68B3F86C
:105AC0004430FB82FB8ADBB203F00F037B757B7DE6
:105AD000002B40F04281FB8A03F01003002B51D1D0
