:020000040800F2
:100000000050002081390008F93700080538000841
:100010000B380008113800081738000800000000ED
:100020000000000000000000000000001D38000873
:100030002938000800000000353800084138000861
:10004000C9390008C9390008C9390008C939000888
:10005000C9390008C9390008C9390008C939000878
:10006000C9390008C9390008C939000851380008E1
:10007000C9390008C9390008C9390008C939000858
:10008000C9390008C9390008693800087D380008F6
:1000900091380008C9390008C9390008C939000871
:1000A000C9390008C9390008C9390008C939000828
:1000B000C9390008C9390008C9390008C939000818
:1000C000C9390008C9390008C9390008C939000808
:1000D000AD380008C9390008C9390008C939000815
:1000E000C9390008C9390008C939000800000000F2
:1000F0000000000000000000000000000000000000
:0C01000000000000000000005FF808F1A3
:1001100010B5054C237833B9044B13B10448AFF341
:1001200000800123237010BD4C030020000000005C
:100130006CAB000808B5034B1BB103490348AFF390
:10014000008008BD00000000500300206CAB0008D8
:10015000034613F8012B002AFBD1181A0138704707
:1001600081F0004102E000BF83F0004330B54FEA68
:1001700041044FEA430594EA050F08BF90EA020FD5
:100180001FBF54EA000C55EA020C7FEA645C7FEA68
:10019000655C00F0E2804FEA5454D4EB5555B8BF8B
:1001A0006D420CDD2C4480EA020281EA030382EAFC
:1001B000000083EA010180EA020281EA0303362D8E
:1001C00088BF30BD11F0004F4FEA01314FF4801C61
:1001D0004CEA113102D0404261EB410113F0004F73
:1001E0004FEA03334CEA133302D0524263EB43032A
:1001F00094EA050F00F0A780A4F10104D5F1200EC8
:100200000DDB02FA0EFC22FA05F2801841F1000122
:1002100003FA0EF2801843FA05F359410EE0A5F1F6
:1002200020050EF1200E012A03FA0EFC28BF4CF027
:10023000020C43FA05F3C01851EBE37101F00045DD
:1002400007D54FF0000EDCF1000C7EEB00006EEBEA
:100250000101B1F5801F1BD3B1F5001F0CD3490874
:100260005FEA30004FEA3C0C04F101044FEA4452CB
:1002700012F5800F80F09A80BCF1004F08BF5FEA52
:10028000500C50F1000041EB045141EA050130BD32
:100290005FEA4C0C404141EB010111F4801FA4F1D5
:1002A0000104E9D191F0000F04BF01460020B1FA2A
:1002B00081F308BF2033A3F10B03B3F120020CDA62
:1002C0000C3208DD02F1140CC2F10C0201FA0CF040
:1002D00021FA02F10CE002F11402D8BFC2F1200CA5
:1002E00001FA02F120FA0CFCDCBF41EA0C0190405B
:1002F000E41AA2BF01EB0451294330BD6FEA0404A4
:100300001F3C1CDA0C340EDC04F11404C4F120028E
:1003100020FA04F001FA02F340EA030021FA04F3A0
:1003200045EA030130BDC4F10C04C4F1200220FAF7
:1003300002F001FA04F340EA0300294630BD21FA35
:1003400004F0294630BD94F0000F83F4801306BFFB
:1003500081F480110134013D4EE77FEA645C18BFEF
:100360007FEA655C29D094EA050F08BF90EA020F86
:1003700005D054EA000C04BF1946104630BD91EA7E
:10038000030F1EBF0021002030BD5FEA545C05D181
:100390004000494128BF41F0004130BD14F58004C0
:1003A0003CBF01F5801130BD01F0004545F0FE4134
:1003B00041F470014FF0000030BD7FEA645C1ABF69
:1003C000194610467FEA655C1CBF0B46024650EAA0
:1003D000013406BF52EA033591EA030F41F40021CC
:1003E00030BD00BF90F0000F04BF0021704730B552
:1003F0004FF4806404F132044FF000054FF0000127
:1004000050E700BF90F0000F04BF0021704730B5E7
:100410004FF4806404F1320410F0004548BF4042BC
:100420004FF000013EE700BF42004FEAE2014FEA11
:1004300031014FEA02701FBF12F07F4393F07F4FEC
:1004400081F06051704732F07F4208BF704793F0EF
:100450007F4F04BF41F40021704730B54FF4607402
:1004600001F0004521F000411CE700BF50EA010205
:1004700008BF704730B54FF000050AE050EA0102AE
:1004800008BF704730B511F0004502D5404261EB1E
:1004900041014FF4806404F132045FEA915C3FF45F
:1004A000D8AE4FF003025FEADC0C18BF03325FEAFC
:1004B000DC0C18BF033202EBDC02C2F1200300FAAD
:1004C00003FC20FA02F001FA03FE40EA0E0021FAD2
:1004D00002F11444BDE600BF70B54FF0FF0C4CF4C0
:1004E000E06C1CEA11541DBF1CEA135594EA0C0F72
:1004F00095EA0C0F00F0DEF82C4481EA030621EAAD
:100500004C5123EA4C5350EA013518BF52EA0335E7
:1005100041F4801143F4801338D0A0FB02CE4FF099
:100520000005E1FB02E506F00042E0FB03E54FF0C9
:100530000006E1FB03569CF0000F18BF4EF0010EC1
:10054000A4F1FF04B6F5007F64F5407404D25FEABD
:100550004E0E6D4146EB060642EAC62141EA555170
:100560004FEAC52040EA5E504FEACE2EB4F1FD0CB2
:1005700088BFBCF5E06F1ED8BEF1004F08BF5FEA30
:10058000500E50F1000041EB045170BD06F00046E2
:1005900046EA010140EA020081EA0301B4EB5C048F
:1005A000C2BFD4EB0C0541EA045170BD41F4801187
:1005B0004FF0000E013C00F3AB8014F1360FDEBFAC
:1005C000002001F0004170BDC4F10004203C35DA88
:1005D0000C341BDC04F11404C4F1200500FA05F30B
:1005E00020FA04F001FA05F240EA020001F00042AC
:1005F00021F0004110EBD37021FA04F642EB060122
:100600005EEA430E08BF20EAD37070BDC4F10C044B
:10061000C4F1200500FA04F320FA05F001FA04F20F
:1006200040EA020001F0004110EBD37041F10001FB
:100630005EEA430E08BF20EAD37070BDC4F1200506
:1006400000FA05F24EEA020E20FA04F301FA05F26E
:1006500043EA020321FA04F001F0004121FA04F216
:1006600020EA020000EBD3705EEA430E08BF20EAE6
:10067000D37070BD94F0000F0FD101F00046400020
:1006800041EB010111F4801F08BF013CF7D041EAA2
:10069000060195F0000F18BF704703F000465200A6
:1006A00043EB030313F4801F08BF013DF7D043EA77
:1006B0000603704794EA0C0F0CEA135518BF95EA2D
:1006C0000C0F0CD050EA410618BF52EA4306D1D1B4
:1006D00081EA030101F000414FF0000070BD50EAD3
:1006E000410606BF1046194652EA430619D094EA5D
:1006F0000C0F02D150EA013613D195EA0C0F05D147
:1007000052EA03361CBF104619460AD181EA03019A
:1007100001F0004141F0FE4141F470014FF0000052
:1007200070BD41F0FE4141F4780170BD70B54FF0ED
:10073000FF0C4CF4E06C1CEA11541DBF1CEA13556D
:1007400094EA0C0F95EA0C0F00F0A7F8A4EB05044F
:1007500081EA030E52EA03354FEA013100F0888046
:100760004FEA03334FF0805545EA131343EA12630F
:100770004FEA022245EA111545EA10654FEA0026C4
:100780000EF000419D4208BF964244F1FD0404F57D
:10079000407402D25B084FEA3202B61A65EB0305D9
:1007A0005B084FEA32024FF480104FF4002CB6EB96
:1007B000020E75EB030E22BFB61A754640EA0C0016
:1007C0005B084FEA3202B6EB020E75EB030E22BF56
:1007D000B61A754640EA5C005B084FEA3202B6EB97
:1007E000020E75EB030E22BFB61A754640EA9C0056
:1007F0005B084FEA3202B6EB020E75EB030E22BF26
:10080000B61A754640EADC0055EA060E18D04FEAE3
:10081000051545EA16754FEA06164FEAC30343EA83
:1008200052734FEAC2025FEA1C1CC0D111F4801F50
:100830000BD141EA00014FF000004FF0004CB6E749
:1008400011F4801F04BF01430020B4F1FD0C88BFE8
:10085000BCF5E06F3FF6AFAEB5EB030C04BFB6EBF3
:10086000020C5FEA500C50F1000041EB045170BDE6
:100870000EF0004E4EEA113114EB5C04C2BFD4EB13
:100880000C0541EA045170BD41F480114FF0000E97
:10089000013C90E645EA060E8DE60CEA135594EA13
:1008A0000C0F08BF95EA0C0F3FF43BAF94EA0C0F16
:1008B0000AD150EA01347FF434AF95EA0C0F7FF48B
:1008C00025AF104619462CE795EA0C0F06D152EADF
:1008D00003353FF4FDAE1046194622E750EA4106C3
:1008E00018BF52EA43067FF4C5AE50EA41047FF4D4
:1008F0000DAF52EA43057FF4EBAE12E74FEA410237
:10090000B2F1E04324BFB3F5001CDCF1FE5C0DD96D
:1009100001F0004C4FEAC0024CEA5070B2F1004FB7
:1009200040EB830008BF20F00100704711F0804FBA
:1009300021D113F13872BCBF01F00040704741F47F
:1009400080114FEA5252C2F11802C2F1200C10FA83
:100950000CF320FA02F018BF40F001004FEAC12367
:100960004FEAD32303FA0CFC40EA0C0023FA02F30B
:100970004FEA4303CCE77FEA625307D150EA0133E1
:100980001EBF4FF0FE4040F44000704701F00040B1
:1009900040F0FE4040F40000704700BF80F000408F
:1009A00002E000BF81F0004142001FBF5FEA410347
:1009B00092EA030F7FEA226C7FEA236C6AD04FEA47
:1009C0001262D2EB1363C1BFD2184140484041408C
:1009D000B8BF5B42192B88BF704710F0004F40F43E
:1009E000000020F07F4018BF404211F0004F41F45A
:1009F000000121F07F4118BF494292EA030F3FD026
:100A0000A2F1010241FA03FC10EB0C00C3F1200338
:100A100001FA03F100F0004302D5494260EB4000C7
:100A2000B0F5000F13D3B0F1807F06D340084FEA32
:100A3000310102F10102FE2A51D2B1F1004F40EB27
:100A4000C25008BF20F0010040EA0300704749008F
:100A500040EB000010F4000FA2F10102EDD1B0FA5A
:100A600080FCACF1080CB2EB0C0200FA0CF0AABF4F
:100A700000EBC25052421843BCBFD04018437047ED
:100A800092F0000F81F4000106BF80F400000132F3
:100A9000013BB5E74FEA41037FEA226C18BF7FEACA
:100AA000236C21D092EA030F04D092F0000F08BF0C
:100AB0000846704790EA010F1CBF0020704712F0F3
:100AC0007F4F04D1400028BF40F00040704712F132
:100AD00000723CBF00F50000704700F0004343F097
:100AE000FE4040F4000070477FEA226216BF0846CD
:100AF0007FEA23630146420206BF5FEA412390EA90
:100B0000010F40F4800070474FF0000304E000BF85
:100B100010F0004348BF40425FEA000C08BF704736
:100B200043F0964301464FF000001CE050EA0102FA
:100B300008BF70474FF000030AE000BF50EA01020F
:100B400008BF704711F0004302D5404261EB4101FC
:100B50005FEA010C02BF84460146002043F0B64321
:100B600008BFA3F18053A3F50003BCFA8CF2083A46
:100B7000A3EBC25310DB01FA02FC634400FA02FC4F
:100B8000C2F12002BCF1004F20FA02F243EB020056
:100B900008BF20F00100704702F1200201FA02FCB8
:100BA000C2F1200250EA4C0021FA02F243EB0200AB
:100BB00008BF20EADC7070474FF0FF0C1CEAD052EF
:100BC0001EBF1CEAD15392EA0C0F93EA0C0F6FD0B0
:100BD0001A4480EA010C400218BF5FEA41211ED08E
:100BE0004FF0006343EA501043EA5111A0FB01317A
:100BF0000CF00040B1F5000F3EBF490041EAD3714F
:100C00005B0040EA010062F17F02FD2A1DD8B3F1CA
:100C1000004F40EBC25008BF20F00100704790F039
:100C2000000F0CF0004C08BF49024CEA502040EA8B
:100C300051207F3AC2BFD2F1FF0340EAC250704751
:100C400040F400004FF00003013A5DDC12F1190F8F
:100C5000DCBF00F000407047C2F10002410021FA01
:100C600002F1C2F1200200FA02FC5FEA310040F119
:100C7000000053EA4C0308BF20EADC70704792F092
:100C8000000F00F0004C02BF400010F4000F013ACA
:100C9000F9D040EA0C0093F0000F01F0004C02BFC5
:100CA000490011F4000F013BF9D041EA0C018FE734
:100CB0000CEAD15392EA0C0F18BF93EA0C0F0AD03A
:100CC00030F0004C18BF31F0004CD8D180EA010060
:100CD00000F00040704790F0000F17BF90F0004FF9
:100CE000084691F0000F91F0004F14D092EA0C0FDB
:100CF00001D142020FD193EA0C0F03D14B0218BF6E
:100D0000084608D180EA010000F0004040F0FE40B3
:100D100040F40000704740F0FE4040F4400070474F
:100D20004FF0FF0C1CEAD0521EBF1CEAD15392EACE
:100D30000C0F93EA0C0F69D0A2EB030280EA010CBE
:100D400049024FEA402037D04FF0805343EA111157
:100D500043EA10130CF000408B4238BF5B0042F1B5
:100D60007D024FF4000C8B4224BF5B1A40EA0C005A
:100D7000B3EB510F24BFA3EB510340EA5C00B3EB8C
:100D8000910F24BFA3EB910340EA9C00B3EBD10F7A
:100D900024BFA3EBD10340EADC001B0118BF5FEACC
:100DA0001C1CE0D1FD2A3FF650AF8B4240EBC250F5
:100DB00008BF20F0010070470CF0004C4CEA5020B6
:100DC0007F32C2BFD2F1FF0340EAC250704740F405
:100DD00000004FF00003013A37E792F0000F00F0F7
:100DE000004C02BF400010F4000F013AF9D040EA75
:100DF0000C0093F0000F01F0004C02BF490011F409
:100E0000000F013BF9D041EA0C0195E70CEAD15300
:100E100092EA0C0F08D142027FF47DAF93EA0C0FE7
:100E20007FF470AF084676E793EA0C0F04D14B02CB
:100E30003FF44CAF08466EE730F0004C18BF31F07D
:100E4000004CCAD130F000427FF45CAF31F0004377
:100E50007FF43CAF5FE700BF4FF0FF3C06E000BF10
:100E60004FF0010C02E000BF4FF0010C4DF804CD33
:100E70004FEA40024FEA41037FEA226C18BF7FEA43
:100E8000236C11D001B052EA530C18BF90EA010F45
:100E900058BFB2EB030088BFC81738BF6FEAE170D4
:100EA00018BF40F0010070477FEA226C02D15FEA70
:100EB000402C05D17FEA236CE4D15FEA412CE1D0DC
:100EC0005DF8040B704700BF844608466146FFE7A3
:100ED0000FB5FFF7C9FF002848BF10F1000F0FBD85
:100EE0004DF808EDFFF7F4FF0CBF012000205DF87E
:100EF00008FB00BF4DF808EDFFF7EAFF34BF012003
:100F000000205DF808FB00BF4DF808EDFFF7E0FF9B
:100F100094BF012000205DF808FB00BF4DF808EDEC
:100F2000FFF7D2FF94BF012000205DF808FB00BF4F
:100F30004DF808EDFFF7C8FF34BF012000205DF831
:100F400008FB00BF4FEA4002B2F1FE4F0FD34FF053
:100F50009E03B3EB12620DD94FEA002343F0004326
:100F600010F0004F23FA02F018BF404270474FF0D4
:100F70000000704712F1610F01D1420205D110F05B
:100F8000004008BF6FF0004070474FF0000070470E
:100F900080B500AF00F036FB00F0E8F903461846D4
:100FA00080BD000080B5ADF5836D00AF3B1D1860BE
:100FB0003B46196007F10803264A184611464FF4CC
:100FC00080631A4608F0E8FF4FF0FF33C7F80C348F
:100FD0000023C7F814342EE0D7F80C341B0EC7F8E2
:100FE00008343B46D7F814241B689A4208DAD7F82D
:100FF00014343A1D126813441B7887F8133402E046
:10100000002387F81334D7F80C341A0297F81334F6
:101010001343C7F80C3407F10803D7F8082453F832
:101020002230D7F80C245340C7F80C34D7F81434C6
:101030000133C7F814343B461B680433D7F8142433
:101040009A42C9DBD7F80C34184607F58367BD46CA
:1010500080BD00BF84AB000880B584B000AF0346FC
:10106000FB7140233B73FB797B7307F10C03022177
:10107000184601F04BFF00BF1037BD4680BD000091
:1010800080B58AB000AFF8600B467A60FB72FB7ADD
:101090005B00642B01DD002337E0FB687B623023BB
:1010A0003B7578237B75002387F8233007F1140301
:1010B0000233FB61FB687B621FE07B6A1B889AB28C
:1010C000FB691A80FB69023300221A7007F11002D3
:1010D00007F114030F49184608F072FF396997F8B1
:1010E00023307A681344CAB21A7097F82330013358
:1010F00087F823307B6A02337B62FB7AFA681344F9
:101100007A6A9A42D9D397F8233018462837BD46D1
:1011100080BD00BF84AF000880B500AF00F0D0FAFA
:1011200000BF80BD80B5C4B000AF3B1D186008464D
:101130001146BB1C02461A807B1C0A461A70554B8E
:101140001B88FF2B01D900239EE07B1C1B78002B02
:1011500013D0504B1B88002B0FD04F4B19684D4BB1
:101160001B8801331A464D4800F0F4FAFFF7D4FF0C
:10117000484B00221A80012386E0BB1C1B88093BD8
:10118000A7F80A313B1D1B681B78242B08D1BB1C18
:101190001B88013B3A1D126813441B78232B01D096
:1011A000002371E0B7F80A31B3F5007F01D90023BD
:1011B0006AE03B1D1B680833B7F80A21D1B207F17A
:1011C00008021846FFF75CFF0346A7F80A31B7F894
:1011D0000A3107F108020021D154B7F80A21304B37
:1011E0001B6813442E4A13600023C7F80C3137E004
:1011F000284B1B88FF2B12D1274B1B684FF48072A2
:101200001946264800F0A6FAFFF786FF214B002278
:101210001A80214B1B6801331F4A13601BE01D4BD2
:101220001B88194607F10802D7F80C3113441A78C5
:101230001A4B5A54174B1B88194607F10802D7F866
:101240000C3113441A78174B5A54124B1B88013334
:101250009AB2104B1A80D7F80C310133C7F80C3111
:10126000B7F80A31D7F80C219A42C1DB094B1B8829
:101270001A460D4B1A60B7F80A310C4A1360BB1CB2
:101280001B880B4A13600123184607F58877BD4673
:1012900080BD00BF780800201C07002060070020E8
:1012A0006408002098050020A40600209C06002069
:1012B000A006002080B584B000AF012200210020EC
:1012C000FFF730FF01F018FE234B00221A600023C5
:1012D0007B60224B1B681B0A9BB201337B8101237D
:1012E000FB6017E04FF4807200211D4808F05FFE9C
:1012F000FB684FF480721946194800F077FAFF2115
:101300001748FFF74FFE02467B6813447B60FB687B
:101310000133FB607B89FA689A42E3DD4FF4807207
:1013200000210F4808F043FE0D4BAB221A700D4A06
:101330007B6813600C4A094B1B681360064B1B68E3
:101340004FF480721946064800F004FAFFF7E4FEF5
:1013500000BF1037BD4680BD1C0700206408002078
:1013600060070020610700206507002080B584B079
:1013700000AF304B00221A802F4B00221A6001F080
:10138000BBFD2D4B1B684FF4807219462B4800F0B3
:101390002DFA2A4B1B78AB2B01D0002346E000230B
:1013A000FB6000233B60264B1B683B60254B1B68A2
:1013B0001A46254B1A60244B1B681B0A9BB201334B
:1013C000FB800123BB6017E04FF4807200211B48B3
:1013D00008F0EDFDBB684FF480721946174800F025
:1013E00005FAFF211548FFF7DDFD0246FB681344AF
:1013F000FB60BB680133BB60FB88BA689A42E3DDDF
:101400003B68FA689A4207D1104B01221A700A4BC6
:1014100001221A60012309E00C4B00221A70064BCE
:1014200001221A60084B00221A6000231846103768
:10143000BD4680BD780800201C0700206007002002
:101440006107002065070020640800206008002074
:1014500080B582B000AF78607B685B6E002B6DD08A
:101460007B681B78402B37D17B685B78502B16D17B
:1014700000F050F901F040FD324B00221A70324B5F
:1014800000221A70314B01221A60314B00221A607F
:10149000304B00221A80304B01221A7018E07B6812
:1014A0005B78452B14D12C4B1B78002B10D0FFF709
:1014B00001FF294B00221A70FFF758FF034683F003
:1014C0000103DBB2002B03D05220FFF7C5FD36E04D
:1014D0004F20FFF7C1FD32E01F4B1B7883F0010363
:1014E000DBB2002B03D05220FFF7B6FD27E07B686C
:1014F0001B78242B16D1184B1B78002B12D0786840
:101500007B685B6E9BB200221946FFF70BFE034619
:10151000002B03D04F20FFF79FFD10E05220FFF774
:101520009BFD0CE07B681B78212B08D10A4B1B78B4
:10153000002B04D04F20FFF78FFD00E000BF0837DD
:10154000BD4680BD60080020190700201C07002050
:1015500064080020780800201807002080B500AF3C
:10156000104B00221A70104B00225A660F4B0022BB
:10157000DA60402200210E4808F019FD0D4B0022D0
:101580001A700D4B00221A700C4B00221A700C4B73
:1015900000221A700B4B00221A600B4B01221A60BA
:1015A00000BF80BD18070020B0060020680800209A
:1015B0002007002060080020AD0600201907002049
:1015C000AC060020640800201C07002080B586B00F
:1015D00002AF0346FB7107F10F02F91DFF230093D1
:1015E0000123074805F031F800BF054B93F851304F
:1015F000DBB2012BF9D1FB7B18461037BD4680BD0D
:101600007C08002080B500AF01224FF480510548CE
:1016100003F0BEFB00F01EF800F052F800F030F8C6
:1016200000BF80BD000C014080B500AF00224FF428
:101630008051074803F0ACFB0620FFF7C7FF0122EB
:101640004FF48051024803F0A3FB00BF80BD00BFF0
:10165000000C014080B500AF00224FF480510748D4
:1016600003F096FB0420FFF7B1FF01224FF48051F5
:10167000024803F08DFB00BF80BD00BF000C01409D
:1016800080B582B000AF0023FB7100224FF480517F
:101690000A4803F07DFB0520FFF798FFAB20FFF71A
:1016A00095FF0346FB7101224FF48051034803F07C
:1016B0006FFBFB7918460837BD4680BD000C014022
:1016C00080B582B000AF0023FB7100224FF480513F
:1016D0000F4803F05DFB0520FFF778FFAB20FFF715
:1016E00075FF0346FB71012002F0D2F901F004FC02
:1016F000FB7903F00103002BF0D101224FF480515C
:10170000034803F045FB00BF0837BD4680BD00BF5E
:10171000000C014080B500AFFFF7D2FFFFF784FF58
:1017200000224FF480510A4803F032FBC720FFF734
:101730004DFF01224FF48051054803F029FBFFF7CC
:10174000BFFFFFF787FFFFF7BBFF00BF80BD00BFF4
:10175000000C014080B586B000AFF860B9607A60D7
:10176000FB687B61FFF7ACFFFFF75EFFBB681B0206
:10177000BB6000224FF480511B4803F009FB02209C
:10178000FFF724FFBB681B0CFB74FB7C1846FFF7BC
:101790001DFFBB681B0AFB74FB7C1846FFF716FF96
:1017A000BB68FB74FB7C1846FFF710FF07E07B6902
:1017B0001B781846FFF70AFF7B6901337B617B6862
:1017C0005A1E7A60002BF2D101224FF48051064854
:1017D00003F0DEFAFFF774FFFFF73CFFFFF770FF3F
:1017E00000BF1837BD4680BD000C014080B586B0F3
:1017F00000AFF860B9607A60FB687B61FFF760FF5B
:10180000FFF728FFFFF75CFFBB681B02BB600022ED
:101810004FF480511B4803F0BBFA0B20FFF7D6FEB4
:10182000BB681B0CFB74FB7C1846FFF7CFFEBB6844
:101830001B0AFB74FB7C1846FFF7C8FEBB68FB74F1
:10184000FB7C1846FFF7C2FEAB20FFF7BFFE09E0A6
:10185000AB20FFF7BBFE03461A467B691A707B6913
:1018600001337B617B685A1E7A60002BF0D1012224
:101870004FF48051034803F08BFA00BF1837BD4680
:1018800080BD00BF000C014080B500AF7822002170
:10189000094808F08CFBA0220021084808F087FBCB
:1018A0000F220021064808F082FB02220121054890
:1018B00008F07DFB00BF80BD100A0020D408002086
:1018C000880A00200C0A002080B586B000AF0346CD
:1018D000FB8007237B617B69102B01DD10237B617B
:1018E00000233B616AE0FB8803F00103002B14BF77
:1018F00001230023FB73FB885B08FB803B69023BF1
:10190000042B58D801A252F823F000BF2119000877
:101910003F1900085D1900087B1900089919000893
:10192000FB7B002B05D000228021284803F030FAF1
:1019300041E001228021254803F02AFA3BE0FB7BAD
:10194000002B05D000224021204803F021FA32E08C
:10195000012240211D4803F01BFA2CE0FB7B002BE9
:1019600005D000222021194803F012FA23E00122B9
:101970002021164803F00CFA1DE0FB7B002B05D05C
:1019800000221021114803F003FA14E00122102173
:101990000E4803F0FDF90EE0FB7B002B05D0002282
:1019A00008210A4803F0F4F904E00122082107485D
:1019B00003F0EEF900BF3B6901333B613A697B6993
:1019C0009A4290DB00BF1837BD4680BD000C014035
:1019D00080B588B000AF786039607B68FB61002318
:1019E000BB6007F10C030322F969184608F0D4FA2A
:1019F0000023FB7307F10C03013307F1080292493E
:101A0000184608F0DDFABB68DBB27B743B7B3B74A5
:101A10007B680333FB61FB691B78FB74FB69013353
:101A2000FB61FB691B78252B05D101233B75FB6905
:101A30000133FB6101E000233B7507F10C03062233
:101A4000F969184608F0A8FA0023BB61F2E007F133
:101A50000C02BB6913441B78422B40F0E88007F16D
:101A60000C02BB69134400221A7007F1080207F147
:101A70000C037549184608F0A3FABB68DBB27B7506
:101A8000BB690233FA691344FB6107F108031A4684
:101A90006D49F86908F094FABB68DBB2BB74BB7C93
:101AA000797D6A4ADB0013440A465A71BB7CF97C93
:101AB000664ADB0013440A461A713B7C462B2ED142
:101AC0007B7C002B13D13B7D83F00103DBB2002B29
:101AD00006D0BB7C19465D4B5D4A43F83120AEE031
:101AE000BB7C1946594B5B4A43F83120A7E07B7C0D
:101AF000012B40F0A4803B7D83F00103DBB2002B7F
:101B000006D0BB7C1946514B534A43F8312096E02E
:101B1000BB7C19464D4B514A43F831208FE03B7C4A
:101B2000492B76D17B7C042B00F2898001A252F8EC
:101B300023F000BF491B0008711B0008991B000817
:101B4000C11B0008E91B00083B7D83F00103DBB2E9
:101B5000002B06D0BB7C19463C4B414A43F8312050
:101B600064E0BB7C1946394B3E4A43F831205DE0C6
:101B70003B7D83F00103DBB2002B06D0BB7C194612
:101B8000324B394A43F8312050E0BB7C19462F4B89
:101B9000364A43F8312049E03B7D83F00103DBB254
:101BA000002B06D0BB7C1946284B314A43F8312024
:101BB0003CE0BB7C1946254B2E4A43F8312035E0EA
:101BC0003B7D83F00103DBB2002B06D0BB7C1946C2
:101BD0001E4B294A43F8312028E0BB7C19461B4B99
:101BE000264A43F8312021E03B7D83F00103DBB23C
:101BF000002B06D0BB7C1946144B214A43F83120F8
:101C000014E0BB7C1946114B1E4A43F8312000BF3B
:101C10000CE03B7C432B12D17B7CBA7C11469B00B1
:101C2000194A1344094A42F8313008E007E0BB6919
:101C30000133BB61BB69052B7FF709AF00E000BF33
:101C400000BF2037BD4680BD88AF0008100A0020C5
:101C50002007002024070020280700202C07002050
:101C6000300700204C0700203407002050070020D8
:101C700038070020540700203C07002058070020A8
:101C8000400700205C070020D009002080B582B00A
:101C900000AF00237B607FE0434A7B6852F833301B
:101CA000002B76D0404A7B68DB0013441B793E2B27
:101CB0000DD03D4A7B68DB0013441B793C2B06D0DA
:101CC000394A7B68DB0013441B793D2B61D1364ACE
:101CD0007B68DB0013441B793E2B19D1324A7B68A9
:101CE00052F833301B681846FFF72CF901462E4A8C
:101CF0007B68DB0013445B799942CCBF012300234E
:101D0000D9B2294A7B68DB0013440A469A7140E045
:101D1000254A7B68DB0013441B793C2B19D1224AEE
:101D20007B6852F833301B681846FFF70BF9014601
:101D30001D4A7B68DB0013445B799942B4BF0123E1
:101D40000023D9B2184A7B68DB0013440A469A7113
:101D50001FE0154A7B68DB0013441B793D2B18D12B
:101D6000114A7B6852F833301B681846FFF7EAF8CF
:101D700001460D4A7B68DB0013445B7999420CBF36
:101D800001230023D9B2084A7B68DB0013440A46CA
:101D90009A717B6801337B607B680E2B7FF77CAF89
:101DA00000BF0837BD4680BD100A002080B582B054
:101DB00000AF1F4B1B78002B36D000237B6030E038
:101DC0007B68002B02D0012B14D027E0194A7B68D6
:101DD00013441B78002B06D001224FF48061164873
:101DE00002F0D6FF1AE000224FF48061124802F0A0
:101DF000CFFF13E00F4A7B6813441B78002B06D0FB
:101E000001224FF400710C4802F0C2FF05E00022ED
:101E10004FF40071084802F0BBFF00BF7B6801333C
:101E20007B607B68012BCBDD00BF0837BD4680BDE2
:101E3000AC0600200C0A00200008014080B582B0EA
:101E400000AF78607B681B7B742B2CD17B681B7880
:101E500083F00103DBB2002B08D07B6800225A70AC
:101E600001F00CFE02467B689A603AE001F006FE43
:101E700002467B689B68D21A7B685B689A4202D3F1
:101E80007B6801225A7001F0F9FD02467B689B686D
:101E9000D21A7B685B689A422CBF01230023DAB216
:101EA0007B685A701DE07B681B7B632B19D17B68B4
:101EB0001B78002B08D07B6801225A7001F0DEFDF0
:101EC00002467B689A600CE001F0D8FD02467B6810
:101ED0009B68D21A7B685B689A4202D97B680022B1
:101EE0005A7000BF0837BD4680BD000080B582B083
:101EF00000AF00237B6009E07B681B01074A1344A5
:101F00001846FFF79BFF7B6801337B607B68092BDA
:101F1000F2DD00BF0837BD4680BD00BFD4080020F9
:101F200080B584B000AFF8607B600B46FB7213464F
:101F3000BB72FB681B7BBA7A9A420CD0102200213C
:101F4000F86808F034F8FB68BA7A1A7301F096FD65
:101F50000246FB689A60FB687A685A60FB68FA7A06
:101F60001A70F868FFF76AFFFB685B78184610374D
:101F7000BD4680BD90B58FB000AFF860B9607A60A3
:101F8000FB687B6300233B63002387F82E3000232C
:101F900087F82C307B6B1B78282B40F0DB827B6B27
:101FA00001337B6349E07A6B3B6B13441B78292B2D
:101FB00040D17B681B78FB7707F11F031A46396B0A
:101FC000786BFFF7D7FF0346FB7797F82E304F2B40
:101FD0000CD17B681A78FB7F1343DBB2002B14BF54
:101FE00001230023DAB27B681A7017E097F82E30CD
:101FF000412B0CD17B681B781A46FB7F1340002BCA
:1020000014BF01230023DAB27B681A7006E097F848
:102010002E30002B02D1FA7F7B681A70002387F8DC
:102020002E303B6B01337A6B13447B6300233B639D
:1020300000BF0AE03B6B01333B637A6B3B6B1A4496
:10204000F968BB680B449A42ADD383E27B6B1B7883
:10205000632B03D07B6B1B78742B67D17B6B1B7856
:1020600087F82C307B6B02337B637B6B1B889BB2C6
:10207000BB84002387F8263007F1200207F12403F0
:10208000B349184607F09CFF7B6B03337B6307F172
:1020900024030822796B184607F07EFF002387F897
:1020A0002C30002387F82F303BE097F82F3007F1D2
:1020B0003802134413F8143C7C2B2DD197F82F30A1
:1020C00007F138021344002203F8142C97F82F303C
:1020D00001337A6B13447B6307F1180207F1240381
:1020E0009B49184607F06CFF7B681B7887F82B30FC
:1020F0003B6A1B01974A9818BB6997F82C2097F800
:102100002B10FFF70DFF03461A467B681A70002359
:1021100087F82E3000BF08E097F82F30013387F89A
:102120002F3097F82F30072BBFD913E27B6B1B782A
:102130004F2B06D17B6B01337B634F2387F82E3007
:1021400008E27B6B1B78412B06D17B6B01337B63F1
:10215000412387F82E30FDE17B6B1B78292B05D1BD
:102160007B6B01337B6300233B63F3E17B6B1B7869
:10217000562B04D07B6B1B784E2B40F096807B6BEC
:102180001B7887F82C307B6B01337B637B6B1B7870
:1021900087F82F307B6B01337B637B6B1B889BB293
:1021A000BB847B6B02337B63002387F8263007F107
:1021B000200207F124036649184607F001FF97F84B
:1021C0002F30582B07D13B6A634ADB0013449B79BD
:1021D00087F82D3023E097F82F304D2B05D13B6A3F
:1021E0005E4AD35C87F82D3019E097F82F30592BD1
:1021F00005D13B6A5A4AD35C87F82D300FE097F837
:102200002F30542B08D13B6A524A1B01134401332F
:102210001B7887F82D3002E0002387F82D3097F8DF
:102220002C304E2B11D197F82D30002B14BF0123E9
:102230000023DBB283F00103DBB287F82D3097F87F
:102240002D3003F0010387F82D3097F82E304F2BF7
:102250000DD17B681A7897F82D301343DBB2002B31
:1022600014BF01230023DAB27B681A7019E097F8D3
:102270002E30412B0DD17B681B781A4697F82D30F4
:102280001340002B14BF01230023DAB27B681A70BD
:1022900007E097F82E30002B03D17B6897F82D20AC
:1022A0001A70002387F82E3054E17B6B1B78532B78
:1022B00014D07B6B1B78522B10D07B6B1B78422B7E
:1022C0000CD07B6B1B782B2B08D07B6B1B782D2BBA
:1022D00004D07B6B1B783D2B40F037817B6B1B78E8
:1022E00087F82C307B6B01337B637B6B1B7887F823
:1022F0002F307B6B01337B637B6B1B889BB2BB8472
:10230000002387F8263007F1200207F12403104943
:10231000184607F055FE97F82C30532B2ED17B68CA
:102320001B78002B2AD097F82F30582B06D13B6A08
:10233000094ADB00134401229A711BE097F82F3001
:10234000592B0FD13B6A064A0121D15412E000BF3C
:1023500088AF0008D4080020100A0020880A002056
:102360000C0A002097F82F304D2B03D13B6A814A8D
:102370000121D1547B6801221A70E3E097F82C30D8
:10238000522B23D17B681B78002B1FD097F82F305E
:10239000582B06D13B6A784ADB00134400229A711D
:1023A00010E097F82F30592B04D13B6A734A002173
:1023B000D15407E097F82F304D2B03D13B6A6D4A7B
:1023C0000021D1547B6800221A70BBE097F82C30B2
:1023D000422B21D197F82F30582B08D13B6A7A68CD
:1023E0001178654ADB0013440A469A71AAE097F80F
:1023F0002F30592B05D13B6A7A6811785F4AD15446
:10240000A0E097F82F304D2B40F09C803B6A7A6813
:102410001178584AD15495E097F82C302B2B08D0DE
:1024200097F82C302D2B04D097F82C303D2B40F012
:1024300089807B681B78002B00F0848097F82C3013
:102440003D2B39D17B6B03337B6307F124030822D7
:10245000796B184607F0A0FD002387F82C30002385
:1024600087F82F3024E097F82F3007F13802134413
:1024700013F8143C7C2B16D197F82F3007F1380253
:102480001344002203F8142C97F82F3001337A6B91
:1024900013447B6307F1140207F1240338491846FB
:1024A00007F08EFD08E097F82F30013387F82F30C2
:1024B00097F82F30072BD6D997F82C302B2B0ED12D
:1024C0003C6A304B53F824304FF07E511846FEF7EB
:1024D0006BFA03461A462B4B43F8242032E097F858
:1024E0002C302D2B21D13B6A264A52F823304FF055
:1024F00000011846FEF71CFD0346002B0ED03C6A77
:10250000204B53F824304FF07E511846FEF74AFA1C
:1025100003461A461B4B43F8242013E03B6A194A32
:102520004FF0000142F823100CE097F82C303D2BBF
:1025300008D17B693C6A1846FEF7EAFA0246114B5D
:1025400043F824207B681B780FE07B6B01337B63AF
:1025500000233B637A6B3B6B1A44F968BB680B44FE
:102560009A42FFF473AD7B681B7818463C37BD4632
:1025700090BD00BF880A0020100A00200C0A00202D
:1025800088AF0008D009002080B584B000AF394B77
:102590001B7883F00103DBB2002B65D1364B1B782F
:1025A000002B63D1FFF770F94FF48072012133489B
:1025B000FFF71CF9324BFB60FB681B889BB2BB80AA
:1025C000BB88FF2B03D92B4B00221A704FE0BB882E
:1025D0001846FFF779F9FB680233FB60FB681B883C
:1025E0009BB2FB80FB880F2B03D9224B00221A7071
:1025F0003DE0FB680233FB600023BB601AE0FB6830
:102600001B889BB2BB80BB88142B03D9194B0022BB
:102610001A702CE0FB680233FB60BB881946F8682F
:10262000FFF7D6F9BB881A46FB681344FB60BB680A
:102630000133BB60FB881A46BB689342DFDBFB6853
:102640001B889BB2BB80FB680233FB60BB881A46C9
:102650000C4B1A60FB68094A9B1A9AB20A4B1A8003
:102660000A4B01221A7002E000BF00E000BF1037E1
:10267000BD4680BD600800201807002060070020CC
:102680006307002064080020780800201907002054
:1026900080B5C4B000AF4C4B1B881A464B4B13445B
:1026A000C7F80C310023A7F80A310023A7F8083136
:1026B0000023A7F80631002387F80531012387F8A6
:1026C000043197F8053101334FF4807219463F48C1
:1026D000FFF78CF858E03E4AD7F80C31934213D3F9
:1026E00097F80531013387F80531384BC7F80C31BD
:1026F00097F8053101334FF4807219463348FFF7DC
:1027000075F80023A7F80831B7F80831D7F80C217D
:1027100013441B780D2B1ED1012387F80431B7F821
:102720000A313A1D0021D154B7F80A1107F5827217
:102730003B1D1846FFF71EFC0023A7F80A31B7F827
:1027400008310133D7F80C211344C7F80C310023AA
:10275000A7F8083113E0B7F80831D7F80C211A446C
:10276000B7F80A3111783A1DD154B7F80A3101335C
:10277000A7F80A31B7F808310133A7F80831B7F8DC
:1027800006310133A7F80631B7F80621114B1B6853
:102790009A42A0D3B7F80A31002B0FD0012387F853
:1027A0000431B7F80A313A1D0021D154B7F80A11A3
:1027B00007F582723B1D1846FFF7DCFB00BF07F5EB
:1027C0008877BD4680BD00BF7808002060070020E4
:1027D000600800206408002080B500AF364B1B78ED
:1027E000002B0DD1354B1B7883F00103DBB2002B9E
:1027F00006D1334B1B7883F00103DBB2002B50D0A2
:1028000000224FF480612F4802F0C2FA00224FF4F8
:1028100000712C4802F0BCFA012280212A4802F003
:10282000B7FA01224021284802F0B2FA0122202101
:10283000254802F0ADFA01221021234802F0A8FA3F
:1028400001220821204802F0A3FA1B4B1B7883F0D9
:102850000103DBB2002B0DD0184B1B78002B09D0E5
:10286000174B1B7883F00103DBB2002B02D0FFF77C
:102870008BFE16E0104B1B7883F00103DBB2002BBC
:1028800018D00E4B1B7883F00103DBB2002B11D064
:102890000B4B1B7883F00103DBB2002B0AD0FEF751
:1028A00065FDFFF7F3F9FFF721FBFFF7F1FEFFF7F7
:1028B0007DFA00E000BF80BD1807002060080020FE
:1028C0001907002000080140000C014080B500AF4E
:1028D000314B1B7883F00103DBB2002B43D02F4B2D
:1028E0001B78002B25D02E4B1B78002B21D001F01C
:1028F000C5F802462B4B1B68D31AB3F57A7F09D96A
:102900004FF40051284802F05BFA01F0B7F8024694
:10291000244B1A60254B1B78012B06D8234B1B78C0
:102920000133DAB2214B1A7033E0214B01221A70C5
:102930002FE01E4B00221A701D4B00221A7001F06E
:102940009DF80246174B1B68D31AB3F5967F20D922
:102950004FF40051144802F033FA01F08FF80246A8
:10296000104B1A6015E00C4B1B78002B11D00F4B4D
:1029700000221A700E4B00221A7000224FF40051F0
:10298000094802F005FA01F079F80246054B1A6091
:10299000FFE700BF80BD00BF1807002060080020CF
:1029A00019070020400B002000100140AC0A002055
:1029B000AC06002080B582B000AF022201211E4883
:1029C000FEF714FF1C4B7B607B681B784C2B0BD1F4
:1029D0007B6801337B607B681B783B703B46174A02
:1029E0001749184607F0ECFA144B1B685B00134AB2
:1029F000136019E001F042F80246124B1B68D31A2B
:102A0000B3F5967F0ED94FF400510F4802F0D8F974
:102A100001F034F802460B4B1A60084B1B68013B6F
:102A2000064A136000F068FA044B1B68002BE1DCD7
:102A300000BF0837BD4680BD60070020F80A0020AF
:102A40008CAF0008400B00200010014080B500AFA3
:102A50001C4B00221A6000F0B9FF00F03BF81A4B43
:102A600000221A7000F0C2F900F094F800F06AF940
:102A700006F0D0FD00F09CF900F04AF900F08AF869
:102A80000A221249124801F0FDF8FEF767FD00F036
:102A900033FAFEF77DFA00F02FFAFFF78BFF00F014
:102AA0002BFA094B1B78002B01D000F075FB00F0CE
:102AB000BDFA00F021FAFFF78FFE00F01DFAFFF7D4
:102AC00005FFEEE7400B0020440B0020E40A002045
:102AD000B00A002080B594B000AF07F12803282287
:102AE0000021184607F063FA07F1140300221A6068
:102AF0005A609A60DA601A613B1D00221A605A60BF
:102B00009A60DA600923BB624FF48033FB620023D2
:102B10003B630123BB6301233B6402237B644FF4CB
:102B20008033BB644FF48023FB6407F1280318460D
:102B300003F088F80346002B01D000F05FFD0F235F
:102B40007B610223BB610023FB614FF480633B6226
:102B500000237B6207F114030121184603F0F2FA07
:102B60000346002B01D000F049FD12237B604FF497
:102B70008043FB604FF480033B613B1D184603F02C
:102B80004DFC0346002B01D000F038FD00BF50374C
:102B9000BD4680BD80B584B000AF3B1D00221A60E9
:102BA0005A609A60584B594A1A60574B4FF48072DA
:102BB0009A60554B01221A73534B00221A75524BDF
:102BC0004FF46022DA61504B00225A604E4B0A22C9
:102BD0001A614D4800F07EFF0346002B01D000F043
:102BE0000DFD00237B600123BB600223FB603B1DC6
:102BF0001946454801F00CFA0346002B01D000F0BD
:102C0000FDFC01237B600223BB603B1D19463E484F
:102C100001F0FEF90346002B01D000F0EFFC022387
:102C20007B600323BB603B1D1946374801F0F0F978
:102C30000346002B01D000F0E1FC03237B6004235A
:102C4000BB603B1D1946304801F0E2F90346002BFA
:102C500001D000F0D3FC04237B600523BB603B1D47
:102C60001946294801F0D4F90346002B01D000F0A1
:102C7000C5FC05237B600623BB603B1D194622482B
:102C800001F0C6F90346002B01D000F0B7FC062383
:102C90007B600723BB603B1D19461B4801F0B8F958
:102CA0000346002B01D000F0A9FC07237B6008231A
:102CB000BB603B1D1946144801F0AAF90346002BDE
:102CC00001D000F09BFC11237B600923BB603B1DFE
:102CD00019460D4801F09CF90346002B01D000F085
:102CE0008DFC10237B600A23BB603B1D1946064800
:102CF00001F08EF90346002B01D000F07FFC00BFED
:102D00001037BD4680BD00BFB00A0020002401403E
:102D100080B500AF094B0A4A1A60084B05225A6079
:102D2000064B4FF4FA629A60044802F061F80346D9
:102D3000002B01D000F062FC00BF80BDA00A002083
:102D40000030004080B500AF174B184A1A60164B90
:102D50004FF482725A60144B00229A60124B002288
:102D6000DA60114B00221A610F4B00225A610E4BA0
:102D70004FF400729A610C4B1822DA610A4B002260
:102D80001A62094B00225A62074B00229A62064BD4
:102D90000A22DA62044803F0F7FB0346002B01D055
:102DA00000F02CFC00BF80BD7C08002000380040F3
:102DB00080B582B000AF0C4B5B690B4A43F0010356
:102DC0005361094B5B6903F001037B607B68002260
:102DD00000210B2001F0E7FB0B2001F000FC00BFFD
:102DE0000837BD4680BD00BF0010024080B588B0E6
:102DF00000AF07F1100300221A605A609A60DA608F
:102E0000394B9B69384A43F010039361364B9B69F9
:102E100003F01003FB60FB68334B9B69324A43F0BD
:102E200020039361304B9B6903F02003BB60BB68B8
:102E30002D4B9B692C4A43F0040393612A4B9B69F9
:102E400003F004037B607B68274B9B69264A43F0B1
:102E500008039361244B9B6903F008033B603B68C4
:102E600000224FF40051214801F092FF002241F26C
:102E7000F8011F4801F08CFF00224FF4C0611D488B
:102E800001F086FF4FF400533B6101237B61002377
:102E9000BB610323FB6107F110031946134801F0DE
:102EA0001DFE41F2F8033B6101237B610123BB61FD
:102EB0000323FB6107F1100319460D4801F00EFED4
:102EC0004FF4C0633B6101237B610123BB6103239A
:102ED000FB6107F110031946064801F0FFFD00BF32
:102EE0002037BD4680BD00BF0010024000100140E9
:102EF000000C01400008014080B500AF024801F01D
:102F0000B0FF00BF80BD00BFA00A002080B584B024
:102F100000AF78600B46FB70FB78642B01D900236F
:102F200032E07B68002B01D100232DE07B681B7809
:102F3000002B01D1002327E0FB781A46796814485A
:102F400007F02AF8FB78002B03D0FB78104AD360F7
:102F500005E07868FDF7FCF802460D4BDA600C4B93
:102F6000DB689BB219460A4806F012FC0346FB7365
:102F7000074B0022DA60FB7B012B02D0FB7B022B8C
:102F800001D1002300E0012318461037BD4680BD63
:102F90006808002080B584B000AF78607B68D3F803
:102FA000B832002B37D07B68D3F8B832FB60FB68AF
:102FB000D3F80C32002B30D01A4B5B6E002B03D1B0
:102FC000194B1B78002B04D0FB680022C3F80C229D
:102FD00024E0FB68D3F804321B78002B07D1114B97
:102FE00000225A66FB680022C3F80C2216E0FB6838
:102FF000D3F80412FB68D3F80C321A46094806F0DD
:10300000CBFFFB68D3F80C32064A5366FB680022FC
:10301000C3F80C2202E000BF00E000BF1037BD463D
:1030200080BD00BFB0060020AD06002080B500AF17
:103030000F4B5B6E002B18D00E4B01221A700C4BFD
:103040001B78562B03D00A4B1B78762B04D1052115
:103050000948FFF75BFF02E00548FEF7F9F9044B6A
:1030600000225A66034B00221A7000BF80BD00BFC9
:10307000B0060020AD06002090AF000880B400AF7D
:1030800000BFBD4680BC704780B400AF034B012237
:103090001A7000BFBD4680BC704700BF440B0020C3
:1030A00080B500AFFFF728FF384B5B6A4FF0000197
:1030B0001846FDF73DFF0346002B55D0334B1A69E8
:1030C000324B5B6A19461046FDF72AFE034630492B
:1030D0001846FDF771FD03461A462C4BDA622B4B5E
:1030E0005A692A4B5B6A19461046FDF719FE0346DA
:1030F00027491846FDF760FD03461A46234B1A631D
:10310000224B9A69214B5B6A19461046FDF708FE6F
:1031100003461F491846FDF74FFD03461A461B4B51
:103120005A631A4BDA69194B5B6A19461046FDF768
:10313000F7FD034616491846FDF73EFD03461A46BD
:10314000124B9A63114B1A6A104B5B6A1946104670
:10315000FDF7E6FD03460E491846FDF72DFD034633
:103160001A460A4BDA630EE0084B094ADA62074B4B
:10317000074A1A63054B064A5A63044B044A9A638A
:10318000024B034ADA6300BF80BD00BF2007002066
:103190000000C8420000000090B583B000AFBA4BF9
:1031A0007B60BA4B5B8A9BB21846FDF7ADFC0346C9
:1031B00079681846FDF700FD0346B5491846FDF746
:1031C000AFFD03463B603868FDF72EF903460C4619
:1031D0001A462346A2A1D1E90001FCF7C5FF034628
:1031E0000C4618462146A0A3D3E90023FDF79EFA1A
:1031F00003460C46184621464FF00002A54BFCF74B
:10320000B5FF03460C4618462146FDF777FB0246FC
:10321000A14B9A629D4B1B889BB21846FDF7F2F8B2
:1032200093A3D3E90023FDF781FA03460C46184621
:103230002146FDF763FB034698491846FDF7BCFCA1
:1032400003461A46944B5A60904B5B889BB21846D3
:10325000FDF7D8F886A3D3E90023FDF767FA034604
:103260000C4618462146FDF749FB03468B49184694
:10327000FDF7A2FC03461A46874BDA60834B1B8896
:103280009BB21846FDF7BEF879A3D3E90023FDF7FA
:103290004DFA03460C4618462146FDF72FFB034620
:1032A00079681846FDF788FC03467D491846FDF706
:1032B00083FC03461A46784B1A60744B5B889BB2BA
:1032C0001846FDF79FF86AA3D3E90023FDF72EFA0D
:1032D00003460C4618462146FDF710FB0346796865
:1032E0001846FDF769FC03466D491846FDF764FC76
:1032F00003461A46684B9A60644B9B889BB21846FB
:10330000FDF702FC034679681846FDF755FC0346B5
:103310005F491846FDF704FD03463B603868FDF73A
:1033200083F855A3D3E90023FDF7D6F803460C46EE
:103330001846214652A3D3E90023FDF7F7F90346C7
:103340000C46184621464FF00002564BFDF7C4F8D4
:1033500003460C4618462146FDF7D0FA02464E4B6E
:103360001A614A4BDB889BB21846FDF7CDFB03463A
:1033700079681846FDF720FC034645491846FDF7D5
:10338000CFFC03463B603868FDF74EF83AA3D3E91B
:103390000023FDF7A1F803460C461846214638A342
:1033A000D3E90023FDF7C2F903460C46184621462F
:1033B0004FF000023B4BFDF78FF803460C461846D2
:1033C0002146FDF79BFA0246334B5A612F4B1B896E
:1033D0009BB21846FDF798FB034679681846FDF73F
:1033E000EBFB03462A491846FDF79AFC03463B606F
:1033F0003868FDF719F820A3D3E90023FDF76CF82E
:1034000003460C46184621461DA3D3E90023FDF7C9
:103410008DF903460C46184621464FF00002214B19
:10342000FDF75AF803460C4618462146FDF766FAA2
:103430000246194B9A61154B5B899BB21846FDF702
:1034400063FB034679681846FDF7B6FB034610494F
:103450001846FDF765FC03463B6025E0AFF30080AE
:10346000E17A14AE47E1F63F33333333333311405F
:103470000000000000FEAF403D0AD7A3707D384039
:10348000EC51B81E85EB034033335340E40A00206F
:1034900000F07F4500003940200700200000C842AE
:1034A00000007A4400408F403868FCF7BDFF4AA313
:1034B000D3E90023FDF710F803460C4618462146D1
:1034C00047A3D3E90023FDF731F903460C4618461C
:1034D00021464FF00002444BFCF7FEFF03460C462A
:1034E00018462146FDF70AFA0246404BDA61404B86
:1034F0009B899BB21846FDF707FB0346796818467F
:10350000FDF75AFB03463B491846FDF709FC034605
:103510003B603868FCF788FF2FA3D3E90023FCF752
:10352000DBFF03460C46184621462DA3D3E90023B2
:10353000FDF7FCF803460C46184621464FF0000202
:10354000294BFCF7C9FF03460C4618462146FDF7F8
:10355000D5F90246254B1A62254BDB899BB21846EA
:10356000FDF7D2FA034679681846FDF725FB0346B6
:1035700020491846FDF7D4FB03463B603868FCF74A
:1035800053FF15A3D3E90023FCF7A6FF03460C461F
:103590001846214612A3D3E90023FDF7C7F80346D6
:1035A0000C46184621464FF000020F4BFCF794FFE3
:1035B00003460C4618462146FDF7A0F902460B4B80
:1035C0005A62FFF76DFD0C4B00221A7000BF0C37DA
:1035D000BD4690BDAFF300803D0AD7A3707D384053
:1035E000EC51B81E85EB034000408F4020070020BF
:1035F000E40A002000F07F45440B002080B400AFB7
:1036000000BFBD4680BC704780B485B000AF154B8D
:103610009B69144A43F001039361124B9B6903F0C9
:103620000103BB60BB680F4BDB690E4A43F080535C
:10363000D3610C4BDB6903F080537B607B680A4BE2
:103640005B68FB60FB6823F0E063FB60FB6843F0B2
:103650000073FB60044AFB68536000BF1437BD462B
:1036600080BC7047001002400000014080B588B067
:1036700000AF786007F1100300221A605A609A6068
:10368000DA607B681B682D4A934252D12C4B9B69B0
:103690002B4A43F400739361294B9B6903F4007335
:1036A000FB60FB68264B9B69254A43F0040393614A
:1036B000234B9B6903F00403BB60BB68FF233B61A2
:1036C00003237B6107F1100319461E4801F006FA37
:1036D0001D4B1E4A1A601C4B00225A601A4B0022D6
:1036E0009A60194B8022DA60174B4FF480721A618E
:1036F000154B4FF480625A61134B20229A61124B92
:103700004FF48052DA61104800F084FF0346002B2A
:1037100001D0FFF773FF7B680B4A1A620A4A7B6885
:10372000536200220021122000F03DFF122000F021
:1037300056FF00BF2037BD4680BD00BF00240140BA
:103740000010024000080140FC0A0020080002406E
:1037500080B588B000AF786007F1100300221A60CE
:103760005A609A60DA607B681B68204A934239D1BC
:103770001F4BDB691E4A43F48043D3611C4BDB695A
:1037800003F48043FB60FB68194B9B69184A43F0C4
:1037900008039361164B9B6903F00803BB60BB6889
:1037A0004FF420433B6102237B610323FB6107F15C
:1037B000100319460F4801F091F94FF480433B6123
:1037C00000237B610123BB6107F1100319460948FF
:1037D00001F084F900220021242000F0E4FE2420DE
:1037E00000F0FDFE00BF2037BD4680BD0038004020
:1037F00000100240000C014080B400AF00BFBD4685
:1038000080BC704780B400AFFEE780B400AFFEE735
:1038100080B400AFFEE780B400AFFEE780B400AF35
:1038200000BFBD4680BC704780B400AF00BFBD463E
:1038300080BC704780B400AF00BFBD4680BC7047FD
:1038400080B500AF00F008F9FFF718FC00BF80BD9D
:1038500080B500AF034801F00DF8FFF715FC00BF7D
:1038600080BD00BFFC0A002080B500AF024800F018
:10387000E7FA00BF80BD00BFB00A002080B500AFEE
:10388000024801F004FC00BF80BD00BFE01700202B
:1038900080B500AF034801F0FAFB0348FFF77AFB5D
:1038A00000BF80BDE01700204C0B002080B500AFAA
:1038B000024803F06DF800BF80BD00BF7C08002007
:1038C00080B584B000AF7860114B1B68002B02D12B
:1038D0000F4B104A1A600E4B1B68FB600C4B1A68AA
:1038E0007B6813446A46934207D906F02BFB0246D5
:1038F0000C2313604FF0FF3306E0054B1A687B681A
:103900001344034A1360FB6818461037BD4680BD58
:1039100068030020501A002080B400AF154B1B68CC
:10392000144A43F001031360124B5A681149124BB9
:1039300013404B600F4B1B680E4A23F0847323F433
:10394000803313600B4B1B680A4A23F480231360F7
:10395000084B5B68074A23F4FE035360054B4FF4A2
:103960001F029A60054B4FF000629A6000BFBD468F
:1039700080BC7047001002400000FFF800ED00E03E
:10398000002103E00B4B5B58435004310A480B4BBA
:1039900042189A42F6D30A4A02E0002342F8043B56
:1039A000084B9A42F9D3FFF7B7FF06F0D1FAFFF7B9
:1039B0004DF8704794B10008000000204C0300202F
:1039C0004C030020501A0020FEE7000080B500AF35
:1039D000084B1B68074A43F010031360032000F0F4
:1039E000D7FD002000F008F8FFF70EFE0023184670
:1039F00080BD00BF0020024080B582B000AF78607B
:103A0000124B1A68124B1B7819464FF47A73B3FBAA
:103A1000F1F3B2FBF3F3184600F0EFFD0346002B81
:103A200001D001230EE07B680F2B0AD800227968B1
:103A30004FF0FF3000F0B7FD064A7B6813600023AB
:103A400000E0012318460837BD4680BD0000002075
:103A5000080000200400002080B400AF054B1B7854
:103A60001A46054B1B681344034A136000BFBD464A
:103A700080BC704708000020480B002080B400AFD5
:103A8000024B1B681846BD4680BC7047480B00209F
:103A900080B584B000AF7860FFF7F0FFB8607B6856
:103AA000FB60FB68B3F1FF3F05D0094B1B781A465A
:103AB000FB681344FB6000BFFFF7E0FF0246BB68F2
:103AC000D31AFA689A42F7D800BF1037BD4680BDB6
:103AD0000800002080B586B000AF78600023FB7539
:103AE00000233B610023BB600023FB607B68002B4D
:103AF00001D10123BEE07B689B68002B7B689B6A39
:103B0000002B09D17B680022DA627B68002283F8EF
:103B100024207868FFF7AAFD786800F0C3FB03460D
:103B2000FB757B689B6A03F01003002B40F09980C3
:103B3000FB7D002B40F095807B689B6A23F48853C3
:103B400023F0020343F002027B689A627B685A68A2
:103B50007B68DB691A437B681B7B5B001343BA6895
:103B60001343BB607B689B68B3F5807F03D07B68A1
:103B70009B68012B02D14FF4807300E000233A6967
:103B800013433B617B681B7D012B19D17B681B7B39
:103B9000002B09D17B689B69013B5A033B691343A6
:103BA00043F400633B610BE07B689B6A43F02002B7
:103BB0007B689A627B68DB6A43F001027B68DA62A9
:103BC0007B681B685B6823F469417B681B683A6902
:103BD0000A435A607B681B689A68284B13407A68CE
:103BE0001268B9680B4393607B689B68B3F5807F6C
:103BF00003D07B689B68012B04D17B681B69013B68
:103C00001B05FB607B681B68DB6A23F470017B6823
:103C10001B68FA680A43DA627B681B689A68184B6B
:103C20001340BA689A420BD17B680022DA627B6843
:103C30009B6A23F0030343F001027B689A6218E059
:103C40007B689B6A23F0120343F010027B689A6240
:103C50007B68DB6A43F001027B68DA620123FB7553
:103C600007E07B689B6A43F010027B689A6201233D
:103C7000FB75FB7D18461837BD4680BDFDF7E1FF9B
:103C8000FE0E1FFF80B586B000AFF860B9607A60A5
:103C90000023FB75FB681B68644A934204D0FB68F1
:103CA0001B68634A934206D1604B5B6803F4702340
:103CB000002B40F0B380FB6893F82430012B01D136
:103CC0000223AEE0FB68012283F82420F86800F0AC
:103CD00097FA0346FB75FB7D002B40F09A80FB684A
:103CE0009B6A23F4706323F0010343F48072FB6842
:103CF0009A62FB681B684E4A934205D14B4B5B6846
:103D000003F47023002B15D1FB689B6A23F4801207
:103D1000FB689A62FB681B685B6803F48063002B96
:103D200026D0FB689B6A23F4405343F48052FB681F
:103D30009A621DE0FB689B6A43F48012FB689A62FA
:103D4000FB681B68394A934204D0FB681B68384AF9
:103D500093420DD1354B5B6803F48063002B07D091
:103D6000FB689B6A23F4405343F48052FB689A62D9
:103D7000FB689B6A03F48053002B06D0FB68DB6A68
:103D800023F00602FB68DA6202E0FB680022DA62D6
:103D9000FB68002283F82420FB681B6A254A9A628C
:103DA000FB681B6A244ADA62FB681B6A234A1A63AF
:103DB000FB681B686FF002021A60FB681B689A6858
:103DC000FB681B6842F480729A60FB68186AFB68A3
:103DD0001B684C331946BA687B6800F075FCFB68B9
:103DE0001B689B6803F46023B3F5602F08D1FB6860
:103DF0001B689A68FB681B6842F4A0029A600FE097
:103E0000FB681B689A68FB681B6842F480129A6022
:103E100006E0FB68002283F8242001E00123FB7503
:103E2000FB7D18461837BD4680BD00BF0024014009
:103E3000002801401943000895430008B1430008D9
:103E400080B582B000AF78607B681B685B6803F068
:103E50002003202B40D17B681B681B6803F0020302
:103E6000022B39D17B689B6A03F01003002B05D12C
:103E70007B689B6A43F400727B689A627B681B686C
:103E80009B6803F46023B3F5602F1DD17B681B7B17
:103E9000002B19D17B681B685A687B681B6822F06D
:103EA00020025A607B689B6A23F480727B689A6266
:103EB0007B689B6A03F48053002B05D17B689B6A67
:103EC00043F001027B689A62786800F07CF87B68B6
:103ED0001B686FF012021A607B681B685B6803F056
:103EE0008003802B4FD17B681B681B6803F00403A1
:103EF000042B48D17B689B6A03F01003002B05D18B
:103F00007B689B6A43F400527B689A627B681B68FB
:103F10009B6803F4E043B3F5E04F12D07B681B6865
:103F20005B6803F48063002B25D17B681B689B686A
:103F300003F46023B3F5602F1DD17B681B7B002B3E
:103F400019D17B681B685A687B681B6822F0800265
:103F50005A607B689B6A23F480527B689A627B6814
:103F60009B6A03F48073002B05D17B689B6A43F046
:103F700001027B689A62786800F034FA7B681B68FB
:103F80006FF00C021A607B681B685B6803F04003EB
:103F9000402B14D17B681B681B6803F00103012BC5
:103FA0000DD17B689B6A43F480327B689A627868A3
:103FB00000F01BF87B681B686FF001021A6000BFFD
:103FC0000837BD4680BD80B483B000AF786000BFC5
:103FD0000C37BD4680BC704780B483B000AF7860BA
:103FE00000BF0C37BD4680BC704780B483B000AFC3
:103FF000786000BF0C37BD4680BC704780B483B08A
:1040000000AF786000BF0C37BD4680BC7047000031
:1040100080B485B000AF786039600023FB73002363
:10402000BB607B6893F82430012B01D10223DCE0D4
:104030007B68012283F824203B685B68062B1CD830
:104040007B681B68596B3B685A6813469B00134496
:10405000053B1F2202FA03F3DB4319403B68186853
:104060003B685A6813469B001344053B00FA03F271
:104070007B681B680A435A633CE03B685B680C2B17
:104080001CD87B681B68196B3B685A6813469B00F9
:104090001344233B1F2202FA03F3DB4319403B681E
:1040A00018683B685A6813469B001344233B00FA88
:1040B00003F27B681B680A431A631BE07B681B687A
:1040C000D96A3B685A6813469B001344413B1F2240
:1040D00002FA03F3DB4319403B6818683B685A68EF
:1040E00013469B001344413B00FA03F27B681B68B4
:1040F0000A43DA623B681B68092B1CD97B681B6882
:10410000D9683B681A6813465B0013441E3B0722BC
:1041100002FA03F3DB4319403B6898683B681A686E
:1041200013465B0013441E3B00FA03F27B681B68D6
:104130000A43DA6019E07B681B6819693B681A68F2
:1041400013465B001344072202FA03F3DB431940D2
:104150003B6898683B681A6813465B00134400FA92
:1041600003F27B681B680A431A613B681B68102BCB
:1041700003D03B681B68112B32D17B681B681D4A3A
:10418000934225D17B681B689B6803F40003002BD6
:1041900026D17B681B689A687B681B6842F4000222
:1041A0009A603B681B68102B1AD1134B1B68134A8B
:1041B000A2FB03239A0C13469B0013445B00BB60D5
:1041C00002E0BB68013BBB60BB68002BF9D107E094
:1041D0007B689B6A43F020027B689A620123FB7331
:1041E0007B68002283F82420FB7B18461437BD46E9
:1041F00080BC7047002401400000002083DE1B4388
:1042000080B584B000AF78600023FB600023BB6002
:104210007B681B689B6803F00103012B39D07B6826
:104220001B689A687B681B6842F001029A601B4B0E
:104230001B681B4AA2FB03239B0CBB6002E0BB680C
:10424000013BBB60BB68002BF9D1FFF717FCF8609E
:1042500018E0FFF713FC0246FB68D31A022B11D9B2
:104260007B689B6A43F010027B689A627B68DB6A1A
:1042700043F001027B68DA627B68002283F8242025
:10428000012307E07B681B689B6803F00103012B97
:10429000DFD1002318461037BD4680BD0000002046
:1042A00083DE1B4380B584B000AF78600023FB60E1
:1042B0007B681B689B6803F00103012B27D17B6897
:1042C0001B689A687B681B6822F001029A60FFF7FE
:1042D000D5FBF86014E0FFF7D1FB0246FB68D31A68
:1042E000022B0DD97B689B6A43F010027B689A62AF
:1042F0007B68DB6A43F001027B68DA62012307E036
:104300007B681B689B6803F00103012BE3D000234B
:1043100018461037BD4680BD80B584B000AF7860C8
:104320007B685B6AFB60FB689B6A03F05003002BB1
:1043300027D1FB689B6A43F40072FB689A62FB68B2
:104340001B689B6803F46023B3F5602F15D1FB68ED
:104350001B7B002B11D1FB689B6A23F48072FB68E6
:104360009A62FB689B6A03F48053002B05D1FB68BB
:104370009B6A43F00102FB689A62F868FFF723FE2C
:1043800004E0FB681B6A1B6B7868984700BF103716
:10439000BD4680BD80B584B000AF78607B685B6A45
:1043A000FB60F868FFF718FE00BF1037BD4680BD00
:1043B00080B584B000AF78607B685B6AFB60FB68A7
:1043C0009B6A43F04002FB689A62FB68DB6A43F039
:1043D0000402FB68DA62F868FFF710FE00BF1037CE
:1043E000BD4680BD80B483B000AF786000BF0C379D
:1043F000BD4680BC7047000080B485B000AF7860D7
:104400007B6803F00703FB600C4BDB68BB60BA689A
:104410004FF6FF031340BB60FB681A02BB681343EF
:1044200043F0BF6343F40033BB60044ABB68D3600E
:1044300000BF1437BD4680BC704700BF00ED00E0F0
:1044400080B400AF044BDB681B0A03F00703184677
:10445000BD4680BC704700BF00ED00E080B483B073
:1044600000AF0346FB7197F90730002B0BDBFB799C
:1044700003F01F02064997F907305B09012000FA93
:1044800002F241F8232000BF0C37BD4680BC7047C4
:1044900000E100E080B483B000AF03463960FB71F7
:1044A00097F90730002B0ADB3B68DAB20C4997F921
:1044B00007301201D2B20B4483F800230AE03B68B4
:1044C000DAB20849FB7903F00F03043B1201D2B2C0
:1044D0000B441A7600BF0C37BD4680BC704700BF46
:1044E00000E100E000ED00E080B489B000AFF860CA
:1044F000B9607A60FB6803F00703FB61FB69C3F1F5
:104500000703042B28BF0423BB61FB690433062B7C
:1045100002D9FB69033B00E000237B614FF0FF32CF
:10452000BB6902FA03F3DA43BB681A407B699A401D
:104530004FF0FF317B6901FA03F3D9437B680B40ED
:10454000134318462437BD4680BC704780B582B0FF
:1045500000AF78607B68013BB3F1807F01D301231A
:104560000FE00A4A7B68013B53600F214FF0FF3098
:10457000FFF790FF054B00229A60044B07221A6058
:10458000002318460837BD4680BD00BF10E000E09C
:1045900080B582B000AF78607868FFF72DFF00BF6C
:1045A0000837BD4680BD80B586B000AF0346B96010
:1045B0007A60FB7300237B61FFF742FF78617A68C2
:1045C000B9687869FFF790FF024697F90F301146F6
:1045D0001846FFF75FFF00BF1837BD4680BD80B5A6
:1045E00082B000AF0346FB7197F907301846FFF71A
:1045F00035FF00BF0837BD4680BD80B582B000AF33
:1046000078607868FFF7A2FF034618460837BD4672
:1046100080BD000080B485B000AF78600023FB60EF
:104620007B68002B01D1012343E07B681B681A469D
:10463000224B1344224AA2FB03231B099A007B68E6
:104640001A647B681F4ADA637B68022283F82120A0
:104650007B681B681B68FB60FB6823F47F5323F0B7
:104660003003FB607B685A687B689B681A437B68F1
:10467000DB681A437B681B691A437B685B691A43D2
:104680007B689B691A437B68DB691343FA681343B1
:10469000FB607B681B68FA681A607B6800229A637B
:1046A0007B68012283F821207B68002283F8202088
:1046B000002318461437BD4680BC7047F8FFFDBF85
:1046C000CDCCCCCC0000024080B586B000AFF86005
:1046D000B9607A603B600023FB75FB6893F820307B
:1046E000012B01D102234AE0FB68012283F820203C
:1046F000FB6893F82130012B3AD1FB68022283F842
:104700002120FB6800229A63FB681B681A68FB681B
:104710001B6822F001021A603B687A68B968F86881
:1047200000F0AEF9FB68DB6A002B08D0FB681B6861
:104730001A68FB681B6842F00E021A600FE0FB6803
:104740001B681A68FB681B6822F004021A60FB6889
:104750001B681A68FB681B6842F00A021A60FB6853
:104760001B681A68FB681B6842F001021A6005E0CA
:10477000FB68002283F820200223FB75FB7D18468E
:104780001837BD4680BD000080B584B000AF7860AA
:104790000023FB737B6893F82130022B05D07B68E4
:1047A00004229A630123FB7351E07B681B681A683B
:1047B0007B681B6822F00E021A607B681B681A680F
:1047C0007B681B6822F001021A607B681B68224A22
:1047D000934229D07B681B68204A934222D07B6891
:1047E0001B681F4A93421AD07B681B681D4A93427C
:1047F00012D07B681B681C4A93420AD07B681B68F6
:104800001A4A934202D14FF480130EE04FF08073A6
:104810000BE04FF4803308E04FF4805305E04FF491
:10482000807302E0102300E00123114A53607B688B
:10483000012283F821207B68002283F820207B68F6
:104840005B6B002B03D07B685B6B78689847FB7BC6
:1048500018461037BD4680BD080002401C000240CB
:104860003000024044000240580002406C00024008
:104870000000024080B584B000AF78607B68DB6BDD
:104880001B68FB607B681B681B68BB607B681B6CDC
:1048900004229A40FB681340002B4FD0BB6803F002
:1048A0000403002B4AD07B681B681B6803F02003BD
:1048B000002B07D17B681B681A687B681B6822F095
:1048C00004021A607B681B68664A934229D07B68A1
:1048D0001B68654A934222D07B681B68634A9342F7
:1048E0001AD07B681B68624A934212D07B681B68AF
:1048F000604A93420AD07B681B685F4A934202D1A8
:104900004FF480030EE04FF080630BE04FF4802300
:1049100008E04FF4804305E04FF4806302E0402359
:1049200000E00423554A53607B68DB6A002B00F0EB
:1049300094807B68DB6A786898478EE07B681B6CA4
:1049400002229A40FB681340002B56D0BB6803F04C
:104950000203002B51D07B681B681B6803F0200307
:10496000002B0BD17B681B681A687B681B6822F0E0
:104970000A021A607B68012283F821207B681B6889
:10498000384A934229D07B681B68374A934222D029
:104990007B681B68354A93421AD07B681B68344A8F
:1049A000934212D07B681B68324A93420AD07B68DC
:1049B0001B68314A934202D14FF400130EE04FF0CE
:1049C00000730BE04FF4003308E04FF4005305E0B0
:1049D0004FF4007302E0202300E00223274A5360D3
:1049E0007B68002283F820207B689B6A002B34D0F0
:1049F0007B689B6A786898472FE07B681B6C08226D
:104A00009A40FB681340002B28D0BB6803F00803D2
:104A1000002B23D07B681B681A687B681B6822F018
:104A20000E021A607B681A6C7B68DB6B012101FA4D
:104A300002F25A607B6801229A637B68012283F844
:104A400021207B68002283F820207B681B6B002BD1
:104A500004D07B681B6B7868984700BF00BF103795
:104A6000BD4680BD080002401C00024030000240EC
:104A700044000240580002406C0002400000024026
:104A800080B485B000AFF860B9607A603B60FB68C5
:104A90001A6CFB68DB6B012101FA02F25A60FB68B9
:104AA0001B683A685A60FB685B68102B08D1FB688A
:104AB0001B687A689A60FB681B68BA68DA6007E06E
:104AC000FB681B68BA689A60FB681B687A68DA60E2
:104AD00000BF1437BD4680BC7047000080B48BB067
:104AE00000AF7860396000237B6200233B6227E1DE
:104AF00001227B6A02FA03F3FB613B681B68FA69D7
:104B00001340BB61BA69FB699A4240F016813B6869
:104B10005B68122B34D0122B0DD8022B2BD0022B1A
:104B200004D8002B31D0012B1CD048E0032B43D0FC
:104B3000112B1BD043E0894A934226D0874A9342E7
:104B400006D8874A934220D0864A93421DD036E049
:104B5000854A934219D0854A934216D0844A93429B
:104B600013D02CE03B68DB683B6228E03B68DB68E5
:104B700004333B6223E03B68DB6808333B621EE0A2
:104B80003B68DB680C333B6219E03B689B68002B99
:104B900002D104233B6212E03B689B68012B05D1E4
:104BA00008233B627B68FA691A6108E008233B62CC
:104BB0007B68FA695A6102E000233B6200BFBB696F
:104BC000FF2B01D87B6801E07B6804337B61BB6904
:104BD000FF2B02D87B6A9B0002E07B6A083B9B00AC
:104BE0003B617B691A680F213B6901FA03F3DB43E0
:104BF0001A40396A3B6901FA03F31A437B691A6068
:104C00003B685B6803F08053002B00F09680594BA3
:104C10009B69584A43F001039361564B9B6903F02B
:104C20000103BB60BB68544A7B6A9B08023352F89D
:104C30002330FB607B6A03F003039B000F2202FA20
:104C400003F3DB43FA681340FB607B684B4A9342F3
:104C500013D07B684A4A93420DD07B68494A9342FD
:104C600007D07B68484A934201D1032306E004231E
:104C700004E0022302E0012300E000237A6A02F04C
:104C8000030292009340FA681343FB603A497B6A3F
:104C90009B080233FA6841F823203B685B6803F401
:104CA0008033002B06D0394B1A683849BB6913434F
:104CB0000B6006E0354B1A68BB69DB433349134090
:104CC0000B603B685B6803F40033002B06D02F4B6E
:104CD0005A682E49BB6913434B6006E02B4B5A6858
:104CE000BB69DB43294913404B603B685B6803F4B5
:104CF0008013002B06D0254B9A682449BB691343C7
:104D00008B6006E0214B9A68BB69DB431F49134067
:104D10008B603B685B6803F40013002B06D01B4BD1
:104D2000DA681A49BB691343CB6006E0174BDA68AF
:104D3000BB69DB4315491340CB607B6A01337B625F
:104D40003B681A687B6A22FA03F3002B7FF4D0AE2B
:104D500000BF2C37BD4680BC704700BF000021104B
:104D6000000011100000121000003110000032107D
:104D70000000221000100240000001400008014025
:104D8000000C0140001001400014014000040140EB
:104D900080B483B000AF78600B467B8013467B7095
:104DA0007B78002B03D07A887B681A6103E07B88CC
:104DB0001A047B681A6100BF0C37BD4680BC70477F
:104DC00080B483B000AF78600B467B807B68DA6884
:104DD0007B881340002B03D07A887B685A6102E0FD
:104DE0007A887B681A6100BF0C37BD4680BC70476B
:104DF00080B584B000AF78607B68002B01D10123BF
:104E00002BE07B681B684CF6CC421A607B681B6801
:104E100045F255521A607B681B687A6852685A607E
:104E20007B681B687A6892689A60FEF727FEF860D4
:104E300008E0FEF723FE0246FB68D31A302B01D9A7
:104E400003230AE07B681B68DB68002BF1D17B68D9
:104E50001B684AF6AA221A60002318461037BD467E
:104E600080BD80B483B000AF78607B681B684AF671
:104E7000AA221A60002318460C37BD4680BC704732
:104E8000F0B58BB006AF78607B68002B01D10123B1
:104E9000D3E07B6893F82932DBB2002B06D17B6824
:104EA000002283F82822786804F0A6FD7B6803229C
:104EB00083F829227B681B68184601F01DFF7B6878
:104EC0001B683B607E686D4606F110040FCC0FC571
:104ED00023682B60331D0ECB386801F0E6FE0346D5
:104EE000002B05D07B68022283F829220123A4E04D
:104EF0007B681B680021184601F01AFF0023FB7332
:104F000035E0FB7B7A685B011344293301221A7078
:104F1000FB7B7A685B0113442833FA7B1A70FB7BB6
:104F2000FA7B91B27A685B01134436330A461A80E1
:104F3000FB7B7A685B0113442B3300221A70FB7BE6
:104F40007A685B011344383300221A60FB7B7A686D
:104F50005B0113443C3300221A60FB7B7A68023306
:104F60005B01134400221A60FB7B0133FB73FA7B65
:104F70007B685B689A42C4D30023FB7331E0FB7B00
:104F80007A685B01134403F2291300221A70FB7B39
:104F90007A685B01134403F59473FA7B1A70FB7B08
:104FA0007A685B01134403F22B1300221A70FB7B17
:104FB0007A685B01134403F59C7300221A60FB7B43
:104FC0007A685B01134403F59E7300221A60FB7B31
:104FD0007A680A335B01134400221A60FB7B0133B9
:104FE000FB73FA7B7B685B689A42C8D37B681B685B
:104FF0003B607E686D4606F110040FCC0FC5236838
:105000002B60331D0ECB386801F09EFE0346002B4B
:1050100005D07B68022283F8292201230DE07B68FA
:10502000002283F824207B68012283F829227B68F0
:105030001B68184602F0DBFE002318461437BD46F5
:10504000F0BD80B582B000AF78607B6893F82832FD
:10505000012B01D1022316E07B68012283F828226C
:105060000121786804F037FF7B681B68184602F05E
:10507000B4FE7B681B68184601F027FE7B6800229F
:1050800083F82822002318460837BD4680BD80B526
:1050900082B000AF78607B681B68184602F0B1FEF2
:1050A000034603F40043B3F5004F02D1786800F0E3
:1050B000F3FA7B681B68184602F0A3FE034603F46C
:1050C0008063B3F5806F12D17B681B68B3F84430FE
:1050D0009AB27B681B6822F4806292B2A3F84420E3
:1050E000786804F006FD0021786800F0DEF87B683F
:1050F0001B68184602F085FE034603F48043B3F5AF
:10510000804F0BD17B681B68B3F844309AB27B6840
:105110001B6822F4804292B2A3F844207B681B688B
:10512000184602F06EFE034603F40053B3F5005F29
:105130000BD17B681B68B3F844309AB27B681B685C
:1051400022F4005292B2A3F844207B681B681846F0
:1051500002F057FE034603F48053B3F5805F26D177
:105160007B681B68B3F840309AB27B681B6822F0FA
:10517000040292B2A3F840207B681B68B3F8403069
:105180009AB27B681B6822F0080292B2A3F8402012
:10519000786804F0E7FC7B681B68B3F844309AB287
:1051A0007B681B6822F4805292B2A3F844207B688B
:1051B0001B68184602F025FE034603F40063B3F5AE
:1051C000006F3DD17B681B68B3F840309AB27B68B2
:1051D0001B6842F0080292B2A3F840207B681B686B
:1051E000B3F844309AB27B681B6822F4006292B232
:1051F000A3F844207B681B68B3F840309AB27B6800
:105200001B6842F0040292B2A3F840207B681B683E
:10521000184602F0F6FD034603F48053B3F5805FB1
:105220000BD17B681B68B3F844309AB27B681B686B
:1052300022F4805292B2A3F84420786804F078FCFB
:105240007B681B68184602F0DCFD034603F400731C
:10525000B3F5007F0ED17B681B68B3F844309AB277
:105260007B681B6822F4007292B2A3F8442078682D
:1052700004F031FC7B681B68184602F0C2FD03464F
:1052800003F48073B3F5807F0BD17B681B68B3F8A0
:1052900044309AB27B681B6822F4807292B2A3F801
:1052A000442000BF0837BD4680BD80B582B000AF46
:1052B00078600B46FB707B6893F82832012B01D194
:1052C000022313E07B68012283F828227B68FA78A6
:1052D00083F824207B681B68FA781146184602F090
:1052E00069FD7B68002283F82822002318460837CE
:1052F000BD4680BD80B584B000AF786008461146D9
:105300001A460346FB700B463B801346BB700023D6
:10531000FB7297F90330002B0BDAFB7803F00703DD
:105320005B0128337A681344FB60FB6801225A70E2
:105330000BE0FB7803F007035B0103F594737A68D5
:105340001344FB60FB6800225A70FB7803F00703EC
:10535000DAB2FB681A703A88FB681A61FB68BA789F
:10536000DA70FB685B78002B04D0FB681B789AB27C
:10537000FB68DA81BB78022B02D1FB6800221A712C
:105380007B6893F82832012B01D102230EE07B6861
:10539000012283F828227B681B68F968184601F00F
:1053A000F7FC7B68002283F82822FB7A1846103726
:1053B000BD4680BD80B584B000AF78600B46FB7001
:1053C00097F90330002B0BDAFB7803F007035B013E
:1053D00028337A681344FB60FB6801225A700BE0A3
:1053E000FB7803F007035B0103F594737A681344B9
:1053F000FB60FB6800225A70FB7803F00703DAB207
:10540000FB681A707B6893F82832012B01D10223C4
:105410000EE07B68012283F828227B681B68F9680C
:10542000184601F0A3FF7B68002283F8282200239E
:1054300018461037BD4680BD80B586B000AFF86015
:105440007A603B600B46FB72FB7A03F007035B015B
:1054500003F59473FA6813447B617B697A685A6137
:105460007B693A689A617B690022DA617B69002274
:105470005A70FB7A03F00703DAB27B691A70FB7A81
:1054800003F00703002B06D1FB681B6879691846F7
:1054900002F002F905E0FB681B687969184602F022
:1054A000FBF8002318461837BD4680BD80B483B092
:1054B00000AF78600B46FB70FB7803F007037A6857
:1054C0000A335B01134404331B6818460C37BD468E
:1054D00080BC704780B586B000AFF8607A603B60F2
:1054E0000B46FB72FB7A03F007035B012833FA6873
:1054F00013447B617B697A685A617B693A689A6177
:105500007B690022DA617B6901225A70FB7A03F021
:105510000703DAB27B691A70FB7A03F00703002BEA
:1055200006D1FB681B687969184602F0B5F805E0FA
:10553000FB681B687969184602F0AEF8002318462C
:105540001837BD4680BD80B584B000AF78600B468B
:10555000FB70FB7803F007027B685B689A4201D915
:10556000012346E097F90330002B0BDAFB7803F0B8
:1055700007035B0128337A681344FB60FB68012250
:105580005A7009E0FB785B0103F594737A68134461
:10559000FB60FB6800225A70FB6801229A70FB785E
:1055A00003F00703DAB2FB681A707B6893F82832BD
:1055B000012B01D102231CE07B68012283F8282201
:1055C0007B681B68F968184602F01EFBFB7803F045
:1055D0000703002B08D17B681A687B6803F50C73FE
:1055E0001946104602F01CFC7B68002283F8282232
:1055F000002318461037BD4680BD80B584B000AF8B
:1056000078600B46FB70FB7803F00F027B685B68E9
:105610009A4201D901233AE097F90330002B0BDAC3
:10562000FB7803F007035B0128337A681344FB60BF
:10563000FB6801225A700BE0FB7803F007035B0163
:1056400003F594737A681344FB60FB6800225A7078
:10565000FB6800229A70FB7803F00703DAB2FB685C
:105660001A707B6893F82832012B01D102230EE0D7
:105670007B68012283F828227B681B68F96818463A
:1056800002F004FB7B68002283F8282200231846DE
:105690001037BD4680BD000090B589B000AF78607E
:1056A00082E27B681B68B3F84430FB82FB8ADBB282
:1056B00003F00F037B757B7D002B40F04281FB8A5A
:1056C00003F01003002B51D17B681B681B889BB231
:1056D00023F4E14323F070039CB27B681A686FEAFD
:1056E00044436FEA53439BB213807B682833FB60CB
:1056F0007B681B68B3F850309BB21A46FB681B7876
:10570000DB00134402335B007A681268134403F52C
:1057100080631B88C3F30902FB68DA61FB685A697E
:10572000FB68DB691A44FB685A610021786804F061
:10573000BBF97B6893F82430DBB2002B00F0348295
:10574000FB689B69002B40F02F827B6893F8243024
:10575000DBB263F07F03DAB27B681B6892B2A3F816
:105760004C207B68002283F824201DE27B6803F52F
:105770009473FB607B681B681B887B827B8A03F4C5
:105780000063002B33D07B681B68B3F850309BB2AA
:105790001A46FB681B78DB00134406335B007A680B
:1057A0001268134403F580631B88C3F30902FB6886
:1057B000DA617B6818687B6803F50C71FB68DA882E
:1057C000FB68DB699BB202F07AFB7B681B681B8875
:1057D0009AB240F68F7313409CB27B681B6844F00A
:1057E000800292B21A80786804F034F9DCE1B7F9EB
:1057F0001230002B80F2D8817B681B681B889AB21C
:1058000040F68F7313409CB27B681B6844F08002A3
:1058100092B21A807B681B68B3F850309BB21A466C
:10582000FB681B78DB00134406335B007A68126860
:10583000134403F580631B88C3F30902FB68DA6134
:10584000FB68DB69002B19D0FB685B69002B15D066
:105850007B681868FB685969FB68DA88FB68DB6954
:105860009BB202F02CFBFB685A69FB68DB691A44A7
:10587000FB685A610021786804F0FEF87B681B68B9
:105880001C467B681B68B3F850309BB21C4404F282
:105890000C431C46FB681B69002B0ED123889BB26E
:1058A00023F4F8439BB2238023889BB26FEA4343DF
:1058B0006FEA53439BB223802DE0FB681B693E2BAC
:1058C00012D8FB681B695B08BB61FB681B6903F0AE
:1058D0000103002B02D0BB690133BB61BB699BB2E2
:1058E0009B029BB2238016E0FB681B695B09BB61CE
:1058F000FB681B6903F01F03002B02D1BB69013B4E
:10590000BB61BB699BB29B029BB26FEA43436FEAE8
:1059100053439BB223807B681B681B889BB223F494
:10592000804323F070039CB284F480539CB284F4CF
:1059300000539CB27B681A68A24B23439BB213802E
:1059400032E17B681B681A467B7D9B0013441B88F1
:105950007B82B7F91230002B80F2D1807B681B6804
:105960001A467B7D9B0013441B889AB240F68F73C6
:1059700013409CB27B681B681A467B7D9B001344D6
:1059800044F0800292B21A807B7D5B0103F5947330
:105990007A681344FB60FB681B7B002B21D17B687A
:1059A0001B68B3F850309BB21A46FB681B78DB00CB
:1059B000134406335B007A681268134403F580636E
:1059C0001B88C3F30903FB83FB8B002B72D07B681E
:1059D0001868FB685969FB68DA88FB8B02F06FFA7C
:1059E00068E07B681B681A46FB681B789B001344C1
:1059F0001B889BB203F48043002B21D07B681B687B
:105A0000B3F850309BB21A46FB681B78DB00134496
:105A100002335B007A681268134403F580631B88C5
:105A2000C3F30903FB83FB8B002B2AD07B68186828
:105A3000FB685969FB681A89FB8B02F040FA20E089
:105A40007B681B68B3F850309BB21A46FB681B7822
:105A5000DB00134406335B007A681268134403F5D5
:105A600080631B88C3F30903FB83FB8B002B08D0E7
:105A70007B681868FB685969FB685A89FB8B02F0E0
:105A80001EFA7B681B681A46FB681B789B00134450
:105A90001B889BB223F4E04323F070039CB27B6825
:105AA0001B681A46FB681B789B001A44464B23432D
:105AB0009BB21380FB68DA69FB8B1A44FB68DA61DE
:105AC000FB685A69FB8B1A44FB685A61FB689B6947
:105AD000002B04D0FA8BFB681B699A4206D2FB6844
