:020000040800F2
:1000000000500020C93D0008413C00084D3C00085C
:10001000533C0008593C00085F3C00080000000009
:10002000000000000000000000000000653C000827
:10003000713C0008000000007D3C0008893C00087D
:10004000113E0008113E0008113E0008113E000854
:10005000113E0008113E0008113E0008113E000844
:10006000113E0008113E0008113E0008993C0008AE
:10007000113E0008113E0008113E0008113E000824
:10008000113E0008113E0008B13C0008C53C0008C4
:10009000D93C0008113E0008113E0008113E00083E
:1000A000113E0008113E0008113E0008113E0008F4
:1000B000113E0008113E0008113E0008113E0008E4
:1000C000113E0008113E0008113E0008113E0008D4
:1000D000F53C0008113E0008113E0008113E0008E2
:1000E000113E0008113E0008113E0008000000000B
:1000F0000000000000000000000000000000000000
:0C01000000000000000000005FF808F1A3
:1001100010B5054C237833B9044B13B10448AFF341
:1001200000800123237010BD4C030020000000005C
:10013000B4AF000808B5034B1BB103490348AFF344
:10014000008008BD0000000050030020B4AF00088C
:10015000034613F8012B002AFBD1181A0138704707
:1001600081F0004102E000BF83F0004330B54FEA68
:1001700041044FEA430594EA050F08BF90EA020FD5
:100180001FBF54EA000C55EA020C7FEA645C7FEA68
:10019000655C00F0E2804FEA5454D4EB5555B8BF8B
:1001A0006D420CDD2C4480EA020281EA030382EAFC
:1001B000000083EA010180EA020281EA0303362D8E
:1001C00088BF30BD11F0004F4FEA01314FF4801C61
:1001D0004CEA113102D0404261EB410113F0004F73
:1001E0004FEA03334CEA133302D0524263EB43032A
:1001F00094EA050F00F0A780A4F10104D5F1200EC8
:100200000DDB02FA0EFC22FA05F2801841F1000122
:1002100003FA0EF2801843FA05F359410EE0A5F1F6
:1002200020050EF1200E012A03FA0EFC28BF4CF027
:10023000020C43FA05F3C01851EBE37101F00045DD
:1002400007D54FF0000EDCF1000C7EEB00006EEBEA
:100250000101B1F5801F1BD3B1F5001F0CD3490874
:100260005FEA30004FEA3C0C04F101044FEA4452CB
:1002700012F5800F80F09A80BCF1004F08BF5FEA52
:10028000500C50F1000041EB045141EA050130BD32
:100290005FEA4C0C404141EB010111F4801FA4F1D5
:1002A0000104E9D191F0000F04BF01460020B1FA2A
:1002B00081F308BF2033A3F10B03B3F120020CDA62
:1002C0000C3208DD02F1140CC2F10C0201FA0CF040
:1002D00021FA02F10CE002F11402D8BFC2F1200CA5
:1002E00001FA02F120FA0CFCDCBF41EA0C0190405B
:1002F000E41AA2BF01EB0451294330BD6FEA0404A4
:100300001F3C1CDA0C340EDC04F11404C4F120028E
:1003100020FA04F001FA02F340EA030021FA04F3A0
:1003200045EA030130BDC4F10C04C4F1200220FAF7
:1003300002F001FA04F340EA0300294630BD21FA35
:1003400004F0294630BD94F0000F83F4801306BFFB
:1003500081F480110134013D4EE77FEA645C18BFEF
:100360007FEA655C29D094EA050F08BF90EA020F86
:1003700005D054EA000C04BF1946104630BD91EA7E
:10038000030F1EBF0021002030BD5FEA545C05D181
:100390004000494128BF41F0004130BD14F58004C0
:1003A0003CBF01F5801130BD01F0004545F0FE4134
:1003B00041F470014FF0000030BD7FEA645C1ABF69
:1003C000194610467FEA655C1CBF0B46024650EAA0
:1003D000013406BF52EA033591EA030F41F40021CC
:1003E00030BD00BF90F0000F04BF0021704730B552
:1003F0004FF4806404F132044FF000054FF0000127
:1004000050E700BF90F0000F04BF0021704730B5E7
:100410004FF4806404F1320410F0004548BF4042BC
:100420004FF000013EE700BF42004FEAE2014FEA11
:1004300031014FEA02701FBF12F07F4393F07F4FEC
:1004400081F06051704732F07F4208BF704793F0EF
:100450007F4F04BF41F40021704730B54FF4607402
:1004600001F0004521F000411CE700BF50EA010205
:1004700008BF704730B54FF000050AE050EA0102AE
:1004800008BF704730B511F0004502D5404261EB1E
:1004900041014FF4806404F132045FEA915C3FF45F
:1004A000D8AE4FF003025FEADC0C18BF03325FEAFC
:1004B000DC0C18BF033202EBDC02C2F1200300FAAD
:1004C00003FC20FA02F001FA03FE40EA0E0021FAD2
:1004D00002F11444BDE600BF70B54FF0FF0C4CF4C0
:1004E000E06C1CEA11541DBF1CEA135594EA0C0F72
:1004F00095EA0C0F00F0DEF82C4481EA030621EAAD
:100500004C5123EA4C5350EA013518BF52EA0335E7
:1005100041F4801143F4801338D0A0FB02CE4FF099
:100520000005E1FB02E506F00042E0FB03E54FF0C9
:100530000006E1FB03569CF0000F18BF4EF0010EC1
:10054000A4F1FF04B6F5007F64F5407404D25FEABD
:100550004E0E6D4146EB060642EAC62141EA555170
:100560004FEAC52040EA5E504FEACE2EB4F1FD0CB2
:1005700088BFBCF5E06F1ED8BEF1004F08BF5FEA30
:10058000500E50F1000041EB045170BD06F00046E2
:1005900046EA010140EA020081EA0301B4EB5C048F
:1005A000C2BFD4EB0C0541EA045170BD41F4801187
:1005B0004FF0000E013C00F3AB8014F1360FDEBFAC
:1005C000002001F0004170BDC4F10004203C35DA88
:1005D0000C341BDC04F11404C4F1200500FA05F30B
:1005E00020FA04F001FA05F240EA020001F00042AC
:1005F00021F0004110EBD37021FA04F642EB060122
:100600005EEA430E08BF20EAD37070BDC4F10C044B
:10061000C4F1200500FA04F320FA05F001FA04F20F
:1006200040EA020001F0004110EBD37041F10001FB
:100630005EEA430E08BF20EAD37070BDC4F1200506
:1006400000FA05F24EEA020E20FA04F301FA05F26E
:1006500043EA020321FA04F001F0004121FA04F216
:1006600020EA020000EBD3705EEA430E08BF20EAE6
:10067000D37070BD94F0000F0FD101F00046400020
:1006800041EB010111F4801F08BF013CF7D041EAA2
:10069000060195F0000F18BF704703F000465200A6
:1006A00043EB030313F4801F08BF013DF7D043EA77
:1006B0000603704794EA0C0F0CEA135518BF95EA2D
:1006C0000C0F0CD050EA410618BF52EA4306D1D1B4
:1006D00081EA030101F000414FF0000070BD50EAD3
:1006E000410606BF1046194652EA430619D094EA5D
:1006F0000C0F02D150EA013613D195EA0C0F05D147
:1007000052EA03361CBF104619460AD181EA03019A
:1007100001F0004141F0FE4141F470014FF0000052
:1007200070BD41F0FE4141F4780170BD70B54FF0ED
:10073000FF0C4CF4E06C1CEA11541DBF1CEA13556D
:1007400094EA0C0F95EA0C0F00F0A7F8A4EB05044F
:1007500081EA030E52EA03354FEA013100F0888046
:100760004FEA03334FF0805545EA131343EA12630F
:100770004FEA022245EA111545EA10654FEA0026C4
:100780000EF000419D4208BF964244F1FD0404F57D
:10079000407402D25B084FEA3202B61A65EB0305D9
:1007A0005B084FEA32024FF480104FF4002CB6EB96
:1007B000020E75EB030E22BFB61A754640EA0C0016
:1007C0005B084FEA3202B6EB020E75EB030E22BF56
:1007D000B61A754640EA5C005B084FEA3202B6EB97
:1007E000020E75EB030E22BFB61A754640EA9C0056
:1007F0005B084FEA3202B6EB020E75EB030E22BF26
:10080000B61A754640EADC0055EA060E18D04FEAE3
:10081000051545EA16754FEA06164FEAC30343EA83
:1008200052734FEAC2025FEA1C1CC0D111F4801F50
:100830000BD141EA00014FF000004FF0004CB6E749
:1008400011F4801F04BF01430020B4F1FD0C88BFE8
:10085000BCF5E06F3FF6AFAEB5EB030C04BFB6EBF3
:10086000020C5FEA500C50F1000041EB045170BDE6
:100870000EF0004E4EEA113114EB5C04C2BFD4EB13
:100880000C0541EA045170BD41F480114FF0000E97
:10089000013C90E645EA060E8DE60CEA135594EA13
:1008A0000C0F08BF95EA0C0F3FF43BAF94EA0C0F16
:1008B0000AD150EA01347FF434AF95EA0C0F7FF48B
:1008C00025AF104619462CE795EA0C0F06D152EADF
:1008D00003353FF4FDAE1046194622E750EA4106C3
:1008E00018BF52EA43067FF4C5AE50EA41047FF4D4
:1008F0000DAF52EA43057FF4EBAE12E74FEA410237
:10090000B2F1E04324BFB3F5001CDCF1FE5C0DD96D
:1009100001F0004C4FEAC0024CEA5070B2F1004FB7
:1009200040EB830008BF20F00100704711F0804FBA
:1009300021D113F13872BCBF01F00040704741F47F
:1009400080114FEA5252C2F11802C2F1200C10FA83
:100950000CF320FA02F018BF40F001004FEAC12367
:100960004FEAD32303FA0CFC40EA0C0023FA02F30B
:100970004FEA4303CCE77FEA625307D150EA0133E1
:100980001EBF4FF0FE4040F44000704701F00040B1
:1009900040F0FE4040F40000704700BF80F000408F
:1009A00002E000BF81F0004142001FBF5FEA410347
:1009B00092EA030F7FEA226C7FEA236C6AD04FEA47
:1009C0001262D2EB1363C1BFD2184140484041408C
:1009D000B8BF5B42192B88BF704710F0004F40F43E
:1009E000000020F07F4018BF404211F0004F41F45A
:1009F000000121F07F4118BF494292EA030F3FD026
:100A0000A2F1010241FA03FC10EB0C00C3F1200338
:100A100001FA03F100F0004302D5494260EB4000C7
:100A2000B0F5000F13D3B0F1807F06D340084FEA32
:100A3000310102F10102FE2A51D2B1F1004F40EB27
:100A4000C25008BF20F0010040EA0300704749008F
:100A500040EB000010F4000FA2F10102EDD1B0FA5A
:100A600080FCACF1080CB2EB0C0200FA0CF0AABF4F
:100A700000EBC25052421843BCBFD04018437047ED
:100A800092F0000F81F4000106BF80F400000132F3
:100A9000013BB5E74FEA41037FEA226C18BF7FEACA
:100AA000236C21D092EA030F04D092F0000F08BF0C
:100AB0000846704790EA010F1CBF0020704712F0F3
:100AC0007F4F04D1400028BF40F00040704712F132
:100AD00000723CBF00F50000704700F0004343F097
:100AE000FE4040F4000070477FEA226216BF0846CD
:100AF0007FEA23630146420206BF5FEA412390EA90
:100B0000010F40F4800070474FF0000304E000BF85
:100B100010F0004348BF40425FEA000C08BF704736
:100B200043F0964301464FF000001CE050EA0102FA
:100B300008BF70474FF000030AE000BF50EA01020F
:100B400008BF704711F0004302D5404261EB4101FC
:100B50005FEA010C02BF84460146002043F0B64321
:100B600008BFA3F18053A3F50003BCFA8CF2083A46
:100B7000A3EBC25310DB01FA02FC634400FA02FC4F
:100B8000C2F12002BCF1004F20FA02F243EB020056
:100B900008BF20F00100704702F1200201FA02FCB8
:100BA000C2F1200250EA4C0021FA02F243EB0200AB
:100BB00008BF20EADC7070474FF0FF0C1CEAD052EF
:100BC0001EBF1CEAD15392EA0C0F93EA0C0F6FD0B0
:100BD0001A4480EA010C400218BF5FEA41211ED08E
:100BE0004FF0006343EA501043EA5111A0FB01317A
:100BF0000CF00040B1F5000F3EBF490041EAD3714F
:100C00005B0040EA010062F17F02FD2A1DD8B3F1CA
:100C1000004F40EBC25008BF20F00100704790F039
:100C2000000F0CF0004C08BF49024CEA502040EA8B
:100C300051207F3AC2BFD2F1FF0340EAC250704751
:100C400040F400004FF00003013A5DDC12F1190F8F
:100C5000DCBF00F000407047C2F10002410021FA01
:100C600002F1C2F1200200FA02FC5FEA310040F119
:100C7000000053EA4C0308BF20EADC70704792F092
:100C8000000F00F0004C02BF400010F4000F013ACA
:100C9000F9D040EA0C0093F0000F01F0004C02BFC5
:100CA000490011F4000F013BF9D041EA0C018FE734
:100CB0000CEAD15392EA0C0F18BF93EA0C0F0AD03A
:100CC00030F0004C18BF31F0004CD8D180EA010060
:100CD00000F00040704790F0000F17BF90F0004FF9
:100CE000084691F0000F91F0004F14D092EA0C0FDB
:100CF00001D142020FD193EA0C0F03D14B0218BF6E
:100D0000084608D180EA010000F0004040F0FE40B3
:100D100040F40000704740F0FE4040F4400070474F
:100D20004FF0FF0C1CEAD0521EBF1CEAD15392EACE
:100D30000C0F93EA0C0F69D0A2EB030280EA010CBE
:100D400049024FEA402037D04FF0805343EA111157
:100D500043EA10130CF000408B4238BF5B0042F1B5
:100D60007D024FF4000C8B4224BF5B1A40EA0C005A
:100D7000B3EB510F24BFA3EB510340EA5C00B3EB8C
:100D8000910F24BFA3EB910340EA9C00B3EBD10F7A
:100D900024BFA3EBD10340EADC001B0118BF5FEACC
:100DA0001C1CE0D1FD2A3FF650AF8B4240EBC250F5
:100DB00008BF20F0010070470CF0004C4CEA5020B6
:100DC0007F32C2BFD2F1FF0340EAC250704740F405
:100DD00000004FF00003013A37E792F0000F00F0F7
:100DE000004C02BF400010F4000F013AF9D040EA75
:100DF0000C0093F0000F01F0004C02BF490011F409
:100E0000000F013BF9D041EA0C0195E70CEAD15300
:100E100092EA0C0F08D142027FF47DAF93EA0C0FE7
:100E20007FF470AF084676E793EA0C0F04D14B02CB
:100E30003FF44CAF08466EE730F0004C18BF31F07D
:100E4000004CCAD130F000427FF45CAF31F0004377
:100E50007FF43CAF5FE700BF4FF0FF3C06E000BF10
:100E60004FF0010C02E000BF4FF0010C4DF804CD33
:100E70004FEA40024FEA41037FEA226C18BF7FEA43
:100E8000236C11D001B052EA530C18BF90EA010F45
:100E900058BFB2EB030088BFC81738BF6FEAE170D4
:100EA00018BF40F0010070477FEA226C02D15FEA70
:100EB000402C05D17FEA236CE4D15FEA412CE1D0DC
:100EC0005DF8040B704700BF844608466146FFE7A3
:100ED0000FB5FFF7C9FF002848BF10F1000F0FBD85
:100EE0004DF808EDFFF7F4FF0CBF012000205DF87E
:100EF00008FB00BF4DF808EDFFF7EAFF34BF012003
:100F000000205DF808FB00BF4DF808EDFFF7E0FF9B
:100F100094BF012000205DF808FB00BF4DF808EDEC
:100F2000FFF7D2FF94BF012000205DF808FB00BF4F
:100F30004DF808EDFFF7C8FF34BF012000205DF831
:100F400008FB00BF4FEA4002B2F1FE4F0FD34FF053
:100F50009E03B3EB12620DD94FEA002343F0004326
:100F600010F0004F23FA02F018BF404270474FF0D4
:100F70000000704712F1610F01D1420205D110F05B
:100F8000004008BF6FF0004070474FF0000070470E
:100F900080B500AF00F036FB00F0E8F903461846D4
:100FA00080BD000080B5ADF5836D00AF3B1D1860BE
:100FB0003B46196007F10803264A184611464FF4CC
:100FC00080631A4609F00CFA4FF0FF33C7F80C346F
:100FD0000023C7F814342EE0D7F80C341B0EC7F8E2
:100FE00008343B46D7F814241B689A4208DAD7F82D
:100FF00014343A1D126813441B7887F8133402E046
:10100000002387F81334D7F80C341A0297F81334F6
:101010001343C7F80C3407F10803D7F8082453F832
:101020002230D7F80C245340C7F80C34D7F81434C6
:101030000133C7F814343B461B680433D7F8142433
:101040009A42C9DBD7F80C34184607F58367BD46CA
:1010500080BD00BFCCAF000880B584B000AF0346B0
:10106000FB7140233B73FB797B7307F10C03022177
:10107000184602F06DF900BF1037BD4680BD000074
:1010800080B58AB000AFF8600B467A60FB72FB7ADD
:101090005B00642B01DD002337E0FB687B623023BB
:1010A0003B7578237B75002387F8233007F1140301
:1010B0000233FB61FB687B621FE07B6A1B889AB28C
:1010C000FB691A80FB69023300221A7007F11002D3
:1010D00007F114030F49184609F096F9396997F892
:1010E00023307A681344CAB21A7097F82330013358
:1010F00087F823307B6A02337B62FB7AFA681344F9
:101100007A6A9A42D9D397F8233018462837BD46D1
:1011100080BD00BFCCB3000880B500AF00F0D0FAAE
:1011200000BF80BD80B5C4B000AF3B1D186008464D
:101130001146BB1C02461A807B1C0A461A70554B8E
:101140001B88FF2B01D900239EE07B1C1B78002B02
:1011500013D0504B1B88002B0FD04F4B19684D4BB1
:101160001B8801331A464D4800F0F4FAFFF7D4FF0C
:10117000484B00221A80012386E0BB1C1B88093BD8
:10118000A7F80A313B1D1B681B78242B08D1BB1C18
:101190001B88013B3A1D126813441B78232B01D096
:1011A000002371E0B7F80A31B3F5007F01D90023BD
:1011B0006AE03B1D1B680833B7F80A21D1B207F17A
:1011C00008021846FFF75CFF0346A7F80A31B7F894
:1011D0000A3107F108020021D154B7F80A21304B37
:1011E0001B6813442E4A13600023C7F80C3137E004
:1011F000284B1B88FF2B12D1274B1B684FF48072A2
:101200001946264800F0A6FAFFF786FF214B002278
:101210001A80214B1B6801331F4A13601BE01D4BD2
:101220001B88194607F10802D7F80C3113441A78C5
:101230001A4B5A54174B1B88194607F10802D7F866
:101240000C3113441A78174B5A54124B1B88013334
:101250009AB2104B1A80D7F80C310133C7F80C3111
:10126000B7F80A31D7F80C219A42C1DB094B1B8829
:101270001A460D4B1A60B7F80A310C4A1360BB1CB2
:101280001B880B4A13600123184607F58877BD4673
:1012900080BD00BF74080020180700205C070020F4
:1012A0006008002098050020A40600209C0600206D
:1012B000A006002080B584B000AF012200210020EC
:1012C000FFF730FF02F03AF8234B00221A600023A8
:1012D0007B60224B1B681B0A9BB201337B8101237D
:1012E000FB6017E04FF4807200211D4809F083F87D
:1012F000FB684FF480721946194800F077FAFF2115
:101300001748FFF74FFE02467B6813447B60FB687B
:101310000133FB607B89FA689A42E3DD4FF4807207
:1013200000210F4809F067F80D4BAB221A700D4AE7
:101330007B6813600C4A094B1B681360064B1B68E3
:101340004FF480721946064800F004FAFFF7E4FEF5
:1013500000BF1037BD4680BD180700206008002080
:101360005C0700205D0700206107002080B584B085
:1013700000AF304B00221A802F4B00221A6001F080
:10138000DDFF2D4B1B684FF4807219462B4800F08F
:101390002DFA2A4B1B78AB2B01D0002346E000230B
:1013A000FB6000233B60264B1B683B60254B1B68A2
:1013B0001A46254B1A60244B1B681B0A9BB201334B
:1013C000FB800123BB6017E04FF4807200211B48B3
:1013D00009F011F8BB684FF480721946174800F005
:1013E00005FAFF211548FFF7DDFD0246FB681344AF
:1013F000FB60BB680133BB60FB88BA689A42E3DDDF
:101400003B68FA689A4207D1104B01221A700A4BC6
:1014100001221A60012309E00C4B00221A70064BCE
:1014200001221A60084B00221A6000231846103768
:10143000BD4680BD74080020180700205C0700200E
:101440005D07002061070020600800205C08002084
:1014500080B582B000AF78607B685B6E002B6DD08A
:101460007B681B78402B37D17B685B78502B16D17B
:1014700000F050F901F062FF324B00221A70324B3B
:1014800000221A70314B01221A60314B00221A607F
:10149000304B00221A80304B01221A7018E07B6812
:1014A0005B78452B14D12C4B1B78002B10D0FFF709
:1014B00001FF294B00221A70FFF758FF034683F003
:1014C0000103DBB2002B03D05220FFF7C5FD36E04D
:1014D0004F20FFF7C1FD32E01F4B1B7883F0010363
:1014E000DBB2002B03D05220FFF7B6FD27E07B686C
:1014F0001B78242B16D1184B1B78002B12D0786840
:101500007B685B6E9BB200221946FFF70BFE034619
:10151000002B03D04F20FFF79FFD10E05220FFF774
:101520009BFD0CE07B681B78212B08D10A4B1B78B4
:10153000002B04D04F20FFF78FFD00E000BF0837DD
:10154000BD4680BD5C08002015070020180700205C
:1015500060080020740800201407002080B500AF48
:10156000104B00221A70104B00225A660F4B0022BB
:10157000DA60402200210E4808F03DFF0D4B0022AA
:101580001A700D4B00221A700C4B00221A700C4B73
:1015900000221A700B4B00221A600B4B01221A60BA
:1015A00000BF80BD14070020AC06002064080020A6
:1015B0001C0700205C080020A90600201507002059
:1015C000A8060020600800201807002080B586B01B
:1015D00002AF0346FB7107F10F02F91DFF230093D1
:1015E0000123074805F055FA00BF054B93F8513029
:1015F000DBB2012BF9D1FB7B18461037BD4680BD0D
:101600007808002080B500AF01224FF480510548D2
:1016100003F0E2FD00F01EF800F052F800F030F8A0
:1016200000BF80BD000C014080B500AF00224FF428
:101630008051074803F0D0FD0620FFF7C7FF0122C5
:101640004FF48051024803F0C7FD00BF80BD00BFCA
:10165000000C014080B500AF00224FF480510748D4
:1016600003F0BAFD0420FFF7B1FF01224FF48051CF
:10167000024803F0B1FD00BF80BD00BF000C014077
:1016800080B582B000AF0023FB7100224FF480517F
:101690000A4803F0A1FD0520FFF798FFAB20FFF7F4
:1016A00095FF0346FB7101224FF48051034803F07C
:1016B00093FDFB7918460837BD4680BD000C0140FC
:1016C00080B582B000AF0023FB7100224FF480513F
:1016D0000F4803F081FD0520FFF778FFAB20FFF7EF
:1016E00075FF0346FB71012002F0F6FB01F026FEB8
:1016F000FB7903F00103002BF0D101224FF480515C
:10170000034803F069FD00BF0837BD4680BD00BF38
:10171000000C014080B500AFFFF7D2FFFFF784FF58
:1017200000224FF480510A4803F056FDC720FFF70E
:101730004DFF01224FF48051054803F04DFDFFF7A6
:10174000BFFFFFF787FFFFF7BBFF00BF80BD00BFF4
:10175000000C014080B586B000AFF860B9607A60D7
:10176000FB687B61FFF7ACFFFFF75EFFBB681B0206
:10177000BB6000224FF480511B4803F02DFD022076
:10178000FFF724FFBB681B0CFB74FB7C1846FFF7BC
:101790001DFFBB681B0AFB74FB7C1846FFF716FF96
:1017A000BB68FB74FB7C1846FFF710FF07E07B6902
:1017B0001B781846FFF70AFF7B6901337B617B6862
:1017C0005A1E7A60002BF2D101224FF48051064854
:1017D00003F002FDFFF774FFFFF73CFFFFF770FF18
:1017E00000BF1837BD4680BD000C014080B586B0F3
:1017F00000AFF860B9607A60FB687B61FFF760FF5B
:10180000FFF728FFFFF75CFFBB681B02BB600022ED
:101810004FF480511B4803F0DFFC0B20FFF7D6FE8E
:10182000BB681B0CFB74FB7C1846FFF7CFFEBB6844
:101830001B0AFB74FB7C1846FFF7C8FEBB68FB74F1
:10184000FB7C1846FFF7C2FEAB20FFF7BFFE09E0A6
:10185000AB20FFF7BBFE03461A467B691A707B6913
:1018600001337B617B685A1E7A60002BF0D1012224
:101870004FF48051034803F0AFFC00BF1837BD465A
:1018800080BD00BF000C014080B500AFF0220021F8
:10189000094808F0B0FDA0220021084808F0ABFD7F
:1018A0000F220021064808F0A6FD0222002105486B
:1018B00008F0A1FD00BF80BDE0100020D00800208E
:1018C000D4110020DC10002080B586B000AF0346A4
:1018D000FB8007237B617B69102B01DD10237B617B
:1018E00000233B616AE0FB8803F00103002B14BF77
:1018F00001230023FB73FB885B08FB803B69023BF1
:10190000042B58D801A252F823F000BF2119000877
:101910003F1900085D1900087B1900089919000893
:10192000FB7B002B05D000228021284803F054FCCB
:1019300041E001228021254803F04EFC3BE0FB7B87
:10194000002B05D000224021204803F045FC32E066
:10195000012240211D4803F03FFC2CE0FB7B002BC3
:1019600005D000222021194803F036FC23E0012293
:101970002021164803F030FC1DE0FB7B002B05D036
:1019800000221021114803F027FC14E0012210214D
:101990000E4803F021FC0EE0FB7B002B05D000225B
:1019A00008210A4803F018FC04E001220821074836
:1019B00003F012FC00BF3B6901333B613A697B696C
:1019C0009A4290DB00BF1837BD4680BD000C014035
:1019D00080B58AB000AF786039607B687B62002395
:1019E000BB6007F10C030322796A184608F0F8FC83
:1019F0000023FB7307F10C03013307F10802A6492A
:101A0000184608F001FDBB68DBB27B753B7B3B757C
:101A10007B6803337B627B6A1B78FB757B6A0133CF
:101A20007B627B6A1B78252B05D101233B767B6A81
:101A300001337B6201E000233B767A6A07F10C03F5
:101A40001068516803C300233B629FE107F10C0259
:101A50003B6A13441B78422B40F0958107F10C023E
:101A60003B6A134400221A7007F1080207F10C03C5
:101A70008949184608F0C8FCBB68FB613B6A023321
:101A80007A6A13447B6207F108031A468249786A2E
:101A900008F0BAFCBB68DBB2BB75BB7DFA697F4955
:101AA0001B010B4408331A60BB7DF97D7B4A1B0187
:101AB000134404330A461A703B7D462B2ED17B7D9E
:101AC000002B13D13B7E83F00103DBB2002B06D049
:101AD000BB7D724A1B011344714A1A605BE1BB7DF6
:101AE0006E4A1B0113446F4A1A6054E17B7D012B3F
:101AF00040F051813B7E83F00103DBB2002B06D026
:101B0000BB7D664A1B011344674A1A6043E1BB7DF3
:101B1000624A1B011344654A1A603CE13B7D492B34
:101B200075D17B7D042B00F2368101A252F823F09F
:101B3000451B00086D1B0008951B0008BD1B000815
:101B4000E51B00083B7E83F00103DBB2002B06D0CF
:101B5000BB7D524A1B011344554A1A6012E1BB7DFA
:101B60004E4A1B011344534A1A600BE13B7E83F03B
:101B70000103DBB2002B06D0BB7D484A1B01134496
:101B80004D4A1A60FEE0BB7D444A1B0113444B4A98
:101B90001A60F7E03B7E83F00103DBB2002B06D036
:101BA000BB7D3E4A1B011344454A1A60EAE0BB7DF7
:101BB0003A4A1B011344434A1A60E3E03B7E83F038
:101BC0000103DBB2002B06D0BB7D344A1B0113445A
:101BD0003D4A1A60D6E0BB7D304A1B0113443B4AA4
:101BE0001A60CFE03B7E83F00103DBB2002B06D00E
:101BF000BB7D2A4A1B011344354A1A60C2E0BB7DF3
:101C0000264A1B011344334A1A6000BFBAE03B7DE9
:101C1000432B40F0C0807B7D0E2B00F2B28001A2EE
:101C200052F823F0611C00086F1C00087D1C00089E
:101C30008B1C0008E91C0008F71C0008051D0008A3
:101C4000131D0008211D00082F1D00083D1D000860
:101C50004B1D0008591D0008671D0008751D000870
:101C6000BB7D0E4A1B0113441B4A1A608AE0BB7DF0
:101C70000A4A1B011344194A1A6083E0BB7D074AD4
:101C80001B011344164A1A607CE0BB7D034A1B010A
:101C90001344144A1A6075E0D0B30008E010002025
:101CA0001C07002020070020240700202807002010
:101CB0002C07002048070020300700204C07002098
:101CC0003407002050070020380700205407002068
:101CD0003C0700205807002098090020180A00201F
:101CE000980A0020180B0020BB7D2D4A1B011344CD
:101CF0002C4A1A6046E0BB7D294A1B0113442A4A3C
:101D00001A603FE0BB7D264A1B011344274A1A6034
:101D100038E0BB7D224A1B011344254A1A6031E09A
:101D2000BB7D1F4A1B011344224A1A602AE0BB7D77
:101D30001B4A1B011344204A1A6023E0BB7D184A4A
:101D40001B0113441D4A1A601CE0BB7D144A1B0191
:101D500013441B4A1A6015E0BB7D114A1B01134452
:101D6000184A1A600EE0BB7D0D4A1B011344164A47
:101D70001A6007E0BB7D0A4A1B011344134A1A602C
:101D800000E000BF07E03B6A01333B623B6A072B80
:101D90007FF75CAE00E000BF00BF2837BD4680BDC6
:101DA000E0100020980B0020180C0020980C002058
:101DB000180D0020980D0020180E0020980E00200D
:101DC000180F0020980F00201810002098100020F5
:101DD00080B582B000AF00237B6090E04C4A7B6806
:101DE0001B0113441B68002B00F08680484A7B6867
:101DF0001B01134404331B783E2B0FD0444A7B68ED
:101E00001B01134404331B783C2B07D0404A7B68EA
:101E10001B01134404331B783D2B6DD13C4A7B6876
:101E20001B01134404331B783E2B1CD1384A7B68BA
:101E30001B0113441B681B681846FFF783F8014613
:101E4000334A7B681B01134408331B689942CCBF9B
:101E500001230023D9B22E4A7B681B0113440C33A3
:101E60000A461A7048E02A4A7B681B01134404336F
:101E70001B783C2B1CD1264A7B681B0113441B6832
:101E80001B681846FFF75EF80146214A7B681B0174
:101E9000134408331B689942B4BF01230023D9B20D
:101EA0001B4A7B681B0113440C330A461A7023E05B
:101EB000174A7B681B01134404331B783D2B1BD14D
:101EC000134A7B681B0113441B681B681846FFF705
:101ED00039F801460E4A7B681B01134408331B681E
:101EE00099420CBF01230023D9B2094A7B681B0128
:101EF00013440C330A461A707B6801337B607B689D
:101F00000E2B7FF76BAF00BF0837BD4680BD00BF0B
:101F1000E010002080B582B000AF1F4B1B78002B73
:101F200036D000237B6030E07B68002B02D0012B91
:101F300014D027E0194A7B6813441B78002B06D085
:101F400001224FF48061164803F046F91AE000229E
:101F50004FF48061124803F03FF913E00F4A7B68A9
:101F600013441B78002B06D001224FF400710C485B
:101F700003F032F905E000224FF40071084803F045
:101F80002BF900BF7B6801337B607B68012BCBDDC5
:101F900000BF0837BD4680BDA8060020DC10002029
:101FA0000008014080B582B000AF78607B681B7B81
:101FB000742B2CD17B681B7883F00103DBB2002BE0
:101FC00008D07B6800225A7001F07CFF02467B68D3
:101FD0009A603AE001F076FF02467B689B68D21A6D
:101FE0007B685B689A4202D37B6801225A7001F0D9
:101FF00069FF02467B689B68D21A7B685B689A42DD
:102000002CBF01230023DAB27B685A701DE07B6885
:102010001B7B632B19D17B681B78002B08D07B6856
:1020200001225A7001F04EFF02467B689A600CE074
:1020300001F048FF02467B689B68D21A7B685B68A8
:102040009A4202D97B6800225A7000BF0837BD4609
:1020500080BD000080B582B000AF00237B6009E046
:102060007B681B01074A13441846FFF79BFF7B68F8
:1020700001337B607B68092BF2DD00BF0837BD466A
:1020800080BD00BFD008002080B584B000AFF860EC
:102090007B600B46FB721346BB72FB681B7BBA7AF4
:1020A0009A420CD010220021F86808F0A4F9FB68CD
:1020B000BA7A1A7301F006FF0246FB689A60FB6861
:1020C0007A685A60FB68FA7A1A70F868FFF76AFF54
:1020D000FB685B7818461037BD4680BD80B590B070
:1020E00000AFF860B9607A60FB68FB630023BB63F4
:1020F000002387F83630002387F82E30FB6B1B78DF
:10210000282B40F01F83FB6B0133FB6349E0FA6B24
:10211000BB6B13441B78292B40D17B681B78FB7762
:1021200007F11F031A46B96BF86BFFF7D7FF034699
:10213000FB7797F836304F2B0CD17B681A78FB7FF2
:102140001343DBB2002B14BF01230023DAB27B68F8
:102150001A7017E097F83630412B0CD17B681B784A
:102160001A46FB7F1340002B14BF01230023DAB271
:102170007B681A7006E097F83630002B02D1FA7FA0
:102180007B681A70002387F83630BB6B0133FA6B1B
:102190001344FB630023BB6300BF0AE0BB6B013346
:1021A000BB63FA6BBB6B1A44F968BB680B449A4279
:1021B000ADD3C7E2FB6B1B78632B03D0FB6B1B78A3
:1021C000742B66D1FB6B1B7887F82E30FB6B0233C8
:1021D000FB63FB6B1B889BB2BB84002387F8263014
:1021E00007F1200207F12403B349184608F00CF95F
:1021F000FB6B0333FB63FA6B07F124031068516830
:1022000003C3002387F82C30002387F837303BE0E6
:1022100097F8373007F14002134413F81C3C7C2B2D
:102220002DD197F8373007F140021344002203F80C
:102230001C2C97F837300133FA6B1344FB6307F11A
:10224000180207F124039C49184608F0DDF87B6862
:102250001B7887F82D303B6A1B01984A9818BB6998
:1022600097F82E2097F82D10FFF70EFF03461A4619
:102270007B681A70002387F8363000BF08E097F8B3
:102280003730013387F8373097F83730072BBFD90D
:1022900058E2FB6B1B784F2B06D1FB6B0133FB63C2
:1022A0004F2387F836304DE2FB6B1B78412B06D16C
:1022B000FB6B0133FB63412387F8363042E2FB6B53
:1022C0001B78292B05D1FB6B0133FB630023BB6318
:1022D00038E2FB6B1B78562B04D0FB6B1B784E2B24
:1022E00040F09780FB6B1B7887F82E30FB6B013337
:1022F000FB63FB6B1B7887F83730FB6B0133FB63A9
:10230000FB6B1B889BB2BB84FB6B0233FB6300231C
:1023100087F8263007F1200207F1240366491846A2
:1023200008F072F897F83730582B08D13B6A644AA6
:102330001B0113440C331B7887F82F3023E097F8E8
:1023400037304D2B05D13B6A5E4AD35C87F82F307E
:1023500019E097F83730592B05D13B6A5A4AD35CBC
:1023600087F82F300FE097F83730542B08D13B6AAD
:10237000524A1B01134401331B7887F82F3002E0C7
:10238000002387F82F3097F82E304E2B11D197F875
:102390002F30002B14BF01230023DBB283F0010395
:1023A000DBB287F82F3097F82F3003F0010387F85E
:1023B0002F3097F836304F2B0DD17B681A7897F86D
:1023C0002F301343DBB2002B14BF01230023DAB2FA
:1023D0007B681A7019E097F83630412B0DD17B6875
:1023E0001B781A4697F82F301340002B14BF012397
:1023F0000023DAB27B681A7007E097F83630002BBA
:1024000003D17B6897F82F201A70002387F83630A5
:1024100098E1FB6B1B78532B14D0FB6B1B78522B72
:1024200010D0FB6B1B78422B0CD0FB6B1B782B2B3B
:1024300008D0FB6B1B782D2B04D0FB6B1B783D2B3E
:1024400040F07B81FB6B1B7887F82E30FB6B0133F0
:10245000FB63FB6B1B7887F83730FB6B0133FB6347
:10246000FB6B1B889BB2BB84002387F8263007F1E7
:10247000200207F124031049184607F0C5FF97F81A
:102480002E30532B2ED17B681B78002B2AD097F847
:102490003730582B07D13B6A094A1B0113440C33D0
:1024A00001221A701AE097F83730592B0ED13B6A87
:1024B000054A0121D15411E0D0B30008D008002012
:1024C000E0100020D4110020DC10002097F83730F5
:1024D0004D2B03D13B6AA34A0121D1547B680122D1
:1024E0001A7029E197F82E30522B24D17B681B7883
:1024F000002B20D097F83730582B07D13B6A9A4AE7
:102500001B0113440C3300221A7010E097F8373087
:10251000592B04D13B6A954A0021D15407E097F822
:1025200037304D2B03D13B6A8E4A0021D1547B6852
:1025300000221A7000E197F82E30422B22D197F832
:102540003730582B09D13B6A7A681178864A1B01CB
:1025500013440C330A461A70F4E097F83730592BBD
:1025600005D13B6A7A681178804AD154EAE097F83D
:1025700037304D2B40F0E6803B6A7A681178794A13
:10258000D154DFE097F82E302B2B08D097F82E305F
:102590002D2B04D097F82E303D2B40F0D3807B6854
:1025A0001B78002B00F0CE8097F82E303D2B38D1D1
:1025B000FB6B0333FB63FA6B07F12403106851686C
:1025C00003C3002387F82C30002387F8373024E03A
:1025D00097F8373007F14002134413F81C3C7C2B6A
:1025E00016D197F8373007F140021344002203F860
:1025F0001C2C97F837300133FA6B1344FB6307F157
:10260000140207F124035A49184607F0FDFE08E0BA
:1026100097F83730013387F8373097F83730072B82
:10262000D6D93B6A0E2B4ED801A252F823F000BF38
:102630006D26000873260008792600087F2600080A
:10264000852600088B26000891260008972600089A
:102650009D260008A3260008A9260008AF2600082A
:10266000B5260008BB260008C1260008414B3B6385
:102670002AE0414B3B6327E0404B3B6324E0404B67
:102680003B6321E03F4B3B631EE03F4B3B631BE062
:102690003E4B3B6318E03E4B3B6315E03D4B3B63D9
:1026A00012E03D4B3B630FE03C4B3B630CE03C4B8B
:1026B0003B6309E03B4B3B6306E03B4B3B6303E082
:1026C0003A4B3B6300E000BF97F82E302B2B0BD129
:1026D0003B6B1B684FF07E511846FEF765F90346C9
:1026E0001A463B6B1A602DE097F82E302D2B18D12F
:1026F0003B6B1B682E491846FEF71AFC0346002B5D
:102700000BD03B6B1B684FF07E511846FEF74AF921
:1027100003461A463B6B1A6014E03B6B244A1A606E
:1027200010E097F82E303D2B0CD17B691846FEF750
:10273000EFF902463B6B1A6004E0FB6B0133FB636D
:102740000023BB63FA6BBB6B1A44F968BB680B448C
:102750009A42FFF42FAD7B681B7818464037BD4680
:1027600080BD00BFD4110020E0100020DC1000204C
:10277000D0B3000898090020180A0020980A002009
:10278000180B0020980B0020180C0020980C00203B
:10279000180D0020980D0020180E0020980E002023
:1027A000180F0020980F002018100020981000200B
:1027B000000080BF80B58CB000AFA74B1B7883F0C2
:1027C0000103DBB2002B40F07381A44B1B78002B7C
:1027D00040F07081FFF758F84FF480720121A04853
:1027E000FFF704F89F4BFB6200237B61FB6A1B88A9
:1027F0009BB23B823B8AFF2B03D9974B00221A7076
:1028000059E13B8A1846FFF75FF8FB6A0233FB6227
:10281000FB6A1B889BB27B827B8A0F2B03D98E4B72
:1028200000221A7047E1FB6A0233FB6200233B621D
:102830001AE0FB6A1B889BB23B823B8A142B03D9AC
:10284000854B00221A7036E1FB6A0233FB623B8A39
:102850001946F86AFFF7BCF83B8A1A46FB6A13442C
:10286000FB623B6A01333B627B8A1A463B6A9342B6
:10287000DFDBFB6ABB62FFE0BB6A1B78432B40F0E7
:10288000E980BB6A0133BB62BB6A1B889BB23B8396
:1028900007F10C0207F118037349184607F0B4FD5D
:1028A000BB6A0333BB623B1D0722B96A184607F0B7
:1028B00097FD002387F827301CE097F8273007F1B1
:1028C0003002134413F82C3C7C2B0ED197F82730A0
:1028D00007F130021344002203F82C2C07F11402F4
:1028E0003B1D6149184607F08FFD97F827300133EB
:1028F00087F8273097F82730072BDED9FB680E2B97
:1029000000F2B68001A252F823F000BF4929000866
:10291000592900086B2900087D2900088F29000823
:10292000A1290008B3290008C5290008D7290008F3
:10293000E9290008FB2900080D2A00081F2A0008C1
:10294000312A0008432A00087B691846FEF7E0F8A0
:102950000246464B5A608CE07B691846FEF7D8F871
:102960000246424BC3F8842083E07B691846FEF799
:10297000CFF802463D4BC3F804217AE07B69184644
:10298000FEF7C6F80246394BC3F8842171E07B6933
:102990001846FEF7BDF80246344BC3F8042268E03F
:1029A0007B691846FEF7B4F80246304BC3F8842220
:1029B0005FE07B691846FEF7ABF802462B4BC3F885
:1029C000042356E07B691846FEF7A2F80246274B1F
:1029D000C3F884234DE07B691846FEF799F8024658
:1029E000224BC3F8042444E07B691846FEF790F8B4
:1029F00002461E4BC3F884243BE07B691846FEF771
:102A000087F80246194BC3F8042532E07B69184663
:102A1000FEF77EF80246154BC3F8842529E07B6952
:102A20001846FEF775F80246104BC3F8042620E05E
:102A30007B691846FEF76CF802460C4BC3F88426F7
:102A400017E07B691846FEF763F80246074BC3F8A8
:102A500004270EE000BF0CE05C08002014070020F3
:102A60005C0700205F070020D0B300089409002015
:102A700000BFBB6A0133BB62BB6A1B78282B7FF4A3
:102A8000FBAEBB6A023B0D4A13600C4B1B681B88F4
:102A90009BB23B823B8A1A46094B1A60BB6A094AC1
:102AA0009B1A9AB2084B1A80084B01221A7002E056
:102AB00000BF00E000BF3037BD4680BDD011002010
:102AC000600800205C070020740800201507002023
:102AD00080B5C4B000AF4C4B1B881A464B4B134417
:102AE000C7F80C310023A7F80A310023A7F80831F2
:102AF0000023A7F80631002387F80531012387F862
:102B0000043197F8053101334FF4807219463F487C
:102B1000FEF76CFE58E03E4AD7F80C31934213D3CF
:102B200097F80531013387F80531384BC7F80C3178
:102B300097F8053101334FF4807219463348FEF798
:102B400055FE0023A7F80831B7F80831D7F80C2153
:102B500013441B780D2B1ED1012387F80431B7F8DD
:102B60000A313A1D0021D154B7F80A1107F58272D3
:102B70003B1D1846FFF7B2FA0023A7F80A31B7F851
:102B800008310133D7F80C211344C7F80C31002366
:102B9000A7F8083113E0B7F80831D7F80C211A4428
:102BA000B7F80A3111783A1DD154B7F80A31013318
:102BB000A7F80A31B7F808310133A7F80831B7F898
:102BC00006310133A7F80631B7F80621114B1B680F
:102BD0009A42A0D3B7F80A31002B0FD0012387F80F
:102BE0000431B7F80A313A1D0021D154B7F80A115F
:102BF00007F582723B1D1846FFF770FA00BF07F514
:102C00008877BD4680BD00BF740800205C070020A7
:102C10005C0800206008002080B500AF364B1B78B0
:102C2000002B0DD1354B1B7883F00103DBB2002B59
:102C300006D1334B1B7883F00103DBB2002B50D05D
:102C400000224FF480612F4802F0C6FA00224FF4B0
:102C500000712C4802F0C0FA012280212A4802F0BB
:102C6000BBFA01224021284802F0B6FA01222021B5
:102C7000254802F0B1FA01221021234802F0ACFAF3
:102C800001220821204802F0A7FA1B4B1B7883F091
:102C90000103DBB2002B0DD0184B1B78002B09D0A1
:102CA000174B1B7883F00103DBB2002B02D0FFF738
:102CB00081FD16E0104B1B7883F00103DBB2002B83
:102CC00018D00E4B1B7883F00103DBB2002B11D020
:102CD0000B4B1B7883F00103DBB2002B0AD0FEF70D
:102CE00045FBFFF775F8FFF7B5F9FFF7F1FEFFF7C2
:102CF00011F900E000BF80BD140700205C0800202F
:102D00001507002000080140000C014080B500AF0D
:102D1000314B1B7883F00103DBB2002B43D02F4BE8
:102D20001B78002B25D02E4B1B78002B21D001F0D7
:102D3000C9F802462B4B1B68D31AB3F57A7F09D921
:102D40004FF40051284802F05FFA01F0BBF8024648
:102D5000244B1A60254B1B78012B06D8234B1B787C
:102D60000133DAB2214B1A7033E0214B01221A7081
:102D70002FE01E4B00221A701D4B00221A7001F02A
:102D8000A1F80246174B1B68D31AB3F5967F20D9DA
:102D90004FF40051144802F037FA01F093F802465C
:102DA000104B1A6015E00C4B1B78002B11D00F4B09
:102DB00000221A700E4B00221A7000224FF40051AC
:102DC000094802F009FA01F07DF80246054B1A6045
:102DD000FFE700BF80BD00BF140700205C08002093
:102DE00015070020A012002000100140F81100205B
:102DF000A806002080B582B000AF02220121204841
:102E0000FEF7F4FC1E4B7B607B681B784C2B0BD1D0
:102E10007B6801337B607B681B783B703B46194ABB
:102E20001949184607F0F0FA164B1B685B00154A63
:102E3000136019E001F046F80246144B1B68D31AE0
:102E4000B3F5967F0ED94FF40051114802F0DCF92A
:102E500001F038F802460D4B1A600A4B1B68013B23
:102E6000084A136000F06AFA064B1B68002BE1DC8D
:102E70004FF47A7001F030F800BF0837BD4680BDCE
:102E80005C07002058120020D4B30008A0120020D4
:102E90000010014080B500AF1B4B00221A6000F00B
:102EA000B9FF00F039F8194B00221A7000F0C0F990
:102EB00000F06AF906F0D2FD00F09CF900F04AF942
:102EC00000F08AF80A221249124801F0FFF8FEF7D2
:102ED00045FB00F033FAFEF75BF800F02FFAFFF73E
:102EE00089FF00F02BFA094B1B78002B01D000F072
:102EF00073FB00F0BDFA00F021FAFFF78DFE00F041
:102F00001DFAFFF703FFEEE7A0120020A412002035
:102F100030120020FC11002080B594B000AF07F102
:102F2000280328220021184607F065FA07F1140348
:102F300000221A605A609A60DA601A613B1D002212
:102F40001A605A609A60DA600923BB624FF48033DA
:102F5000FB6200233B630123BB6301233B64022329
:102F60007B644FF48033BB644FF48023FB6407F130
:102F70002803184603F08AF80346002B01D000F01E
:102F800061FD0F237B610223BB610023FB614FF4D2
:102F900080633B6200237B6207F114030121184622
:102FA00003F0F4FA0346002B01D000F04BFD12238E
:102FB0007B604FF48043FB604FF480033B613B1D1B
:102FC000184603F04FFC0346002B01D000F03AFDF9
:102FD00000BF5037BD4680BD80B584B000AF3B1DFB
:102FE00000221A605A609A60584B594A1A60574B2F
:102FF0004FF480729A60554B01221A73534B002292
:103000001A75524B4FF46022DA61504B00225A601D
:103010004E4B0A221A614D4800F080FF0346002BF8
:1030200001D000F00FFD00237B600123BB60022371
:10303000FB603B1D1946454801F00EFA0346002B84
:1030400001D000F0FFFC01237B600223BB603B1D2D
:1030500019463E4801F000FA0346002B01D000F06B
:10306000F1FC02237B600323BB603B1D19463748FC
:1030700001F0F2F90346002B01D000F0E3FC03233A
:103080007B600423BB603B1D1946304801F0E4F926
:103090000346002B01D000F0D5FC04237B60052300
:1030A000BB603B1D1946294801F0D6F90346002BA9
:1030B00001D000F0C7FC05237B600623BB603B1DED
:1030C0001946224801F0C8F90346002B01D000F050
:1030D000B9FC06237B600723BB603B1D19461B48D8
:1030E00001F0BAF90346002B01D000F0ABFC072336
:1030F0007B600823BB603B1D1946144801F0ACF906
:103100000346002B01D000F09DFC11237B600923B6
:10311000BB603B1D19460D4801F09EF90346002B8C
:1031200001D000F08FFC10237B600A23BB603B1DA5
:103130001946064801F090F90346002B01D000F033
:1031400081FC00BF1037BD4680BD00BFFC110020D0
:103150000024014080B500AF094B0A4A1A60084BB1
:1031600005225A60064B4FF4FA629A60044802F056
:1031700063F80346002B01D000F064FC00BF80BD63
:10318000EC1100200030004080B500AF174B184A0A
:103190001A60164B4FF482725A60144B00229A60E8
:1031A000124B0022DA60114B00221A610F4B0022F1
:1031B0005A610E4B4FF400729A610C4B1822DA617F
:1031C0000A4B00221A62094B00225A62074B002266
:1031D0009A62064B0A22DA62044803F0F9FB0346BE
:1031E000002B01D000F02EFC00BF80BD780800202D
:1031F0000038004080B582B000AF0C4B5B690B4AD1
:1032000043F001035361094B5B6903F001037B60E9
:103210007B68002200210B2001F0E9FB0B2001F06C
:1032200002FC00BF0837BD4680BD00BF0010024051
:1032300080B588B000AF07F1100300221A605A6011
:103240009A60DA60394B9B69384A43F01003936106
:10325000364B9B6903F01003FB60FB68334B9B69A3
:10326000324A43F020039361304B9B6903F0200303
:10327000BB60BB682D4B9B692C4A43F004039361F0
:103280002A4B9B6903F004037B607B68274B9B6997
:10329000264A43F008039361244B9B6903F008031B
:1032A0003B603B6801224FF40051214801F094FF3C
:1032B000002241F2F8011F4801F08EFF00224FF476
:1032C000C0611D4801F088FF4FF400533B610123AA
:1032D0007B610023BB610323FB6107F110031946E7
:1032E000134801F01FFE41F2F8033B6101237B61AB
:1032F0000123BB610323FB6107F1100319460D484D
:1033000001F010FE4FF4C0633B6101237B61012398
:10331000BB610323FB6107F110031946064801F066
:1033200001FE00BF2037BD4680BD00BF0010024037
:1033300000100140000C01400008014080B500AFC2
:10334000024801F0B2FF00BF80BD00BFEC110020B9
:1033500080B584B000AF78600B46FB70FB78642BBF
:1033600001D9002332E07B68002B01D100232DE03E
:103370007B681B78002B01D1002327E0FB781A46DD
:103380007968144807F02CF8FB78002B03D0FB7801
:10339000104AD36005E07868FCF7DAFE02460D4B70
:1033A000DA600C4BDB689BB219460A4806F014FC45
:1033B0000346FB73074B0022DA60FB7B012B02D034
:1033C000FB7B022B01D1002300E0012318461037BC
:1033D000BD4680BD6408002080B584B000AF786031
:1033E0007B68D3F8B832002B37D07B68D3F8B8327B
:1033F000FB60FB68D3F80C32002B30D01A4B5B6EAD
:10340000002B03D1194B1B78002B04D0FB68002242
:10341000C3F80C2224E0FB68D3F804321B78002B9D
:1034200007D1114B00225A66FB680022C3F80C2218
:1034300016E0FB68D3F80412FB68D3F80C321A4686
:10344000094806F0CDFFFB68D3F80C32064A5366F4
:10345000FB680022C3F80C2202E000BF00E000BFBE
:103460001037BD4680BD00BFAC060020A906002075
:1034700080B500AF0F4B5B6E002B18D00E4B0122B6
:103480001A700C4B1B78562B03D00A4B1B78762BEB
:1034900004D105210948FFF75BFF02E00548FDF76D
:1034A000D7FF044B00225A66034B00221A7000BF5C
:1034B00080BD00BFAC060020A9060020D8B30008DC
:1034C00080B400AF00BFBD4680BC704780B400AF81
:1034D000034B01221A7000BFBD4680BC704700BF7D
:1034E000A412002080B500AFFFF728FF384B5B6ABD
:1034F0004FF000011846FDF71BFD0346002B55D089
:10350000334B1A69324B5B6A19461046FDF708FCCB
:10351000034630491846FDF74FFB03461A462C4B2D
:10352000DA622B4B5A692A4B5B6A19461046FDF743
:10353000F7FB034627491846FDF73EFB03461A46AC
:10354000234B1A63224B9A69214B5B6A194610463A
:10355000FDF7E6FB03461F491846FDF72DFB034622
:103560001A461B4B5A631A4BDA69194B5B6A1946A8
:103570001046FDF7D5FB034616491846FDF71CFB20
:1035800003461A46124B9A63114B1A6A104B5B6A38
:1035900019461046FDF7C4FB03460E491846FDF7D1
:1035A0000BFB03461A460A4BDA630EE0084B094A46
:1035B000DA62074B074A1A63054B064A5A63044B03
:1035C000044A9A63024B034ADA6300BF80BD00BF1E
:1035D0001C0700200000C84290B583B000AFBC4B70
:1035E0007B60BC4B5B6A1846FDF78EFA0346796830
:1035F0001846FDF7E1FA0346B7491846FDF790FB78
:1036000003463B603868FCF70FFF03460C461A463A
:103610002346A5A1D1E90001FCF7A6FD03460C460F
:1036200018462146A2A3D3E90023FDF77FF80346FD
:103630000C46184621464FF00002A84BFCF796FDB9
:1036400003460C4618462146FDF758F90246A44B9E
:103650009A62A04B1B681846FCF7C4FE96A3D3E9F8
:103660000023FDF763F803460C4618462146FDF794
:1036700045F903469B491846FDF79EFA03461A464C
:10368000974B5A60934B5B681846FCF7ABFE8AA3D6
:10369000D3E90023FDF74AF803460C4618462146B5
:1036A000FDF72CF903468F491846FDF785FA0346C6
:1036B0001A468B4BDA60874B1B681846FCF792FE64
:1036C0007DA3D3E90023FDF731F803460C461846E5
:1036D0002146FDF713F9034679681846FDF76CFAA1
:1036E000034681491846FDF767FA03461A467C4BA4
:1036F0001A60784B5B681846FCF774FE6EA3D3E93A
:103700000023FDF713F803460C4618462146FDF743
:10371000F5F8034679681846FDF74EFA03467249F4
:103720001846FDF749FA03461A466D4B9A60694BF5
:103730009B681846FDF7E8F9034679681846FDF7D7
:103740003BFA034664491846FDF7EAFA03463B6034
:103750003868FCF769FE5AA3D3E90023FCF7BCFEE6
:1037600003460C461846214657A3D3E90023FCF72D
:10377000DDFF03460C46184621464FF000025B4B26
:10378000FCF7AAFE03460C4618462146FDF7B6F89C
:103790000246534B1A614F4BDB681846FDF7B4F9EC
:1037A000034679681846FDF707FA03464A49184662
:1037B000FDF7B6FA03463B603868FCF735FE40A3D8
:1037C000D3E90023FCF788FE03460C461846214641
:1037D0003DA3D3E90023FCF7A9FF03460C46184696
:1037E00021464FF00002414BFCF776FE03460C46A3
:1037F00018462146FDF782F80246394B5A61354B8F
:103800001B691846FDF780F9034679681846FDF7ED
:10381000D3F9034630491846FDF782FA03463B6068
:103820003868FCF701FE26A3D3E90023FCF754FE19
:1038300003460C461846214623A3D3E90023FCF790
:1038400075FF03460C46184621464FF00002274BF1
:10385000FCF742FE03460C4618462146FDF74EF89B
:1038600002461F4B9A611B4B5B691846FDF74CF9EA
:10387000034679681846FDF79FF90346164918462E
:10388000FDF74EFA03463B603868FCF7CDFD0CA30C
:10389000D3E90023FCF720FE03460C4618462146D8
:1038A00026E000BFAFF30080E17A14AE47E1F63FB7
:1038B00033333333333311400000000000FEAF4098
:1038C0003D0AD7A3707D3840EC51B81E85EB03400C
:1038D000B81E55403012002000F07F4500003940EE
:1038E0001C0700200000C84200007A4400408F40BE
:1038F00049A3D3E90023FCF719FF03460C461846F9
:1039000021464FF000024A4BFCF7E6FD03460C4609
:1039100018462146FCF7F2FF0246464BDA61464B59
:103920009B691846FDF7F0F8034679681846FDF7DD
:1039300043F9034641491846FDF7F2F903463B6057
:103940003868FCF771FD36A3D3E90023FCF7C4FD0A
:1039500003460C46184621462FA3D3E90023FCF763
:10396000E5FE03460C46184621464FF00002304B58
:10397000FCF7B2FD03460C4618462146FCF7BEFF95
:1039800002462C4B1A622C4BDB691846FDF7BCF83B
:10399000034679681846FDF70FF90346274918468C
:1039A000FDF7BEF903463B603868FCF73DFD1CA3FC
:1039B000D3E90023FCF790FD03460C461846214648
:1039C00015A3D3E90023FCF7B1FE03460C461846C5
:1039D00021464FF00002164BFCF77EFD03460C46D5
:1039E0001846214610A3D3E90023FCF7BFFB03468A
:1039F0000C4618462146FCF781FF02460D4B5A62E1
:103A0000FFF770FD0E4B00221A7000BF0C37BD4649
:103A100090BD00BFAFF30080EC51B81E85EB0340B2
:103A20003D0AD7A3707D38400000000000D89D40BB
:103A300000408F401C0700203012002000F07F451E
:103A4000A412002080B400AF00BFBD4680BC704708
:103A500080B485B000AF154B9B69144A43F0010355
:103A60009361124B9B6903F00103BB60BB680F4B72
:103A7000DB690E4A43F08053D3610C4BDB6903F0E2
:103A800080537B607B680A4B5B68FB60FB6823F0BC
:103A9000E063FB60FB6843F00073FB60044AFB6873
:103AA000536000BF1437BD4680BC70470010024011
:103AB0000000014080B588B000AF786007F11003C6
:103AC00000221A605A609A60DA607B681B682D4A8F
:103AD000934252D12C4B9B692B4A43F40073936160
:103AE000294B9B6903F40073FB60FB68264B9B69C1
:103AF000254A43F004039361234B9B6903F00403BD
:103B0000BB60BB68FF233B6103237B6107F11003AC
:103B100019461E4801F006FA1D4B1E4A1A601C4B3E
:103B200000225A601A4B00229A60194B8022DA60F8
:103B3000174B4FF400721A61154B4FF400625A6133
:103B4000134B20229A61124B4FF48052DA611048D5
:103B500000F084FF0346002B01D0FFF773FF7B6862
:103B60000B4A1A620A4A7B68536200220021122023
:103B700000F03DFF122000F056FF00BF2037BD4689
:103B800080BD00BF00240140001002400008014039
:103B90005C1200200800024080B588B000AF786059
:103BA00007F1100300221A605A609A60DA607B689D
:103BB0001B68204A934239D11F4BDB691E4A43F4EC
:103BC0008043D3611C4BDB6903F48043FB60FB68DB
:103BD000194B9B69184A43F008039361164B9B6984
:103BE00003F00803BB60BB684FF420433B61022332
:103BF0007B610323FB6107F1100319460F4801F0B5
:103C000091F94FF480433B6100237B610123BB6149
:103C100007F110031946094801F084F90022002138
:103C2000242000F0E4FE242000F0FDFE00BF203739
:103C3000BD4680BD0038004000100240000C01402D
:103C400080B400AF00BFBD4680BC704780B400AFF9
:103C5000FEE780B400AFFEE780B400AFFEE780B4BB
:103C600000AFFEE780B400AF00BFBD4680BC704728
:103C700080B400AF00BFBD4680BC704780B400AFC9
:103C800000BFBD4680BC704780B500AF00F008F9AA
:103C9000FFF716FC00BF80BD80B500AF034801F000
:103CA0000DF8FFF713FC00BF80BD00BF5C120020C1
:103CB00080B500AF024800F0E7FA00BF80BD00BF4A
:103CC000FC11002080B500AF024801F004FC00BFE9
:103CD00080BD00BF401F002080B500AF034801F049
:103CE000FAFB0348FFF778FB00BF80BD401F0020B0
:103CF000AC12002080B500AF024803F06DF800BFA1
:103D000080BD00BF7808002080B584B000AF786027
:103D1000114B1B68002B02D10F4B104A1A600E4B3F
:103D20001B68FB600C4B1A687B6813446A4693421D
:103D300007D906F02BFB02460C2313604FF0FF332C
:103D400006E0054B1A687B681344034A1360FB685E
:103D500018461037BD4680BD68030020B021002002
:103D600080B400AF154B1B68144A43F00103136085
:103D7000124B5A681149124B13404B600F4B1B6892
:103D80000E4A23F0847323F4803313600B4B1B68BB
:103D90000A4A23F480231360084B5B68074A23F424
:103DA000FE035360054B4FF41F029A60054B4FF022
:103DB00000629A6000BFBD4680BC704700100240A0
:103DC0000000FFF800ED00E0002103E00B4B5B5822
:103DD000435004310A480B4B42189A42F6D30A4A20
:103DE00002E0002342F8043B084B9A42F9D3FFF764
:103DF000B7FF06F0D1FAFFF74DF87047DCB50008C1
:103E0000000000204C0300204C030020B0210020C3
:103E1000FEE7000080B500AF084B1B68074A43F07F
:103E200010031360032000F0D7FD002000F008F815
:103E3000FFF70EFE0023184680BD00BF00200240A1
:103E400080B582B000AF7860124B1A68124B1B78B5
:103E500019464FF47A73B3FBF1F3B2FBF3F3184650
:103E600000F0EFFD0346002B01D001230EE07B683C
:103E70000F2B0AD8002279684FF0FF3000F0B7FD11
:103E8000064A7B681360002300E0012318460837C8
:103E9000BD4680BD00000020080000200400002076
:103EA00080B400AF054B1B781A46054B1B681344C2
:103EB000034A136000BFBD4680BC70470800002065
:103EC000A812002080B400AF024B1B681846BD4604
:103ED00080BC7047A812002080B584B000AF786025
:103EE000FFF7F0FFB8607B68FB60FB68B3F1FF3F52
:103EF00005D0094B1B781A46FB681344FB6000BFD2
:103F0000FFF7E0FF0246BB68D31AFA689A42F7D877
:103F100000BF1037BD4680BD0800002080B586B0C8
:103F200000AF78600023FB7500233B610023BB607A
:103F30000023FB607B68002B01D10123BEE07B687E
:103F40009B68002B7B689B6A002B09D17B68002251
:103F5000DA627B68002283F824207868FFF7AAFDE4
:103F6000786800F0C3FB0346FB757B689B6A03F02F
:103F70001003002B40F09980FB7D002B40F09580D2
:103F80007B689B6A23F4885323F0020343F0020208
:103F90007B689A627B685A687B68DB691A437B6836
:103FA0001B7B5B001343BA681343BB607B689B6851
:103FB000B3F5807F03D07B689B68012B02D14FF45F
:103FC000807300E000233A6913433B617B681B7DEB
:103FD000012B19D17B681B7B002B09D17B689B6966
:103FE000013B5A033B69134343F400633B610BE01D
:103FF0007B689B6A43F020027B689A627B68DB6A7D
:1040000043F001027B68DA627B681B685B6823F41B
:1040100069417B681B683A690A435A607B681B6880
:104020009A68284B13407A681268B9680B4393600A
:104030007B689B68B3F5807F03D07B689B68012B0E
:1040400004D17B681B69013B1B05FB607B681B6817
:10405000DB6A23F470017B681B68FA680A43DA6242
:104060007B681B689A68184B1340BA689A420BD158
:104070007B680022DA627B689B6A23F0030343F0CB
:1040800001027B689A6218E07B689B6A23F0120346
:1040900043F010027B689A627B68DB6A43F001029E
:1040A0007B68DA620123FB7507E07B689B6A43F05B
:1040B00010027B689A620123FB75FB7D1846183756
:1040C000BD4680BDFDF7E1FFFE0E1FFF80B586B047
:1040D00000AFF860B9607A600023FB75FB681B686D
:1040E000644A934204D0FB681B68634A934206D13A
:1040F000604B5B6803F47023002B40F0B380FB68D7
:1041000093F82430012B01D10223AEE0FB68012299
:1041100083F82420F86800F097FA0346FB75FB7DCE
:10412000002B40F09A80FB689B6A23F4706323F0B5
:10413000010343F48072FB689A62FB681B684E4A75
:10414000934205D14B4B5B6803F47023002B15D1D0
:10415000FB689B6A23F48012FB689A62FB681B6809
:104160005B6803F48063002B26D0FB689B6A23F412
:10417000405343F48052FB689A621DE0FB689B6ADF
:1041800043F48012FB689A62FB681B68394A9342C9
:1041900004D0FB681B68384A93420DD1354B5B68ED
:1041A00003F48063002B07D0FB689B6A23F4405321
:1041B00043F48052FB689A62FB689B6A03F4805365
:1041C000002B06D0FB68DB6A23F00602FB68DA628C
:1041D00002E0FB680022DA62FB68002283F82420F8
:1041E000FB681B6A254A9A62FB681B6A244ADA62EA
:1041F000FB681B6A234A1A63FB681B686FF00202A4
:104200001A60FB681B689A68FB681B6842F480723E
:104210009A60FB68186AFB681B684C331946BA68D9
:104220007B6800F075FCFB681B689B6803F46023E7
:10423000B3F5602F08D1FB681B689A68FB681B68A0
:1042400042F4A0029A600FE0FB681B689A68FB6862
:104250001B6842F480129A6006E0FB68002283F833
:10426000242001E00123FB75FB7D18461837BD466D
:1042700080BD00BF002401400028014061470008C4
:10428000DD470008F947000880B582B000AF7860CC
:104290007B681B685B6803F02003202B40D17B68A0
:1042A0001B681B6803F00203022B39D17B689B6AF1
:1042B00003F01003002B05D17B689B6A43F4007266
:1042C0007B689A627B681B689B6803F46023B3F584
:1042D000602F1DD17B681B7B002B19D17B681B686D
:1042E0005A687B681B6822F020025A607B689B6AD0
:1042F00023F480727B689A627B689B6A03F4805324
:10430000002B05D17B689B6A43F001027B689A62AF
:10431000786800F07CF87B681B686FF012021A6006
:104320007B681B685B6803F08003802B4FD17B6840
:104330001B681B6803F00403042B48D17B689B6A4D
:1043400003F01003002B05D17B689B6A43F40052F5
:104350007B689A627B681B689B6803F4E043B3F553
:10436000E04F12D07B681B685B6803F48063002B0E
:1043700025D17B681B689B6803F46023B3F5602F2D
:104380001DD17B681B7B002B19D17B681B685A6889
:104390007B681B6822F080025A607B689B6A23F46A
:1043A00080527B689A627B689B6A03F48073002B5F
:1043B00005D17B689B6A43F001027B689A6278684A
:1043C00000F034FA7B681B686FF00C021A607B689F
:1043D0001B685B6803F04003402B14D17B681B68AB
:1043E0001B6803F00103012B0DD17B689B6A43F42A
:1043F00080327B689A62786800F01BF87B681B68E3
:104400006FF001021A6000BF0837BD4680BD80B45E
:1044100083B000AF786000BF0C37BD4680BC7047EA
:1044200080B483B000AF786000BF0C37BD4680BC5D
:10443000704780B483B000AF786000BF0C37BD46D2
:1044400080BC704780B483B000AF786000BF0C3789
:10445000BD4680BC7047000080B485B000AF786076
:1044600039600023FB730023BB607B6893F8243022
:10447000012B01D10223DCE07B68012283F8242098
:104480003B685B68062B1CD87B681B68596B3B68D4
:104490005A6813469B001344053B1F2202FA03F39C
:1044A000DB4319403B6818683B685A6813469B0019
:1044B0001344053B00FA03F27B681B680A435A6306
:1044C0003CE03B685B680C2B1CD87B681B68196B55
:1044D0003B685A6813469B001344233B1F2202FA91
:1044E00003F3DB4319403B6818683B685A6813467E
:1044F0009B001344233B00FA03F27B681B680A43CA
:104500001A631BE07B681B68D96A3B685A681346CC
:104510009B001344413B1F2202FA03F3DB43194083
:104520003B6818683B685A6813469B001344413B3C
:1045300000FA03F27B681B680A43DA623B681B6877
:10454000092B1CD97B681B68D9683B681A6813461D
:104550005B0013441E3B072202FA03F3DB431940BE
:104560003B6898683B681A6813465B0013441E3B1F
:1045700000FA03F27B681B680A43DA6019E07B6883
:104580001B6819693B681A6813465B0013440722CD
:1045900002FA03F3DB4319403B6898683B681A68EA
:1045A00013465B00134400FA03F27B681B680A435E
:1045B0001A613B681B68102B03D03B681B68112BEA
:1045C00032D17B681B681D4A934225D17B681B68EA
:1045D0009B6803F40003002B26D17B681B689A6854
:1045E0007B681B6842F400029A603B681B68102BD2
:1045F0001AD1134B1B68134AA2FB03239A0C1346D0
:104600009B0013445B00BB6002E0BB68013BBB60E6
:10461000BB68002BF9D107E07B689B6A43F020025E
:104620007B689A620123FB737B68002283F8242055
:10463000FB7B18461437BD4680BC70470024014000
:104640000000002083DE1B4380B584B000AF78609B
:104650000023FB600023BB607B681B689B6803F042
:104660000103012B39D07B681B689A687B681B6843
:1046700042F001029A601B4B1B681B4AA2FB0323FA
:104680009B0CBB6002E0BB68013BBB60BB68002BBE
:10469000F9D1FFF717FCF86018E0FFF713FC0246AA
:1046A000FB68D31A022B11D97B689B6A43F0100276
:1046B0007B689A627B68DB6A43F001027B68DA629E
:1046C0007B68002283F82420012307E07B681B68B5
:1046D0009B6803F00103012BDFD10023184610373C
:1046E000BD4680BD0000002083DE1B4380B584B042
:1046F00000AF78600023FB607B681B689B6803F059
:104700000103012B27D17B681B689A687B681B68B3
:1047100022F001029A60FFF7D5FBF86014E0FFF782
:10472000D1FB0246FB68D31A022B0DD97B689B6A2A
:1047300043F010027B689A627B68DB6A43F00102F7
:104740007B68DA62012307E07B681B689B6803F0E3
:104750000103012BE3D0002318461037BD4680BD6E
:1047600080B584B000AF78607B685B6AFB60FB68F3
:104770009B6A03F05003002B27D1FB689B6A43F42C
:104780000072FB689A62FB681B689B6803F46023F5
:10479000B3F5602F15D1FB681B7B002B11D1FB6893
:1047A0009B6A23F48072FB689A62FB689B6A03F43D
:1047B0008053002B05D1FB689B6A43F00102FB6824
:1047C0009A62F868FFF723FE04E0FB681B6A1B6B24
:1047D0007868984700BF1037BD4680BD80B584B06B
:1047E00000AF78607B685B6AFB60F868FFF718FED3
:1047F00000BF1037BD4680BD80B584B000AF786083
:104800007B685B6AFB60FB689B6A43F04002FB6865
:104810009A62FB68DB6A43F00402FB68DA62F868BC
:10482000FFF710FE00BF1037BD4680BD80B483B0D7
:1048300000AF786000BF0C37BD4680BC70470000F9
:1048400080B485B000AF78607B6803F00703FB603D
:104850000C4BDB68BB60BA684FF6FF031340BB60CC
:10486000FB681A02BB68134343F0BF6343F4003391
:10487000BB60044ABB68D36000BF1437BD4680BC30
:10488000704700BF00ED00E080B400AF044BDB6870
:104890001B0A03F007031846BD4680BC704700BFE3
:1048A00000ED00E080B483B000AF0346FB7197F9E0
:1048B0000730002B0BDBFB7903F01F02064997F949
:1048C00007305B09012000FA02F241F8232000BF03
:1048D0000C37BD4680BC704700E100E080B483B077
:1048E00000AF03463960FB7197F90730002B0ADBF4
:1048F0003B68DAB20C4997F907301201D2B20B4487
:1049000083F800230AE03B68DAB20849FB7903F038
:104910000F03043B1201D2B20B441A7600BF0C37CE
:10492000BD4680BC704700BF00E100E000ED00E044
:1049300080B489B000AFF860B9607A60FB6803F0BA
:104940000703FB61FB69C3F10703042B28BF0423A2
:10495000BB61FB690433062B02D9FB69033B00E012
:1049600000237B614FF0FF32BB6902FA03F3DA43A5
:10497000BB681A407B699A404FF0FF317B6901FAAE
:1049800003F3D9437B680B40134318462437BD46D5
:1049900080BC704780B582B000AF78607B68013B17
:1049A000B3F1807F01D301230FE00A4A7B68013B0A
:1049B00053600F214FF0FF30FFF790FF054B0022AF
:1049C0009A60044B07221A60002318460837BD4638
:1049D00080BD00BF10E000E080B582B000AF78601D
:1049E0007868FFF72DFF00BF0837BD4680BD80B552
:1049F00086B000AF0346B9607A60FB7300237B6129
:104A0000FFF742FF78617A68B9687869FFF790FF2D
:104A1000024697F90F3011461846FFF75FFF00BFB7
:104A20001837BD4680BD80B582B000AF0346FB712C
:104A300097F907301846FFF735FF00BF0837BD4626
:104A400080BD80B582B000AF78607868FFF7A2FFC4
:104A5000034618460837BD4680BD000080B485B0C7
:104A600000AF78600023FB607B68002B01D101233D
:104A700043E07B681B681A46224B1344224AA2FB80
:104A800003231B099A007B681A647B681F4ADA6358
:104A90007B68022283F821207B681B681B68FB600F
:104AA000FB6823F47F5323F03003FB607B685A6874
:104AB0007B689B681A437B68DB681A437B681B69C9
:104AC0001A437B685B691A437B689B691A437B685E
:104AD000DB691343FA681343FB607B681B68FA6861
:104AE0001A607B6800229A637B68012283F8212088
:104AF0007B68002283F82020002318461437BD4627
:104B000080BC7047F8FFFDBFCDCCCCCC000002408C
:104B100080B586B000AFF860B9607A603B60002372
:104B2000FB75FB6893F82030012B01D102234AE08A
:104B3000FB68012283F82020FB6893F82130012BC9
:104B40003AD1FB68022283F82120FB6800229A6395
:104B5000FB681B681A68FB681B6822F001021A6078
:104B60003B687A68B968F86800F0AEF9FB68DB6A00
:104B7000002B08D0FB681B681A68FB681B6842F0B2
:104B80000E021A600FE0FB681B681A68FB681B685E
:104B900022F004021A60FB681B681A68FB681B6835
:104BA00042F00A021A60FB681B681A68FB681B68FF
:104BB00042F001021A6005E0FB68002283F8202021
:104BC0000223FB75FB7D18461837BD4680BD0000EB
:104BD00080B584B000AF78600023FB737B6893F8E6
:104BE0002130022B05D07B6804229A630123FB73DA
:104BF00051E07B681B681A687B681B6822F00E0214
:104C00001A607B681B681A687B681B6822F00102C7
:104C10001A607B681B68224A934229D07B681B6814
:104C2000204A934222D07B681B681F4A93421AD0C5
:104C30007B681B681D4A934212D07B681B681C4A24
:104C400093420AD07B681B681A4A934202D14FF400
:104C500080130EE04FF080730BE04FF4803308E0D8
:104C60004FF4805305E04FF4807302E0102300E01E
:104C70000123114A53607B68012283F821207B685D
:104C8000002283F820207B685B6B002B03D07B68BD
:104C90005B6B78689847FB7B18461037BD4680BD34
:104CA000080002401C000240300002404400024064
:104CB000580002406C0002400000024080B584B001
:104CC00000AF78607B68DB6B1B68FB607B681B68F0
:104CD0001B68BB607B681B6C04229A40FB68134016
:104CE000002B4FD0BB6803F00403002B4AD07B6835
:104CF0001B681B6803F02003002B07D17B681B682F
:104D00001A687B681B6822F004021A607B681B68C3
:104D1000664A934229D07B681B68654A934222D039
:104D20007B681B68634A93421AD07B681B68624A9F
:104D3000934212D07B681B68604A93420AD07B681A
:104D40001B685F4A934202D14FF480030EE04FF09C
:104D500080630BE04FF4802308E04FF4804305E0CC
:104D60004FF4806302E0402300E00423554A53607F
:104D70007B68DB6A002B00F094807B68DB6A7868D4
:104D800098478EE07B681B6C02229A40FB681340B8
:104D9000002B56D0BB6803F00203002B51D07B6878
:104DA0001B681B6803F02003002B0BD17B681B687A
:104DB0001A687B681B6822F00A021A607B6801226D
:104DC00083F821207B681B68384A934229D07B688E
:104DD0001B68374A934222D07B681B68354A93424E
:104DE0001AD07B681B68344A934212D07B681B68D8
:104DF000324A93420AD07B681B68314A934202D1FF
:104E00004FF400130EE04FF000730BE04FF400334B
:104E100008E04FF4005305E04FF4007302E0202354
:104E200000E00223274A53607B68002283F8202099
:104E30007B689B6A002B34D07B689B6A78689847B4
:104E40002FE07B681B6C08229A40FB681340002B04
:104E500028D0BB6803F00803002B23D07B681B68B5
:104E60001A687B681B6822F00E021A607B681A6C55
:104E70007B68DB6B012101FA02F25A607B68012238
:104E80009A637B68012283F821207B68002283F8E3
:104E900020207B681B6B002B04D07B681B6B786821
:104EA000984700BF00BF1037BD4680BD08000240D4
:104EB0001C00024030000240440002405800024002
:104EC0006C0002400000024080B485B000AFF86082
:104ED000B9607A603B60FB681A6CFB68DB6B012190
:104EE00001FA02F25A60FB681B683A685A60FB6874
:104EF0005B68102B08D1FB681B687A689A60FB68B6
:104F00001B68BA68DA6007E0FB681B68BA689A60D9
:104F1000FB681B687A68DA6000BF1437BD4680BC46
:104F20007047000080B48BB000AF78603960002318
:104F30007B6200233B6227E101227B6A02FA03F3D2
:104F4000FB613B681B68FA691340BB61BA69FB6986
:104F50009A4240F016813B685B68122B34D0122BCA
:104F60000DD8022B2BD0022B04D8002B31D0012BD3
:104F70001CD048E0032B43D0112B1BD043E0894ABF
:104F8000934226D0874A934206D8874A934220D03C
:104F9000864A93421DD036E0854A934219D0854A0D
:104FA000934216D0844A934213D02CE03B68DB68CE
:104FB0003B6228E03B68DB6804333B6223E03B68EC
:104FC000DB6808333B621EE03B68DB680C333B6206
:104FD00019E03B689B68002B02D104233B6212E07E
:104FE0003B689B68012B05D108233B627B68FA690B
:104FF0001A6108E008233B627B68FA695A6102E0A3
:1050000000233B6200BFBB69FF2B01D87B6801E036
:105010007B6804337B61BB69FF2B02D87B6A9B00F2
:1050200002E07B6A083B9B003B617B691A680F21A9
:105030003B6901FA03F3DB431A40396A3B6901FA21
:1050400003F31A437B691A603B685B6803F0805383
:10505000002B00F09680594B9B69584A43F001039E
:105060009361564B9B6903F00103BB60BB68544AD4
:105070007B6A9B08023352F82330FB607B6A03F0A3
:1050800003039B000F2202FA03F3DB43FA68134089
:10509000FB607B684B4A934213D07B684A4A934239
:1050A0000DD07B68494A934207D07B68484A9342B7
:1050B00001D1032306E0042304E0022302E00123DC
:1050C00000E000237A6A02F0030292009340FA683B
:1050D0001343FB603A497B6A9B080233FA6841F844
:1050E00023203B685B6803F48033002B06D0394BE8
:1050F0001A683849BB6913430B6006E0354B1A68E0
:10510000BB69DB43334913400B603B685B6803F4C6
:105110000033002B06D02F4B5A682E49BB6913432E
:105120004B6006E02B4B5A68BB69DB4329491340AF
:105130004B603B685B6803F48013002B06D0254B63
:105140009A682449BB6913438B6006E0214B9A6837
:10515000BB69DB431F4913408B603B685B6803F40A
:105160000013002B06D01B4BDA681A49BB691343A6
:10517000CB6006E0174BDA68BB69DB431549134087
:10518000CB607B6A01337B623B681A687B6A22FAD8
:1051900003F3002B7FF4D0AE00BF2C37BD4680BC9C
:1051A000704700BF00002110000011100000121015
:1051B00000003110000032100000221000100240E8
:1051C0000000014000080140000C014000100140B7
:1051D000001401400004014080B483B000AF786047
:1051E0000B467B8013467B707B78002B03D07A883C
:1051F0007B681A6103E07B881A047B681A6100BF30
:105200000C37BD4680BC704780B483B000AF786077
:105210000B467B807B68DA687B881340002B03D0C9
:105220007A887B685A6102E07A887B681A6100BFDD
:105230000C37BD4680BC704780B584B000AF786045
:105240007B68002B01D101232BE07B681B684CF6A7
:10525000CC421A607B681B6845F255521A607B6825
:105260001B687A6852685A607B681B687A68926823
:105270009A60FEF727FEF86008E0FEF723FE02467C
:10528000FB68D31A302B01D903230AE07B681B6823
:10529000DB68002BF1D17B681B684AF6AA221A60F2
:1052A000002318461037BD4680BD80B483B000AFE0
:1052B00078607B681B684AF6AA221A6000231846A9
:1052C0000C37BD4680BC7047F0B58BB006AF786038
:1052D0007B68002B01D10123D3E07B6893F829324E
:1052E000DBB2002B06D17B68002283F82822786885
:1052F00004F0A6FD7B68032283F829227B681B68E3
:10530000184601F01DFF7B681B683B607E686D4698
:1053100006F110040FCC0FC523682B60331D0ECB94
:10532000386801F0E6FE0346002B05D07B680222B8
:1053300083F829220123A4E07B681B68002118461A
:1053400001F01AFF0023FB7335E0FB7B7A685B01F9
:105350001344293301221A70FB7B7A685B011344E2
:105360002833FA7B1A70FB7BFA7B91B27A685B0177
:10537000134436330A461A80FB7B7A685B01134478
:105380002B3300221A70FB7B7A685B01134438339D
:1053900000221A60FB7B7A685B0113443C330022D5
:1053A0001A60FB7B7A6802335B01134400221A60A7
:1053B000FB7B0133FB73FA7B7B685B689A42C4D347
:1053C0000023FB7331E0FB7B7A685B01134403F23B
:1053D000291300221A70FB7B7A685B01134403F5E2
:1053E0009473FA7B1A70FB7B7A685B01134403F2B7
:1053F0002B1300221A70FB7B7A685B01134403F5C0
:105400009C7300221A60FB7B7A685B01134403F5EE
:105410009E7300221A60FB7B7A680A335B01134497
:1054200000221A60FB7B0133FB73FA7B7B685B68AD
:105430009A42C8D37B681B683B607E686D4606F164
:1054400010040FCC0FC523682B60331D0ECB3868BA
:1054500001F09EFE0346002B05D07B68022283F8F4
:10546000292201230DE07B68002283F824207B6839
:10547000012283F829227B681B68184602F0DBFEB4
:10548000002318461437BD46F0BD80B582B000AF8A
:1054900078607B6893F82832012B01D1022316E053
:1054A0007B68012283F828220121786804F037FF05
:1054B0007B681B68184602F0B4FE7B681B681846C0
:1054C00001F027FE7B68002283F82822002318467B
:1054D0000837BD4680BD80B582B000AF78607B687C
:1054E0001B68184602F0B1FE034603F40043B3F50F
:1054F000004F02D1786800F0F3FA7B681B68184609
:1055000002F0A3FE034603F48063B3F5806F12D16B
:105510007B681B68B3F844309AB27B681B6822F43E
:10552000806292B2A3F84420786804F006FD00215E
:10553000786800F0DEF87B681B68184602F085FE8C
:10554000034603F48043B3F5804F0BD17B681B689F
:10555000B3F844309AB27B681B6822F4804292B25E
:10556000A3F844207B681B68184602F06EFE0346D1
:1055700003F40053B3F5005F0BD17B681B68B3F8ED
:1055800044309AB27B681B6822F4005292B2A3F8AE
:1055900044207B681B68184602F057FE034603F45C
:1055A0008053B3F5805F26D17B681B68B3F8403029
:1055B0009AB27B681B6822F0040292B2A3F84020E2
:1055C0007B681B68B3F840309AB27B681B6822F096
:1055D000080292B2A3F84020786804F0E7FC7B68E8
:1055E0001B68B3F844309AB27B681B6822F480527F
:1055F00092B2A3F844207B681B68184602F025FE8F
:10560000034603F40063B3F5006F3DD17B681B686C
:10561000B3F840309AB27B681B6842F0080292B23D
:10562000A3F840207B681B68B3F844309AB27B68CB
:105630001B6822F4006292B2A3F844207B681B68C6
:10564000B3F840309AB27B681B6842F0040292B211
:10565000A3F840207B681B68184602F0F6FD03465D
:1056600003F48053B3F5805F0BD17B681B68B3F8FC
:1056700044309AB27B681B6822F4805292B2A3F83D
:105680004420786804F078FC7B681B68184602F0B8
:10569000DCFD034603F40073B3F5007F0ED17B6895
:1056A0001B68B3F844309AB27B681B6822F400721E
:1056B00092B2A3F84420786804F031FC7B681B6840
:1056C000184602F0C2FD034603F48073B3F5807FF1
:1056D0000BD17B681B68B3F844309AB27B681B68B7
:1056E00022F4807292B2A3F8442000BF0837BD466E
:1056F00080BD80B582B000AF78600B46FB707B68E0
:1057000093F82832012B01D1022313E07B68012298
:1057100083F828227B68FA7883F824207B681B684A
:10572000FA781146184602F069FD7B68002283F87A
:105730002822002318460837BD4680BD80B584B0B6
:1057400000AF7860084611461A460346FB700B46C8
:105750003B801346BB700023FB7297F90330002B8C
:105760000BDAFB7803F007035B0128337A681344F4
:10577000FB60FB6801225A700BE0FB7803F0070323
:105780005B0103F594737A681344FB60FB680022A5
:105790005A70FB7803F00703DAB2FB681A703A8894
:1057A000FB681A61FB68BA78DA70FB685B78002BDB
:1057B00004D0FB681B789AB2FB68DA81BB78022BB5
:1057C00002D1FB6800221A717B6893F82832012B02
:1057D00001D102230EE07B68012283F828227B6836
:1057E0001B68F968184601F0F7FC7B68002283F813
:1057F0002822FB7A18461037BD4680BD80B584B09C
:1058000000AF78600B46FB7097F90330002B0BDA82
:10581000FB7803F007035B0128337A681344FB60CD
:10582000FB6801225A700BE0FB7803F007035B0171
:1058300003F594737A681344FB60FB6800225A7086
:10584000FB7803F00703DAB2FB681A707B6893F801
:105850002832012B01D102230EE07B68012283F85C
:1058600028227B681B68F968184601F0A3FF7B6853
:10587000002283F82822002318461037BD4680BD39
:1058800080B586B000AFF8607A603B600B46FB7273
:10589000FB7A03F007035B0103F59473FA68134482
:1058A0007B617B697A685A617B693A689A617B6936
:1058B0000022DA617B6900225A70FB7A03F0070349
:1058C000DAB27B691A70FB7A03F00703002B06D16A
:1058D000FB681B687969184602F002F905E0FB686D
:1058E0001B687969184602F0FBF800231846183740
:1058F000BD4680BD80B483B000AF78600B46FB70BE
:10590000FB7803F007037A680A335B01134404331E
:105910001B6818460C37BD4680BC704780B586B002
:1059200000AFF8607A603B600B46FB72FB7A03F0D5
:1059300007035B012833FA6813447B617B697A684B
:105940005A617B693A689A617B690022DA617B69F6
:1059500001225A70FB7A03F00703DAB27B691A70EE
:10596000FB7A03F00703002B06D1FB681B687969FB
:10597000184602F0B5F805E0FB681B68796918461F
:1059800002F0AEF8002318461837BD4680BD80B53A
:1059900084B000AF78600B46FB70FB7803F0070221
:1059A0007B685B689A4201D9012346E097F903308E
:1059B000002B0BDAFB7803F007035B0128337A68CE
:1059C0001344FB60FB6801225A7009E0FB785B011D
:1059D00003F594737A681344FB60FB6800225A70E5
:1059E000FB6801229A70FB7803F00703DAB2FB68C8
:1059F0001A707B6893F82832012B01D102231CE036
:105A00007B68012283F828227B681B68F9681846A6
:105A100002F01EFBFB7803F00703002B08D17B6824
:105A20001A687B6803F50C731946104602F01CFCDB
:105A30007B68002283F82822002318461037BD46D1
:105A400080BD80B584B000AF78600B46FB70FB78FA
:105A500003F00F027B685B689A4201D901233AE0A8
:105A600097F90330002B0BDAFB7803F007035B0197
:105A700028337A681344FB60FB6801225A700BE0FC
:105A8000FB7803F007035B0103F594737A68134412
:105A9000FB60FB6800225A70FB6800229A70FB785A
:105AA00003F00703DAB2FB681A707B6893F82832B8
:105AB000012B01D102230EE07B68012283F828220A
:105AC0007B681B68F968184602F004FB7B680022BB
:105AD00083F82822002318461037BD4680BD0000F9
